:020000040800F2
:1000000090E7012099010008053100080731000838
:100010000B3100080F310008133100080000000008
:100020000000000000000000000000001731000880
:1000300019310008000000001B3100081D310008C4
:10004000B3010008B3010008B3010008B3010008C0
:10005000B3010008B3010008B3010008B3010008B0
:10006000B3010008B3010008B3010008B3010008A0
:10007000B3010008B3010008B3010008B301000890
:10008000B3010008B3010008B3010008B301000880
:10009000B3010008B3010008B3010008B301000870
:1000A000B3010008B3010008B3010008B301000860
:1000B000353100083D31000845310008B301000822
:1000C000B3010008B3010008B3010008B301000840
:1000D000B301000825310008B3010008B30100088E
:1000E000B3010008B3010008B3010008B301000820
:1000F000B3010008B3010008B3010008B301000810
:10010000B30100084D310008B3010008B301000835
:100110002D310008B3010008B3010008B301000845
:10012000B3010008B3010008B3010008553100080D
:10013000B3010008B3010008B3010008B3010008CF
:10014000B3010008B3010008B3010008B3010008BF
:10015000B3010008B3010008B3010008B3010008AF
:10016000B3010008B3010008B3010008B30100089F
:10017000B3010008B3010008B3010008B30100088F
:10018000B3010008DFF80CD017F0A6FE00480047C6
:10019000252D000890E701200648804706480047C3
:1001A000FEE7FEE7FEE7FEE7FEE7FEE7FEE7FEE727
:1001B000FEE7FEE7052C00088501000810B504469F
:1001C0008C48844208D10121084600F000FB002140
:1001D000012000F0FCFA5EE08748844208D101214A
:1001E000022000F0F4FA0021022000F0F0FA52E0C0
:1001F0008248844208D10121042000F0E8FA00215D
:10020000042000F0E4FA46E07D48844208D1012150
:10021000082000F0DCFA0021082000F0D8FA3AE0CB
:100220007848844208D10121102000F0D0FA002142
:10023000102000F0CCFA2EE07348844208D101214E
:10024000202000F0C4FA0021202000F0C0FA22E0B3
:100250006E48844208D10121402000F0B8FA002104
:10026000402000F0B4FA16E06948844208D1012128
:10027000802000F0ACFA0021802000F0A8FA0AE00B
:100280006448844207D10121801500F0A0FA0021C2
:10029000A01500F09CFA10BDF0B50A46002100231D
:1002A000002400BF3DE0012505FA01F3156805EAC9
:1002B00003049C4234D105684F000326BE40B54379
:1002C000056015794E00B54006683543056015791F
:1002D000012D02D01579022D16D185684F00032615
:1002E000BE40B543856055794E00B54086683543BC
:1002F0008560456801268E40B5434560456896791E
:100300008E40B6B235434560C5684F000326BE40F7
:10031000B543C560D5794E00B540C6683543C56064
:10032000491C1029BFD3F0BD4FF6FF7101600021B9
:10033000017141718171C171704708B54FF480320C
:100340000092009A0A430092009AC261C161009A29
:10035000C261C2690092C269009208BD02460020D3
:1003600013690B400BB1012000E0002070470146EB
:10037000086980B270470246002053690B400BB1F8
:10038000012000E0002070470146486980B27047B4
:1003900001837047418370470AB1018300E04183C4
:1003A00070474161704742694A4042617047F0B509
:1003B000002300244D07ED0E02FA05F3CE1000F1E4
:1003C000200555F826504E07F70E0F26BE40B543C0
:1003D000CF1000F1200646F82750CE1000F120057E
:1003E00055F8265045EA0304CE1000F1200545F8E3
:1003F0002640F0BD00000240000402400008024018
:10040000000C02400010024000140240001802409C
:10041000001C024000200240FA48006840F0010041
:10042000F84908600020F74908310860F54800687D
:10043000F5490840F3490860F448091D0860081FA1
:10044000006820F48020091F08600020ED490C316D
:10045000086070470021EB4A921C11701146087029
:10046000704710B501460022002300204A11012ADE
:1004700002D1E44C236808E0022A03D1E14C703435
:10048000236802E0DF4C7434236801F01F0201246A
:1004900094401C400CB1012000E0002010BD38B594
:1004A000002000900024002500BF3120FFF7D9FF75
:1004B00005460098401C00900098B0F5A06F01D050
:1004C000002DF2D03120FFF7CCFF08B1012400E06D
:1004D0000024204638BD01460020CA4A106820F09A
:1004E000F80040EAC10010607047C94908607047D1
:1004F0000021C44A703211701170012802D0042802
:100500000AD104E00121BF4A7032117005E00521D3
:10051000BC4A7032117000E000BF00BF7047BD4997
:100520000860704770B5049C41EA82150126C6EB4D
:10053000530645EA0645054345EA0465B14E361DB6
:10054000356070BDB24908667047820142EA0172A7
:10055000AC4B84331A607047AD4988667047AC492C
:10056000C864704702460020A64B0833186820F084
:10057000EC6042EA01031843A24B0833186070474D
:10058000024600209F4B0833186820F0784042EA6A
:10059000010318439B4B0833186070470146002045
:1005A000984A0832106820F0030008431060704732
:1005B00094480830006800F00C00704701460020A5
:1005C000904A0832106820F0F0000843106070472D
:1005D000014600208B4A0832106820F4E05008439E
:1005E0001060704701460020864A0832106820F4E7
:1005F000604040EAC10010607047F0B50021002261
:1006000000240225002602237E4F08373F6807F0AA
:100610000C0121B1042905D0082937D105E07E4F0E
:10062000076036E07D4F076033E0764F3F1D3F683F
:10063000C7F38056734F3F1D3F6807F03F036EB10D
:10064000764FB7FBF3F7DFF8BCC10CF1040CDCF814
:1006500000C0CCF3881C07FB0CF40CE06E4FB7FB1A
:10066000F3F7DFF8A0C10CF1040CDCF800C0CCF308
:10067000881C07FB0CF4634F3F1D3F68C7F301471D
:100680007F1C7D00B4FBF5F7076002E0624F076056
:1006900000BF00BF5B4F08373F6807F0F001090952
:1006A0005F4F7A5C0768D7404760564F08373F680E
:1006B00007F4E051890A5A4F7A5C4768D74087604F
:1006C000504F08373F6807F46041490B544F7A5C3C
:1006D0004768D740C760F0BD002100F44072B2F512
:1006E000407F0AD1474A0832116821F4F8114D4A77
:1006F00002401143434A08321160424A7032126884
:10070000C0F30B031A433F4B70331A6070474149E3
:100710004439086070473F49403908607047424992
:100720000860704739B1374A303212680243354B9E
:1007300030331A6006E0334A303212688243314B5C
:1007400030331A60704739B12E4A3432126802438E
:100750002C4B34331A6006E02A4A34321268824342
:10076000284B34331A60704739B1264A3832126840
:100770000243244B38331A6006E0224A38321268AA
:100780008243204B38331A60704739B11D4A4032DA
:10079000126802431B4B40331A6006E0194A40328C
:1007A00012688243174B40331A60704739B1154ABB
:1007B000443212680243134B44331A6006E0114A74
:1007C0004432126882430F4B44331A60704739B188
:1007D0000C4A1032126802430A4B10331A6006E0CA
:1007E000084A103212688243064B10331A60704771
:1007F000E1B1044A143212680243024B14331A6006
:1008000019E0000000380240FFFFF6FE103000241F
:1008100000004742800E47420024F40040787D01EA
:1008200000000020FFFCFF0F5C0147425B4A12689A
:1008300082435A4B1A60704739B1584A121D1268E8
:100840000243564B1B1D1A6006E0544A121D1268E3
:100850008243524B1B1D1A60704739B14F4A0C320C
:10086000126802434D4B0C331A6006E04B4A0C32BF
:1008700012688243494B0C331A60704739B1474ABA
:10088000103212680243454B10331A6006E0434AA7
:10089000103212688243414B10331A60704739B1ED
:1008A0003E4A3C32126802433C4B3C331A6006E03D
:1008B0003A4A3C3212688243384B3C331A607047E4
:1008C00039B1364A403212680243344B40331A6021
:1008D00006E0324A403212688243304B40331A609D
:1008E000704739B12D4A4432126802432B4B4433CE
:1008F0001A6006E0294A443212688243274B443387
:100900001A60704739B1254A4C3212680243234BB2
:100910004C331A6006E0214A4C32126882431F4B66
:100920004C331A60704739B11C4A50321268024386
:100930001A4B50331A6006E0184A5032126882434C
:10094000164B50331A60704739B1144AD21F1278CF
:100950000243124BDB1F1A7006E0104AD21F1278B6
:1009600082430E4BDB1F1A7070470C4860300068E2
:1009700040F08070094960310860704701460020EE
:10098000064A083A12680A400AB1012000E0002035
:1009900070470249891F08707047000014380240F0
:1009A00010B50446F748844208D101211020FFF712
:1009B00065FF00211020FFF761FF3EE0F24884420E
:1009C00009D101214804FFF748FF00214FF400300E
:1009D000FFF743FF31E0ED48844209D1012188044B
:1009E000FFF73BFF00214FF48020FFF736FF24E0A4
:1009F000E748844209D10121C804FFF72EFF0021F6
:100A00004FF40020FFF729FF17E0E248844209D1A4
:100A100001210805FFF721FF00214FF48010FFF7A7
:100A20001CFF0AE0DC48844207D101212020FFF7A7
:100A300025FF00212020FFF721FF10BD2DE9FF47F2
:100A400005460E460024A14600BFA046B08900B16D
:100A500000BF2C8A24F44054F08804432C82AC89D3
:100A600041F20C608443B08831890843718908439E
:100A70000443AC81AC8A24F44074B0890443AC8252
:100A80006846FFF7BAFDBF48854202D0C24885429A
:100A900002D1DDF80C9001E0DDF80890A88900F49F
:100AA000004040B109EBC90000EB09103168490072
:100AB000B0FBF1F707E009EBC90000EB0910316862
:100AC0008900B0FBF1F76420B7FBF0F004012009C6
:100AD000642101FB1078A88900F4004040B1322065
:100AE00000EBC800B0FBF1F000F00700044308E0A1
:100AF000322000EB08106421B0FBF1F000F00F0091
:100B000004432C81BDE8FF874FF41651016000219A
:100B10008180C18001810C21418100218181704748
:100B200010B502460020108A20F470600B884C88B3
:100B300023438C882343CC8823431843108210BD61
:100B40000021018041808180C180704721B182896C
:100B500042F40052828104E082894DF6FF731A400C
:100B600082817047028B02F47F420283028B0A4328
:100B70000283704721B1828942F40042828103E0FE
:100B80008289C2F30E028281704721B1828A42F4C7
:100B90000062828204E0828A4FF2FF731A408282EE
:100BA0007047C1F308028280704701468888C0F30D
:100BB00008007047028A4FF6F0731A400282028AD8
:100BC0000A430282704721B1828942F00202828187
:100BD00004E082894FF6FD731A4082817047828952
:100BE0004FF2FF731A40828182890A4382817047E3
:100BF000028A4FF6DF731A400282028A0A43028297
:100C0000704721B1028A42F48042028204E0028AE3
:100C10004BF6FF731A4002827047818941F001014F
:100C20008181704721B1828A42F00802828204E009
:100C3000828A4FF6F7731A4082827047028BD2B2D3
:100C40000283028B42EA01220283704721B1828A29
:100C500042F02002828204E0828A4FF6DF731A405B
:100C60008282704721B1828A42F01002828204E0BF
:100C7000828A4FF6EF731A4082827047828A4FF65B
:100C8000FB731A408282828A0A438282704721B1B2
:100C9000828A42F00202828204E0828A4FF6FD7369
:100CA0001A40828270471AB1838A0B43838202E022
:100CB000838A8B4383827047F0B503460024002665
:100CC0000025002040F66A17B94200D100BF18463F
:100CD000C1F3421401F01F06012707FA06F5012CA3
:100CE00001D10C3004E0022C01D1103000E01430AE
:100CF0001AB107682F43076002E00768AF43076037
:100D0000F0BD02460020B1F5007F00D100BF13887E
:100D10000B400BB1012000E00020704701F400728D
:100D2000B2F5007F00D100BFCA430280704770B5A2
:100D30000246002400230025002040F66A16B14236
:100D400000D100BFC1F3421501F01F03012606FACE
:100D500003F3012D02D19689334006E0022D02D122
:100D6000168A334001E0968A33400C12012606FAB7
:100D700004F41688344013B10CB1012000E00020C7
:100D800070BD0000001001400044004000480040D9
:100D9000004C0040005000400014014010B50022FB
:100DA000002340F66A14A14200D100BF0A120124B8
:100DB0009440A3B2DC43048010BD0000016821F020
:100DC000010101600021016041608160C160016139
:100DD00021214161DB49884204D13D21D94A103AA1
:100DE00091608CE0D7491831884205D14FF4746185
:100DF000D44A103A916082E0D2493031884205D11C
:100E00004FF47411CF4A103A916078E0CD494831DF
:100E1000884205D14FF07461CA4A103A91606EE081
:100E2000C8496031884204D1C749C64A103AD160E6
:100E300065E0C4497831884204D1C449C14A103AB6
:100E4000D1605CE0BF499031884204D1C049BD4ABD
:100E5000103AD16053E0BB49A831884205D14FF028
:100E60003D51B84A103AD16049E0BA49884204D1AC
:100E70003D21B84A083A116041E0B649183188422C
:100E800005D14FF47461B34A083A116037E0B149B3
:100E90003031884205D14FF47411AE4A083A1160DE
:100EA0002DE0AC494831884205D14FF07461A94A20
:100EB000083A116023E0A7496031884204D1A24971
:100EC000A44A121F11601AE0A2497831884204D165
:100ED0009E49A04A121F116011E09E49903188423C
:100EE00004D19B499B4A121F116008E09949A8311F
:100EF000884204D14FF03D51964A121F116070474D
:100F000010B500220268944B1A40CC680B6823434A
:100F10004C6923438C692343CC6923430C6A2343E4
:100F20004C6A23438C6A23434C6B23438C6B2343CF
:100F30001A430260426922F00702D1E90B342343CD
:100F40001A4342610B6943604B6883608B68C360DE
:100F500010BD0021016041608160C160016141619B
:100F60008161C161016241628162C1620163416369
:100F70008163704721B1026842F00102026003E020
:100F8000026822F001020260704721B1026842F457
:100F90000042026003E0026822F4004202607047EF
:100FA00021B1026842F02002026003E0026822F0F0
:100FB000200202607047416070470146486880B275
:100FC000704722B1036843F40023036003E0036821
:100FD00023F4002303600161704721B1026842F4E9
:100FE0008022026003E0026822F4802202607047DF
:100FF0000AB1016100E0C1607047014600200A6843
:1010000002F400220AB1012000E0002070470146EE
:1010100000200A6802F001020AB1012000E000206D
:101020007047014600204A6902F03800704730B529
:1010300003460A4600200024464DAB4202D24149F5
:10104000103901E04349103902F000550DB14C68E8
:1010500000E00C68414D2C4004EA02050DB101206E
:1010600000E0002030BD02463A4B9A4202D2354899
:10107000103801E03748103801F000531BB1374BEE
:101080000B40C36002E0354B0B408360704710B5E6
:1010900001F080034BB122B1436943F08003436107
:1010A00003E0436923F08003436180290BD02AB118
:1010B000036801F01E042343036004E0036801F0A9
:1010C0001E04A343036010BD70B502460020002437
:1010D0000025204EB24202D21A4B103B01E01D4BBC
:1010E000103B1F4E0E4036B11E2606EAD12416686C
:1010F00006EA040502E0566906F0800501F0005694
:101100000EB15C6800E01C68144E344004EA01062D
:1011100016B10DB1012000E0002070BD02460D4B5C
:101120009A4202D20748103801E00A48103801F00C
:1011300000531BB1094B0B40C36002E0074B0B404F
:1011400083607047106002403D000020400F002087
:1011500000003D20106402403F801CF07D0F7D0F99
:101160003C0F3C0F10B501210802FFF787FB00215F
:101170004FF48070FFF782FB10BD30B502460020AF
:1011800000235068F84C20400D790C6844EA05248F
:10119000204350609068F54C2040D1E903542C4323
:1011A0008D682C434D7944EA450420439060D06A11
:1011B00020F470000C7D641EE4B2234340EA035027
:1011C000D06230BD00210160017141718160C16058
:1011D00001610121017570470021E54A1168E54A66
:1011E0001140D0E900231A4383681A43C3681A43A5
:1011F0001143E14AC2F804137047002101604160C5
:101200008160C160704721B1826842F00102826052
:1012100003E0826822F00102826070470A460021E2
:101220004168D64B19401143416070474162826268
:1012300070470A460021416821F01F0111434160B7
:10124000704738B1CA49096841F40001CA4AC2F876
:10125000041306E0C649096821F40001C64AC2F831
:101260000413704738B1C249096841F48001C24A89
:10127000C2F8041306E0BE49096821F48001BE4AA1
:10128000C2F804137047F0B504460D460020002153
:10129000092D11DDE068A5F10A0606EB46070726D1
:1012A00006FA07F18843A5F10A0606EB460603FA9B
:1012B00006F10843E0600CE0206905EB45070726CE
:1012C00006FA07F1884305EB450603FA06F10843E1
:1012D0002061072A0FDA606B561E06EB86071F2671
:1012E00006FA07F18843561E06EB860605FA06F154
:1012F0000843606322E00D2A0FDA206BD61F06EB4D
:1013000086071F2606FA07F18843D61F06EB8606D6
:1013100005FA06F10843206310E0E06AA2F10D0629
:1013200006EB86071F2606FA07F18843A2F10D0691
:1013300006EB860605FA06F10843E062F0BD816817
:1013400041F0804181607047014600208A6802F4C4
:1013500080020AB1012000E00020704721B18268BC
:1013600042F48062826003E0826822F480628260DC
:10137000704721B1826842F00202826003E0826815
:1013800022F002028260704710B50A460021002355
:10139000416821F46041531E41EA4331416010BD70
:1013A00021B1426842F40062426003E0426822F4E4
:1013B0000062426070470146C86C80B270476C485A
:1013C000001D0068704721B1826842F4807282601B
:1013D00003E0826822F480728260704721B18268E3
:1013E00042F40072826003E0826822F4007282603C
:1013F000704738B15E49096841F400515E4AC2F84D
:10140000041306E05A49096821F400515A4AC2F807
:1014100004137047F0B5044615460020002200264C
:10142000092911DDE068A1F10A0707EB470C07273E
:1014300007FA0CF29043A1F10A0707EB470703FAFA
:1014400007F21043E0600CE0206901EB410C072734
:1014500007FA0CF2904301EB410703FA07F210433D
:101460002061A06BC0F30156EF1C06F1010CA7EB45
:101470000C0707EB870C1F2707FA0CF29043EF1CB1
:1014800006F1010CA7EB0C0707EB870701FA07F23F
:101490001043A063F0BD10B50A4600210023816B04
:1014A00021F44011531E41EA0351816310BD08B578
:1014B000002300930090009B0B440093009B1A6054
:1014C00008BD0A460021816821F470211143816022
:1014D00070470A460021816821F440111143816060
:1014E0007047816841F480018160704701460020A7
:1014F0008A6802F480020AB1012000E000207047EF
:1015000021B1426842F48062426003E0426822F402
:1015100080624260704721B1426842F4805242606A
:1015200003E0426822F480524260704708B50246E8
:1015300000200090009201F12800009B18440090C8
:101540000098006880B208BD10B50B460021D9B2E2
:10155000012404FA01F11AB144680C43446002E02A
:1015600044688C43446010BDFFFEFFFCFDF7FFC0E4
:1015700004230140E030FCFF00200140FFFD3FFF5D
:101580000246002013680B400BB1012000E0002050
:101590007047CA430260704770B5024600200023BE
:1015A00000240B12556801268E4005EA06041568D2
:1015B0001D4015B10CB1012000E0002070BD0022DB
:1015C0000A12D3430360704732490143324A116023
:1015D000704770B5002100230F22C4781CB32E4C35
:1015E000246804F4E064C4F5E064C4F30721C1F1A5
:1015F0000404E3B20A4144789C40E1B28478144088
:1016000021430C07210E254C05786155047804F020
:101610001F050124AC4005786D11AD0005F1E025F2
:10162000C5F8004109E0047804F01F050124AC402E
:101630001B4D0678761145F8264070BD194A0A40C0
:101640000243154B1B1F1A60704739B1124A121D15
:1016500012680243104B1B1D1A6006E00E4A121D51
:10166000126882430C4B1B1D1A607047042808D176
:101670004FF0E021096941F004014FF0E0221161CF
:1016800007E04FF0E021096921F004014FF0E0226A
:10169000116170470000FA050CED00E000E400E085
:1016A00080E100E080FFFF1F30B943F2DB028100E0
:1016B000A1F1C0410A6005E043F2D2028100A1F12C
:1016C000C0410A606FF07042411C8900A1F1C04125
:1016D0000A608100A1F1C041C1F804217047D0E93E
:1016E00001121143C2681143026911434269114357
:1016F00082691143C2691143026A1143426A11436C
:10170000826A1143C26A1143026B1143026892005C
:10171000A2F1C0421160816808290BD101688900DB
:10172000A1F1C041096841F0400201688900A1F1BE
:10173000C0410A60416B0968426B526841EA02117C
:10174000426B926841EA0221426B928941EA02416E
:10175000426B128A41EA0251426B127D41EA0261F8
:10176000426B926911430268521C9200A2F1C0427E
:101770001160C16AB1F5804F1BD1816B0968826B22
:10178000526841EA0211826B926841EA0221826B3F
:10179000128A41EA0251826B127D41EA0261826B38
:1017A0009269114302689200A2F1C042C2F804118A
:1017B00007E06FF0704201688900A1F1C041C1F8F3
:1017C00004217047002101600221416000218160F5
:1017D000C160016141618161C16101624FF4805169
:1017E0004162490081620021C16201630F21426BA5
:1017F0001160426B5160FF21426B91600F21426B7F
:10180000D160426B1161426B51610021426B916169
:101810000F21826B1160826B5160FF21826B91609E
:101820000F21826BD160826B1161826B516100214B
:10183000826B9161704751B18200A2F1C04212687F
:1018400042F001038200A2F1C042136009E082006D
:10185000A2F1C0421268F94B1A408300A3F1C043C1
:101860001A60704710280AD118214FF020421166E3
:10187000402151664FF0FC319166D16610E018218D
:10188000EF4A116040214FF02042C2F884104FF01F
:10189000FC31EB4A083211604FF02042C2F88C1044
:1018A000704730B5002100220023446844F008044A
:1018B00085682C43C5682C4305692C43456944EA77
:1018C0004524856944EA4531C4692468C5696D6861
:1018D00044EA0524C5692D8944EA0544C5692D7B80
:1018E00044EA0562046A2468056A6D6844EA0524CE
:1018F000056A2D8944EA0544056A2D7B44EA05639F
:101900000468102C05D14FF020442166A266E366DE
:1019100008E0CB4C21604FF02044C4F88820C84C2C
:101920000C34236030BD10210160002141608160D2
:10193000C160016141618161FC21C2691160C269BC
:101940005160C2699160C269D160026A1160026A25
:101950005160026A9160026AD160704799B11028A3
:1019600008D14FF02042126E42F004024FF02043A3
:101970001A661DE0B24A126842F004024FF020439A
:10198000C3F8802014E0102809D14FF02042126ED5
:10199000AA4BDB1E1A404FF020431A6608E0A84A03
:1019A0001268A64BDB1E1A404FF02043C3F880207C
:1019B000704799B1102808D14FF02042126E42F0C2
:1019C00040024FF020431A661DE09D4A126842F023
:1019D00040024FF02043C3F8802014E0102809D1C2
:1019E0004FF02042126E954B3F3B1A404FF0204380
:1019F0001A6608E0924A1268904B3F3B1A404FF03B
:101A00002043C3F88020704701460020102903D1ED
:101A10004FF02042506F02E0894A1432106870473C
:101A2000182087492031086000200906C1F8A40069
:101A30004FF0FC30824928310860091D0860091DFB
:101A400008607047016841F01001426841EA422194
:101A5000826841EA42317A4A20321160C1680968DD
:101A6000C268526841EA0221C268128941EA024111
:101A7000C268127B41EA0261714A28321160016931
:101A800009680269526841EA02210269128941EA41
:101A900002410269127B41EA0261694A2C321160FB
:101AA000416909684269526841EA02214269128922
:101AB00041EA02414269127B41EA02614FF0204251
:101AC000C2F8B01070470021016041608160FC21C4
:101AD000C2681160C2685160C2689160C268D1601A
:101AE0000269116002695160026991600269D16006
:101AF0004269116042695160426991604269D160F6
:101B0000704748B14E492031096841F004014FF057
:101B10002042C2F8A01009E0494920310968474A2B
:101B2000D21E11404FF02042C2F8A010704710B5ED
:101B3000F2B1102807D14FF020435B6E0B434FF0FA
:101B40002044636632E0B0F5807F08D13C4B1B1D1A
:101B50001B680B434FF02044C4F8843026E0384B18
:101B600024331B680B434FF02044C4F8A4301DE01D
:101B7000102807D14FF020435B6E8B434FF0204479
:101B8000636613E0B0F5807F08D12D4B1B1D1B68E9
:101B90008B434FF02044C4F8843007E0284B2433B3
:101BA0001B688B434FF02044C4F8A43010BD10B51F
:101BB000024600200023102A03D14FF02044636E18
:101BC00009E0B2F5807F03D11D4C241D236802E09B
:101BD0001B4C2434236803EA01040CB1012000E00B
:101BE000002010BD102807D14FF02042526E8A43CA
:101BF0004FF020435A6613E0B0F5807F08D1104AB9
:101C0000121D12688A434FF02043C3F8842007E076
:101C10000B4A243212688A434FF02043C3F8A420B1
:101C2000704770B502460020002300240025102ACA
:101C300008D14FF02046736E0DE00000FEFF0F004C
:101C4000800000A0B2F5807F02D1184E336802E018
:101C5000164E2036336803EA010403EAD10514B1B5
:101C60000DB1012000E0002070BD102808D14FF018
:101C70002042526E22EAD1024FF020435A6614E00D
:101C8000B0F5807F08D1094A126822EAD1024FF0EC
:101C90002043C3F8842008E0044A2032126822EA74
:101CA000D1024FF02043C3F8A4207047840000A065
:101CB00010B50121C802FEF7E1FD00214FF40060DC
:101CC000FEF7DCFD10BD0021714A116847F6FF6286
:101CD0009143027D83681A4343681A43C3681A43D9
:101CE00003681A4303691A431143694A1160704734
:101CF00000210175016041608160C1600161704730
:101D00006449086070476249091F096821F00301AE
:101D10005F4A121F11601146096801431160704744
:101D20005B48001F006800F0030070470021584B1B
:101D30001B1D02681A601A1D11686FF30A01D0E9B1
:101D400001231A43C3681A4303691A431143504AD3
:101D50000832116070470021016041608160C160FC
:101D6000016170474A480C300068C0B2704708B53E
:101D7000014600200090464810300844009000982A
:101D8000006808BD0021424B203302681A601B1D09
:101D900042681A601A1D116821F0F701D0E9022388
:101DA0001A4303691A4343691A431143384A2832D4
:101DB000116070474FF0FF31016000214160816088
:101DC000C16001614161704731482C300068704743
:101DD0002F487C30006870472D497C31086070477F
:101DE0002B484430006870472B49086070472A49E7
:101DF000091D086070472849083108607047264966
:101E00000C31086070472549086070472349091D57
:101E10000860704701218143204A083211607047F1
:101E20001E490C31086070471B491439086070471F
:101E300039B1174A383212680243154B38331A60E9
:101E400006E0134A383212688243114B38331A6065
:101E50007047014600200E4A303212680A400AB12B
:101E6000012000E0002070470949343108607047C4
:101E700001460020064A303212680A400AB10120A9
:101E800000E00020704702493431086070470000CC
:101E9000042C0140A0802542A0852542AC8125422A
:101EA00010B50446FE48844208D101210846FEF7D9
:101EB000E5FC00210120FEF7E1FC9DE0B4F1804F3C
:101EC00008D101210846FEF7C8FC00210120FEF7D9
:101ED000C4FC91E0F348844208D101210220FEF7BE
:101EE000BCFC00210220FEF7B8FC85E0EE488442ED
:101EF00008D101210420FEF7B0FC00210420FEF7E8
:101F0000ACFC79E0E948844208D101210820FEF7C1
:101F1000A4FC00210820FEF7A0FC6DE0E448844208
:101F200008D101211020FEF798FC00211020FEF7B7
:101F300094FC61E0DF48844208D101212020FEF7B3
:101F40008CFC00212020FEF788FC55E0DA48844212
:101F500008D101210220FEF791FC00210220FEF7AA
:101F60008DFC49E0D548844209D101210804FEF7DF
:101F700085FC00214FF48030FEF780FC3CE0D04827
:101F8000844209D101214804FEF778FC00214FF476
:101F90000030FEF773FC2FE0CA48844209D10121CA
:101FA0008804FEF76BFC00214FF48020FEF766FCEE
:101FB00022E0C548844208D101214020FEF74DFCB3
:101FC00000214020FEF749FC16E0C048844208D1B9
:101FD00001218020FEF741FC00218020FEF73DFC1E
:101FE0000AE0BB48844207D101218015FEF735FC89
:101FF0000021A015FEF731FC10BD00220288A84B7D
:1020000098420ED0AC4B98420BD0B0F1804F08D024
:10201000A44B984205D0A44B984202D0A34B9842BF
:1020200004D14FF68F731A404B881A43A04B984245
:1020300007D0A04B984204D04FF6FF431A400B89BB
:102040001A4302804B68C3620B880385944B984205
:1020500002D0994B984201D18B7A03860123838267
:1020600070474FF0FF3141600021018001814180C4
:10207000817270470185828270470A46002101887B
:102080004FF68F73194011430180704741627047CA
:10209000C16270470146486A70470146088D704723
:1020A00021B1028842F00202028004E002884FF669
:1020B000FD731A400280704721B1028842F0040289
:1020C000028004E002884FF6FB731A4002807047DA
:1020D00021B1028842F08002028004E002884FF6BB
:1020E0007F731A400280704702884FF6F7731A40D8
:1020F000028002880A430280704702884FF6FF433D
:102100001A40028002880A430280704721B1028887
:1021100042F00102028004E002884FF6FE731A408A
:102120000280704770B5002400220023058C4FF612
:10213000FE7635400584028C8388048B4FF68F75BC
:102140002C40B51E2C400D882C43751E2A408D89CD
:102150002A434D882A43524DA84202D0564DA842E8
:1021600013D14FF6F7752A40CD892A434FF6FB75F8
:102170002A408D882A434FF6FF652B404FF6FF55C6
:102180002B400D8A2B434D8A2B43838004838D681B
:102190004563028470BD70B5002400220023058CC5
:1021A0004FF6EF7635400584028C8388048B48F621
:1021B000FF752C404FF6FF452C400D884FF6FF76FB
:1021C00006EA05252C434FF6DF752A408D8906EA7D
:1021D00005152A434D8806EA05152A43304DA842C5
:1021E00002D0354DA8421DD14FF67F752A40CD89CA
:1021F0004FF6FF7606EA05152A434FF6BF752A40CB
:102200008D8806EA05152A434FF6FF352B404FF21D
:10221000FF752B400D8A06EA85052B434D8A06EA99
:1022200085052B43838004838D688563028470BD9C
:1022300070B5002400220023058C4FF6FF66354060
:102240000584028C8388848B4FF68F752C404FF663
:10225000FC752C400D882C434FF6FF552A408D8984
:102260004FF6FF7606EA05252A434D8806EA05253E
:102270002A430B4DA84202D00F4DA84238D14FF24D
:10228000FF752A40CD894FF6FF7606EA05252A43D9
:102290004FF6FF352A408D8806EA05252A4319E0C6
:1022A000000001400004004000080040000C004015
:1022B00000100040001400400004014000400140B4
:1022C000004401400048014000180040001C00404C
:1022D000002000404EF6FF752B404DF6FF752B4059
:1022E0000D8A06EA05152B434D8A06EA05152B4390
:1022F000838084838D68C563028470BD70B50022BD
:1023000000230024058C4EF6FF7635400584038CAF
:102310008488828B48F6FF752A404FF6FF452A4095
:102320000D884FF6FF7606EA05252A434DF6FF7520
:102330002B408D8906EA05352B434D8806EA053585
:102340002B43FE4DA84202D0FD4DA84208D14BF6CA
:10235000FF752C400D8A4FF6FF7606EA85152C4353
:10236000848082838D680564038470BD00210180B0
:102370004180818081608181C18101824182704779
:1023800070B50346002000241846183001258D4002
:10239000ACB21D8CA5431D8409B108290AD100EBFC
:1023A000610005684FF68F76354005600568154376
:1023B00005600FE00D1FC5F34E052844056848F67B
:1023C000FF763540056005684FF6FF7606EA02267F
:1023D0003543056070BD4163704781637047C163D9
:1023E0007047016470470A460021018B4FF68F73D6
:1023F00019401143018370470A460021018B48F6BA
:10240000FF7319404FF6FF7303EA02231943018358
:1024100070470A460021818B4FF68F731940114394
:10242000818370470A460021818B48F6FF7319406B
:102430004FF6FF7303EA02231943818370470A466C
:102440000021018B4FF6F773194011430183704748
:102450000A460021018B4FF2FF7319404FF6FF73BC
:1024600003EA02231943018370470A460021818B46
:102470004FF6F77319401143818370470A460021D4
:10248000818B4FF2FF7319404FF6FF7303EA02236B
:102490001943818370470A460021018B4FF6FB7375
:1024A00019401143018370470A460021018B4FF602
:1024B000FF3319404FF6FF7303EA022319430183E8
:1024C00070470A460021818B4FF6FB731940114378
:1024D000818370470A460021818B4FF6FF331940F4
:1024E0004FF6FF7303EA02231943818370470A46BC
:1024F0000021018B4FF67F73194011430183704710
:102500000A460021018BC1F30E014FF6FF7303EA67
:1025100002231943018370470A460021818B4FF63D
:102520007F7319401143818370470A460021818BD4
:10253000C1F30E014FF6FF7303EA022319438183AF
:1025400070470A460021018C4FF6FD731940114374
:10255000018470470A460021018C4FF6F773194039
:102560001143018470470A460021018C4FF6DF7346
:1025700019404FF6FF7303EA0213194301847047B1
:102580000A460021018C4FF67F7319404FF6FF7306
:1025900003EA02131943018470470A460021018CA3
:1025A0004FF6FF5319404FF6FF7303EA0223194316
:1025B000018470470A460021018C4FF2FF731940D5
:1025C0004FF6FF7303EA02231943018470470A465A
:1025D0000021018C4DF6FF7319404FF6FF7303EA9B
:1025E000023319430184704730B5002301248C4025
:1025F000A3B2048C9C430484048C02FA01F5ADB2AE
:102600002C43048430BD30B5002304248C40A3B295
:10261000048C9C430484048C02FA01F5ADB22C4373
:10262000048430BD828B4FF2FF331A408283828B49
:102630004FF6FF7303EA01231A4382837047F0B514
:102640000C461546002100220026078C4EF6FF7C22
:1026500007EA0C070784818B028C4FF6FF7707EAA5
:10266000043640F6FF4739404FF6FF7707EA052763
:1026700039434FF6FF7707EA0337394345F6FF77CB
:102680003A4046F480573A4381830284F0BD828BFE
:102690004FF6F3731A408283828B0A43828370471A
:1026A000F0B50C461546002100220026078C4FF697
:1026B000FF6C07EA0C070784818B028C4FF6FF77CB
:1026C00007EA04264FF60C7739404FF6FF7707EA02
:1026D00003172F4339434FF2FF573A4046F48077B0
:1026E0003A4381830284F0BD028B4FF2FF331A40DC
:1026F0000283028B4FF6FF7303EA01231A4302831E
:102700007047F0B50C461546002100220026078CC4
:102710004FF6EF7C07EA0C070784018B028C4FF61B
:10272000FF7707EA041640F6FF4739404FF6FF7778
:1027300007EA033739434FF6FF7703E00000014013
:102740000004014007EA052739434FF65F773A4016
:1027500046F010073A4301830284F0BD028B4FF626
:10276000F3731A400283028B0A4302837047F0B569
:102770000C46154600210022068C4FF6FE773E409F
:102780000684018B028C4FF60C7631407E1C06EAE3
:1027900003162E4331434FF6F576324044F00106DE
:1027A000324301830284F0BD70B505460C46208893
:1027B00050B92389A28861882846FFF7D8FFE188AD
:1027C0002846FFF7CBFF25E0208804280AD123897B
:1027D000A28861882846FFF794FFE1882846FFF722
:1027E00083FF17E0208808280AD12389A2886188FE
:1027F0002846FFF755FFE1882846FFF748FF09E024
:102800002389A28861882846FFF719FFE1882846B6
:10281000FFF708FF70BD0021018041800121818008
:102820000021C180018170472DE9F04105460C4629
:1028300000260127608808B9022600E00026A0884B
:10284000012801D1022700E001272088A0B92389AF
:10285000A28861882846FFF78AFFE1882846FFF7AB
:102860007DFF23893A4631462846FFF74AFFE18833
:102870002846FFF739FF13E02389A288618828469C
:10288000FFF73FFFE1882846FFF72EFF23893A46EE
:1028900031462846FFF76BFFE1882846FFF75EFFC9
:1028A000BDE8F0810146486B70470146886B704770
:1028B0000146C86B70470146086C70470A884B8810
:1028C0001A438B881A43CB881A430B891A434B89C6
:1028D0001A438B891A43A0F84420704700210180D5
:1028E00041808180C180018141818181704731B106
:1028F000B0F8442042F40042A0F8442005E0B0F8CB
:102900004420C2F30E02A0F84420704721B182880F
:1029100042F00402828004E082884FF6FB731A4082
:102920008280704721B1828842F00102828004E0F7
:1029300082884FF6FE731A40828070471AB18389ED
:102940000B43838102E083898B43838170478182BB
:10295000704702460020138A0B400BB1012000E0B3
:1029600000207047CA430282704730B502460020FB
:1029700000230024158A05EA0103958905EA01046C
:1029800013B10CB1012000E0002030BDCA43028227
:10299000704741EA0203A0F8483070471AB18389B2
:1029A0000B43838102E083898B438381704721B18C
:1029B000828842F00802828004E082884FF6F77332
:1029C0001A408280704701894FF6F87211400181E8
:1029D00070470A46002101894FF68F731940114351
:1029E0000181704730B504460D4629462046FFF761
:1029F000F0FF208940F00700208130BD2DE9F04133
:102A000004460D4616461F46602D06D13B46012260
:102A100031462046FFF775FE05E03B460122314670
:102A20002046FFF7A4FE29462046FFF7D2FF208963
:102A300040F007002081BDE8F08130B50C46002150
:102A40000189C9B24FF6FF7505EA032515432543F1
:102A50002943018130BD2DE9F04105460E46174658
:102A60009846002443463A4631462846FFF7E5FF9C
:102A70002C894FF6F870044044F007044FF68F702D
:102A8000044044F070042C81BDE8F081F0B50446A8
:102A90000D4616461F463B46324629462046FFF75E
:102AA000CCFF208940F480402081F0BD82884FF621
:102AB0008F731A40828082880A438280704702891D
:102AC0004FF6F8731A40028102890A430281704767
:102AD00002894FF67F731A40028102890A430281FC
:102AE0007047F0B50C4615461E4600210022002313
:102AF0000189028B038C4FF6F877394021434FF65A
:102B0000FC473A4040F201173A434FF6DD773B402D
:102B10004FF6FF7707EA06172F433B4301810283F5
:102B20000384F0BD21B1828842F08002828004E0FB
:102B300082884FF67F731A4082807047A0F8501049
:102B4000704700000CB50020019000906B480068B1
:102B500040F480306949086000BF6848006800F4AC
:102B6000003000900198401C0190009818B901981D
:102B7000B0F5A06FF1D16148006800F4003010B1E9
:102B80000120009001E0002000900098012838D139
:102B90005A480830006859490831086008460068FA
:102BA00040F4004008600846006840F4A050086007
:102BB0005348091F0860081F006840F08070091F13
:102BC000086000BF4D48006800F000700028F9D090
:102BD00040F203704B49086048480830006820F014
:102BE00003004649083108600846006840F00200CA
:102BF000086000BF41480830006800F00C00082859
:102C0000F8D10CBD10B53D48006840F001003B49CB
:102C100008600020394908310860384800683A499E
:102C20000840364908603948091D0860081F0068D7
:102C300020F48020091F0860002030490C31086012
:102C4000FFF780FF4FF000603149086010BD70B59C
:102C500000200022022300240221284D08352D687F
:102C600005F00C0020B1042806D0082834D107E074
:102C7000284D294E356033E0284D274E35602FE032
:102C80001E4D2D1D2D68C5F380541C4D2D1D2D6826
:102C900005F03F0154B1214DB5FBF1F5174E361D3E
:102CA0003668C6F3881605FB06F209E0194DB5FB38
:102CB000F1F5124E361D3668C6F3881605FB06F28E
:102CC0000E4D2D1D2D68C5F301456D1C6B00B2FB2B
:102CD000F3F5114E356003E00E4D0F4E356000BF29
:102CE00000BF064D08352D68C5F303150C4E705D09
:102CF000094D2D68C540084E356070BD0038024052
:102D0000193C4005003C0240FFFFF6FE1030002455
:102D100008ED00E00024F4001000002040787D0160
:102D20001400002000F01CFB0FF04DFCC82000F048
:102D30006CFA022006F046FC08F0A8FA6348007816
:102D4000002873D108F03BFE6148007809280CD1B7
:102D5000512007F082FF7F231A461946532007F0BF
:102D6000B7FF0BF048F90BF059F95AA00AF037FFFA
:102D7000012804D1594800785949087017E02120EA
:102D800007F0DFFC022007F0DCFC564A518810886F
:102D900055A20AF085FC012809D150480078504915
:102DA0000870504A5188108852A20AF079FC00201D
:102DB0005349087053480078B8B953480078A0B90F
:102DC0005248007888B95248007870B95148007864
:102DD00058B95148007840B95048007828B950484F
:102DE000007810B907F081FE4BE0464800780128D2
:102DF00047D049480078012843D0012007F02DFF33
:102E000000231A461946722007F062FF3E480078F8
:102E1000012803D143A007F0CEFD32E03B48007803
:102E2000012804D143A007F0C6FD2AE022E038487B
:102E30000078012803D141A007F0BDFD21E035480D
:102E40000078012806D100231A461946562007F0BB
:102E50003FFF16E031480078012803D139A007F080
:102E6000AAFD0EE02E48007801280AD138A007F00C
:102E7000A2FD06E001200AF0CAFC184800781849B3
:102E80000870022006F0A9FB35A015F0E3FA3948D6
:102E9000006814F02CFD0746374914F062FB044625
:102EA00014F094FD05462A460B4634A015F0D2FADC
:102EB0003EA015F0CFFA07E00BF023FB0BF0E2F891
:102EC00000F003FE00F07EF8F6E700005900002055
:102ED000240000204450542E626D7000AB0000208E
:102EE000AC00002070010020445054312E626D70FF
:102EF00000000000445054322E626D70000000004B
:102F0000D9000020DD000020DE000020DF000020CE
:102F1000E0000020E1000020E2000020E3000020AB
:102F2000E4000020534443415244204552524F5242
:102F3000000000005445204E4700000050574D202F
:102F40004E47000046504741204552524F52000024
:102F50004F5343205452494D204F46460000000035
:102F60000D0A4D61696E206C6F6F702E2E2E0D0A4A
:102F7000000000006000002000007A440D0A3D3D82
:102F80003D3D3D2053797374656D206F6E207469EB
:102F90006D6520656C61707365643A20252E33661B
:102FA000287365636F6E64290D0A00000D0A2A23D9
:102FB0002A2353595354454D204F4B232A232A0D7E
:102FC0000A00000010B54648007801282CD10020E6
:102FD0004349087001204349087043480078401C69
:102FE00041490870084600780A281DDB0020087057
:102FF00001203E4908703E480078401C3C4908705A
:10300000084600780A280FDB0020087001203949A3
:10301000087039480078401C374908700846007825
:10302000032801DB002008702E48007828B3002018
:103030002C4908702C4800780A281CD2DFE800F0E0
:10304000050A0D1215161718191A06F008FB2B4958
:10305000087011E006F087FB0EE006F087FC2849B7
:10306000087009E006F08EFD06E005E004E003E0EC
:1030700002E001E000E000BF00BF1C480078D8B1CA
:1030800000201A4908701A4800780A2812D2DFE88E
:1030900000F00508090A0B0C0D0E0F1006F02CFCB1
:1030A00009E008E007E006E005E004E003E002E0F4
:1030B00001E000E000BF00BF0E48007878B10020BA
:1030C0000C4908700C48007820B1012803D0022870
:1030D00003D101E002E001E000E000BF00BF10BD4D
:1030E0005C0000202800002025000020290000208E
:1030F000260000202A00002027000020A800002031
:10310000A9000020704700BFFEE700BFFEE700BF38
:10311000FEE700BFFEE770477047704710B500F04C
:103120008EF810BD10B500F08AFC10BD10B500F08F
:1031300092FC10BD10B502F051FC10BD10B502F0AC
:103140005BFC10BD10B502F06BFC10BD10B50AF0B1
:1031500028FA10BD10B50AF049FA10BD70B502E0AA
:103160003BA015F077F942480068424AB0FBF2F103
:10317000B1F1807F01D301201DE021F07F40401E8E
:103180004FF0E022506150170F22002807DA130792
:103190001D0E394B00F00F04241F1D5503E01307CB
:1031A0001C0E364B1C5400BF00204FF0E0229061F3
:1031B0000720106100200028D2D12D48016830A0DE
:1031C00015F048F94FF0E020006920F001004FF0C1
:1031D000E021086170BD01B53049009808604FF0EA
:1031E000E020006940F001004FF0E021086100BFDD
:1031F0002A4800680028FBD14FF0E020006920F049
:1032000001004FF0E021086108BD10B502461446E8
:1032100005E04FF47A70FFF7DEFF601E84B2002CE9
:10322000F7D110BD30B50446254605E04FF47A705D
:10323000FFF7EBFF681E85B2002DF7D130BD1748B0
:10324000006820B115480068401E144908607047A6
:103250000D0A2052656C6F61642076616C75652083
:10326000696D706F737369626C6521200D0A0000CF
:103270001000002040420F0018ED00E000E400E0E4
:103280000D0A53797374656D436F7265436C6F6398
:103290006B203D202564487A0D0A00002C00002098
:1032A00008B54FF4C060FEF78FF91C208DF80000C0
:1032B00000208DF8010002208DF8020001208DF819
:1032C00003006846FEF785F94FF4C060FEF77CF90D
:1032D0001D208DF8000000208DF8010001208DF8E0
:1032E00002008DF803006846FEF773F94FF4C060E2
:1032F000FEF76AF91E208DF8000000208DF801000D
:1033000001208DF802008DF803006846FEF761F990
:103310004FF4E060FEF758F925208DF800000020FA
:103320008DF8010002208DF8020001208DF80300C5
:103330006846FEF74EF94FF4E060FEF745F9342099
:103340008DF8000000208DF8010001208DF80200AA
:103350008DF803006846FEF73CF90AF05AF908BDFB
:103360002DE9F04180205849087058480078042819
:1033700005D1574857490860574858490860012106
:103380000846FDF7CFF901210220FDF7CBF9012115
:103390000420FDF7C7F901210820FDF7C3F9012139
:1033A0001020FDF7BFF901212020FDF7BBF9012115
:1033B0004020FDF7B7F900F0E7F900F039FA48A02E
:1033C00015F048F802F0B9FA4E48006814F08FFA88
:1033D00007464D4914F0C5F8044614F0F7FA0546BF
:1033E0002A460B4649A015F035F8FFF7B7FE4FA067
:1033F00015F030F8FFF754FF56A015F02BF802F047
:1034000073FA5DA015F026F804F032FE63A015F003
:1034100021F80AF0AFFC4FF480616948FCF79EFF89
:10342000012806D167A015F015F801206C49087035
:1034300005E06CA015F00EF800206949087071A035
:1034400015F008F806F0A0F8002006F0C6F80120F4
:1034500006F0C3F8022006F0C0F873A014F0FAFFDB
:1034600006F0DAF878A014F0F5FF05F05FFB05F040
:103470005AFC7DA014F0EEFF05F090FB85A014F03F
:10348000E9FF05F09FFE8FA014F0E4FF05F077FD43
:1034900097A014F0DFFF02F0F5FAA0A014F0DAFF15
:1034A00007F05CF807F0F9F8A54814F0D3FF06F030
:1034B00015FCA44814F0CEFF07F098FFA2A014F06A
:1034C000C9FFBDE8F0810000580100202400002061
:1034D000004C00403000002000100140340000206B
:1034E0000D0A555341525420636F6E6669677572B9
:1034F0006174696F6E2069732072656164792E0D45
:103500000A0000006000002000007A440D0A54699F
:103510006D6572207469636B2073746172742E0D13
:103520000A5B252E3366735D0D0A00000D0A537980
:103530007374656D205469636B20636F6E66696791
:1035400075726174696F6E20697320726561647948
:103550002E0D0A000D0A4E56494320636F6E6669B0
:103560006775726174696F6E20697320726561643A
:10357000792E0D0A000000000D0A54494D455232C3
:1035800020636F6E66696775726174696F6E20691A
:10359000732072656164792E0D0A00000D0A4144A2
:1035A000433320636F6E66696775726174696F6E0D
:1035B0002069732072656164792E0D0A0000000095
:1035C000000402400D0A2A232A234155544F4C4936
:1035D0004E455F454E41424C45232A232A0D0A00A1
:1035E000590000200D0A2A232A234155544F4C49E3
:1035F0004E455F44495341424C45232A232A0D0A34
:10360000000000000D0A5445535420636F6E666934
:103610006775726174696F6E206973207265616489
:10362000792E0D0A000000000D0A4C454420636FFE
:103630006E66696775726174696F6E206973207256
:10364000656164792E0D0A000D0A4B455920636FA0
:103650006E66696775726174696F6E206973207236
:10366000656164792E0D0A000D0A506F776572202E
:10367000656E61626C6520636F6E66696775726105
:1036800074696F6E2069732072656164792E0D0A0A
:10369000000000000D0A49324320666F722054502A
:1036A00053363533313220636F6E666967757261E8
:1036B00074696F6E2069732072656164792E0D0ADA
:1036C000000000000D0A49324320666F7220454514
:1036D00050524F4D20636F6E6669677572617469F1
:1036E0006F6E2069732072656164792E0D0A000087
:1036F0000D0A49324320666F72204144373939340C
:1037000020636F6E66696775726174696F6E206998
:10371000732072656164792E0D0A00000D0A416400
:103720006D65737920636F6E666967757261746920
:103730006F6E2069732072656164792E0D0A000036
:103740006CAF010828AF01080D0A496E74657266F6
:10375000616365206265747765656E2053544D33EF
:10376000324632787820616E64204C434420636F87
:103770006E66696775726174696F6E206973207215
:10378000656164792E0D0A0000B587B00121102013
:10379000FDF70CF807220921FE48FCF708FE072276
:1037A0000A21FC48FCF703FE4FF40070059002204C
:1037B0008DF8180000208DF81A0001208DF81B00EC
:1037C00002208DF8190005A9F248FCF765FD4FF4B9
:1037D0008060059002208DF8180001208DF81B00F4
:1037E00005A9EC48FCF758FD4FF4E13001900020AA
:1037F000ADF80800ADF80A00ADF80C00ADF8100007
:103800000C20ADF80E0001A9E348FDF717F940F2CE
:103810002551E148FDF7C2FA012240F22551DE4868
:10382000FDF74AFA0121DC48FDF790F907B000BD29
:1038300000B587B00121C804FCF7A7FF08220021CA
:10384000D448FCF7B4FD08220121D248FCF7AFFDB3
:103850000120059002208DF8180000208DF81A0034
:1038600001208DF81B0002208DF8190005A9C94818
:10387000FCF712FD022005908DF8180001208DF84C
:103880001B0005A9C348FCF707FD4FF4E130019088
:103890000020ADF80800ADF80A00ADF80C00ADF856
:1038A00010000C20ADF80E0001A9BC48FDF7C6F8C9
:1038B00040F22551B948FDF771FA012240F2255135
:1038C000B648FDF7F9F90121B448FDF73FF907B013
:1038D00000BD70B504460D46E1B2B1480068FDF781
:1038E00060F900BF8021AE480068FDF70AFA0028A1
:1038F000F8D0204670BD10B540F22551A8480068A8
:10390000FDF7FFF9012869D1A5480068FDF74DF9D9
:10391000C4B2A448007800285AD1A34800780128EE
:1039200015D1A248A249098820F81140A049098868
:1039300030F811004FF6FF7101EA00209B499C4AC4
:10394000128821F812000020974908700EE098496B
:103950000A880988491C964B1980944901EB42005A
:1039600001882143018001208F4908709048008818
:10397000401E8E4931F8100041F2482188420ED194
:103980008B480088801E894931F81000B0F5706FAF
:1039900005D10120834908700020854908808448AA
:1039A0000088401E814931F81000122810D1482C9F
:1039B0000ED101207B49087000207D49088001203C
:1039C00079490870002005F0FDFD012005F0FAFDA1
:1039D00040F2255172480068FDF7E0F910BD10B5BE
:1039E00040F2255173480068FDF78BF9012825D175
:1039F00070480068FDF7D9F8C1B26F4802880088A6
:103A0000401C6D4B18806D48815418460088401E3C
:103A10006A49085C0A280BD118460088801E085C99
:103A20000D2805D10020194608800120644908703E
:103A300040F225515F480068FDF7B0F910BD10B5A0
:103A4000574800685449884202D1FFF754FF01E00B
:103A5000FFF7C5FF10BD10B5564800684E498842B3
:103A600002D1FFF748FF01E0FFF7B9FF10BD2DE9D4
:103A7000F04106464FF00008354621E02C8835F825
:103A8000021B0F12012F06D0022F09D0032F0CD0DA
:103A90000F2F11D10DE021464AA014F0DBFC0EE0FF
:103AA000214648A014F0D6FC09E02046FFF7ADFB04
:103AB00005E04FF0010802E04FF0010800BF00BF31
:103AC000B8F1000FDAD0BDE8F08100B59BB03F48F7
:103AD0000078012819D13E4803783E4802783E48D4
:103AE0000178002007F0F4F83C480088FFF78DFBD0
:103AF0003B4803783B4802783B480178002007F0B8
:103B0000E7F836480088FFF780FB26480078012850
:103B100041F0C584254801884AF64222881A91421C
:103B200001F0CB8069DC4AF61122A1EB0200914240
:103B300076D017DC6FF42A400844102881F0AA845C
:103B4000DFE810F0A600AE000603F20319045404E7
:103B500083046907D805A80CA80CA80CA80CA80C0D
:103B6000A80CF902082800F03E870ADC0728E5D2F5
:103B7000DFE810F0900CE806ED0621072807900C0E
:103B80002F07102800F06F87112800F087872F2853
:103B90002CE032E00000024000100140004C0040E8
:103BA000300000205800002057000020040B0020A7
:103BB000380000203400002068000020040F00209E
:103BC0006A000020307825782000000044000020A2
:103BD0004700002046000020450000204C00002047
:103BE0004A000020490000204800002000F06C87B7
:103BF000302841F04F8401F037B8542801F0578144
:103C000023DC4F2801F0EB8012DC412801F0958085
:103C100007DC3F2801F05D804028EAD101F070B850
:103C2000FEE3422801F0AF804E28E2D101F0C1B896
:103C3000502801F0EA80512801F0FE80522801F05E
:103C400011815328D5D101F01BB9622801F0978367
:103C500011DC5F2801F0A38206DC552801F02D81DC
:103C60005E28C6D101F057B9602801F0148361289D
:103C7000BFD101F013BB632801F0A983792800F0BC
:103C8000C5869E2801F020819F28B2D101F0C0BBDB
:103C9000FE4806F071F9FEA014F0DCFB01F0FBBB5E
:103CA000FA48801E40886B2878D1F848801EC0886A
:103CB000082874D2DFE800F0041E3B55748DA9C2B9
:103CC000F7480088099000EBD07040108F3880B220
:103CD0001A901A98C0B209901A9800120890EB48EE
:103CE000801E0079079001466B20DDE9082306F06D
:103CF000EFFFC0E0EA480088099000EBD070401068
:103D00008F3880B21A901A98C0B2099080211A9800
:103D100001EB2020C0B20890DC48801E007907909B
:103D200001466B20DDE9082306F0D2FFA3E0DC4862
:103D30000088099000EBD07040108F3080B21A904C
:103D40001A98C0B209901A9800120890CF48801EA5
:103D50000079079001466B20DDE9082306F0B8FFE3
:103D600089E0CF480088099000EBD07040108F3078
:103D700080B21A901A98C0B2099080211A9801EB6B
:103D80002020C0B20890C148801E007907900146EB
:103D90006B20DDE9082306F09BFF6CE06CE069E036
:103DA000BF480088062190FBF1F08F3080B21A9056
:103DB0001A98C0B209901A9800120890B348801E51
:103DC0000079079001466B20DDE9082306F080FFAB
:103DD00051E0B3480088062190FBF1F08F3080B2AB
:103DE0001A901A98C0B2099080211A9801EB2020ED
:103DF000C0B20890A548801E0079079001466B204C
:103E0000DDE9082306F064FF35E0A54800880621B7
:103E100090FBF1F08F3880B21A901A98C0B20990D6
:103E20001A98001208909948801E00790790014660
:103E30006B20DDE9082306F04BFF1CE09848008862
:103E4000062190FBF1F08F3880B21A901A98C0B218
:103E5000099080211A9801EB2020C0B208908B486D
:103E6000801E0079079001466B20DDE9082306F0EB
:103E70002FFF00E000BF27E18448801E40886C28A7
:103E800078D18248801EC088082874D2DFE800F00C
:103E9000041E3B55748DA9C282480088099000EB2E
:103EA000D07040108F3880B21A901A98C0B2099022
:103EB0001A98001208907548801E007907900146F4
:103EC0006C20DDE9082306F003FFC0E07548008898
:103ED000099000EBD07040108F3880B21A901A9879
:103EE000C0B2099080211A9801EB2020C0B208903E
:103EF0006648801E0079079001466C20DDE90823A2
:103F000006F0E6FEA3E067480088099000EBD07059
:103F100040108F3080B21A901A98C0B209901A9847
:103F2000001208905948801E0079079001466C20C5
:103F3000DDE9082306F0CCFE89E05A4800880990A4
:103F400000EBD07040108F3080B21A901A98C0B237
:103F5000099080211A9801EB2020C0B208904B48AC
:103F6000801E0079079001466C20DDE9082306F0E9
:103F7000AFFE6CE06CE069E04A480088062190FBE7
:103F8000F1F08F3080B21A901A98C0B209901A9846
:103F9000001208903D48801E0079079001466C2071
:103FA000DDE9082306F094FE51E03E480088062132
:103FB00090FBF1F08F3080B21A901A98C0B209903D
:103FC00080211A9801EB2020C0B208902F48801E53
:103FD0000079079001466C20DDE9082306F078FEA1
:103FE00035E030480088062190FBF1F08F3880B230
:103FF0001A901A98C0B209901A9800120890234893
:10400000801E0079079001466C20DDE9082306F048
:104010005FFE1CE023480088062190FBF1F08F38FA
:1040200080B21A901A98C0B2099080211A9801EBB8
:104030002020C0B208901548801E007907900146E4
:104040006C20DDE9082306F043FE00E000BF3BE002
:1040500015480078012837D10C48801E408880BB65
:104060000A48801E80887F2809D10848801EC088A1
:104070007F2804D10548801E00897F281ED0034870
:10408000801E808840281DD100480FE0060B0020CC
:104090002A232A2341434B232A232A0D0A00000006
:1040A000B8000020B600002059000020801EC08803
:1040B000402807D1FB480089402803D10EF0BCFC02
:1040C00002E0FFE70EF0ABFCF648007A0990F548F5
:1040D00080790890F34800790790F248807806903C
:1040E00007A90EC906F0F4FD1420FFF78EF8AFF211
:1040F000600014F0AFF9EC48007801281AD1E948C3
:104100004088B8B9E7488088FF2807D1E548C088CB
:10411000FF2803D1E3480089FF2809D0E1488088BF
:10412000FF2807D1DF48C08820B9DE48008908B9D8
:104130000AF00BF8B2E5DB488078099007F044F804
:104140001420FFF762F8AFF2B80014F083F9A5E588
:104150001420FFF75AF8D5A0D7A3DAA2DEA1009069
:10416000DFA014F077F90021E248CDE90210E2481F
:10417000E249E34AE34BCDE90001E3A014F06AF918
:10418000E549E648CDE90210E549E648CA10E64BA4
:10419000CDE90010E5A014F05DF9E849E848CDE963
:1041A0000210E849E848E94AE94BCDE90010DFA0F0
:1041B00014F050F9E749E848CDE90410E749E84828
:1041C000CDE90210E749E8488A08E84BCDE900103C
:1041D000E7A014F03FF90020EB49CDE902010146C8
:1041E000EA4800220346CDE90010C7A014F032F9D6
:1041F00041F6D27041F6C87341F6BE7200210090BC
:10420000E3A014F027F90020E549E6A3E7A2CDE9F1
:104210000001E8A1E9A014F01DF901220021EBA0A2
:1042200014F018F90021EB48CDE904100846E949DB
:10423000CDE902010021E7480A460B46CDE900100E
:10424000CBA014F007F9AC49E3480022E34BCDE9D9
:104250000010E3A014F0FEF80021DE48CDE90210C2
:10426000E248E349E34AE44BCDE90001AFA014F092
:10427000F1F80020D749CDE90201E048E049E14AE0
:10428000E14BCDE90001A9A014F0E4F80021D148E8
:10429000CDE90210DD49DE48DE4ADF4BCDE90010F2
:1042A000A2A014F0D7F8DDA1E4A014F0D3F8E5A0A3
:1042B00014F0D0F8002100910A460B46E2A00191CB
:1042C00014F0C8F8002100910A460B46DEA00191C7
:1042D00014F0C0F800200090024603460190DAA0D6
:1042E00014F0B8F8002100910A460B46D6A00191BF
:1042F00014F0B0F800221346D6A014F0ABF8012158
:10430000D6A014F0A7F8D6A1D9A014F0A3F80022E3
:10431000D84BD9A014F09EF81420FEF776FFAFF228
:10432000902014F097F8B9E4022005F04BF9AFF2B1
:10433000A02014F08FF80EF09BFC01280CD1D1A026
:1043400014F088F8012005F03DF9002005F045F94A
:10435000022005F042F90BE0CFA014F07BF800201A
:1043600005F030F9022005F038F9012005F035F9A3
:1043700005F0E2F992E4CD48007802281DDBCB4835
:10438000007803280FD100231A461946552006F05D
:104390009FFC002005F016F9022005F01EF901200F
:1043A00005F01BF91BE0012005F00CF9022005F0D7
:1043B00014F9002005F011F911E0BDA014F04AF83D
:1043C00000231A461946552006F082FC002005F00D
:1043D000F9F8022005F001F9012005F0FEF8AFF22E
:1043E000503014F037F805F0A7F957E4B3A014F0F3
:1043F00031F807F015F80A20FEF707FFB5A014F012
:1044000029F805F0C8FC6420FEF7FFFEB64805F069
:10441000B3FD1420FEF7F9FEA8A014F01BF800E08D
:10442000ACE106F0FDFF3220FEF7EFFEAF4805F0ED
:10443000A3FD3220FEF7E9FE40F6FF7007F05DF9BC
:10444000AFF2B43014F006F828E49CA014F002F89F
:1044500006F0E6FF0A20FEF7D8FE9EA013F0FAFF52
:1044600005F099FC6420FEF7D0FE9F4805F084FD1E
:104470001420FEF7CAFE91A013F0ECFF06F0D0FF67
:104480003220FEF7C2FE9A4805F076FD3220FEF794
:10449000BCFE40F6FF7007F030F9AFF20C4013F0AD
:1044A000D9FF47E6040B0020590000204F54505F0D
:1044B00056315030000000004E543336363732410A
:1044C00000000000544C3036354656584630312DE9
:1044D00030305F47360000004E4F564154454B0088
:1044E0002A2A232325732425732425732425732442
:1044F0000D0A0000000004409A9999999999014089
:10450000676666666666FE3F252E326624252E3275
:104510006624252E3266240014AE47E17A14D63F75
:10452000E17A14AE47E1D23F285CCF3F252E3366B7
:1045300024252E336624252E336624005C8FC2F595
:10454000285CD73F295C8FC2F528D43FF6285C8FC2
:10455000C2F5D03F7B14AE47E17AD43F48E17A14EC
:10456000AE47D93FCDCCCCCCCCCCD43F3333D33FEA
:10457000252E336624252E336624252E33662425E6
:104580002E3366240000000000C077400000144075
:104590002564242564242564242564240D0A000050
:1045A000000040C03031304500000000303131346F
:1045B0000000000030313038000000002573242551
:1045C0007324257324252E326624000025642425B7
:1045D000642400000000E03F9999E93F00407F40DB
:1045E000252E326624252E33662400001904560E2B
:1045F0002DB2D53F8195438B6CE7E33FB072689154
:10460000ED7CE33FD578E9263108D43FD9CEF75386
:10461000E3A5AB3FDF4F8D976E12C33F3634203991
:1046200030203132372031323820313630203138A5
:104630003020323030203232300000002573240D1B
:104640000A000000240D0A00252E336624252E338F
:1046500066240000252E3266240000002564240014
:1046600047616D6D6150726F5F56315030000000D0
:104670002573240000C08240252E326623232A2A77
:104680000D0A00002A232A234F5450204F4B232A7F
:10469000232A0D0A000000002A232A234F54502009
:1046A0004E47232A232A0D0A00000000B20A0020E8
:1046B000436865636B204E470D0A00000D0A447283
:1046C000697665722049435F52657365742E2E2E9C
:1046D0000D0A00000D0A4D4950495F52657365741B
:1046E0002E2E2E0D0A0000007A010020F601002077
:1046F000E6090020FC4890F82010408C61F31F2050
:10470000059013F0F9F80022F84BCDE9060113F0FB
:104710007FF8CDE9080113F09DF9F5490860F248EA
:1047200090F82410C08C61F31F20059013F0E4F87A
:104730000022EE4BCDE9060113F06AF8CDE908013D
:1047400013F088F9EB490860E74890F82810408D8D
:1047500061F31F20059013F0CFF80022E64BCDE95E
:10476000060113F055F8CDE9080113F073F9E34998
:104770000860AFF2E46013F06DFEDBE4DA488178A4
:10478000808861F31F20059013F0B6F80022D74B04
:10479000CDE9060113F03CF8CDE9080113F05AF910
:1047A000D7490860D0488179008961F31F200590BE
:1047B00013F0A2F80022CD4BCDE9060113F028F842
:1047C000CDE9080113F046F9CE490860C648817A60
:1047D000808961F31F20059013F08EF80022C64BEC
:1047E000CDE9060113F014F8CDE9080113F032F910
:1047F000C5490860BC48817B008A61F31F20C3491A
:104800000880B948408A099013F071F8C0490860DF
:10481000B548007DBF490870B348807DBE49087027
:10482000B148007EBD490870AF48807EBC49087021
:10483000AD48007FBB490870AB48807FBA4908701B
:10484000A94890F82010408C61F31F20059013F0C8
:1048500053F80022A54BCDE9060112F0D9FFCDE9AE
:10486000080113F0F7F8A24908609F4890F8241057
:10487000C08C61F31F20059013F03EF800229B4B83
:10488000CDE9060112F0C4FFCDE9080113F0E2F80A
:1048900098490860944890F82810408D61F31F20D3
:1048A000059013F029F80022934BCDE9060112F090
:1048B000AFFFCDE9080113F0CDF890490860084634
:1048C000006813F083F8CDE908018A48006813F006
:1048D0007DF8CDE906018648006813F077F8CDE948
:1048E0000401DDE90801CDE90201DDE90601CDE9B8
:1048F00000018E48DDE9042313F0ACFD8248006816
:1049000013F064F8CDE908017E48006813F05EF802
:10491000CDE906017A48006813F058F8CDE90401A2
:10492000DDE90801CDE90201DDE90601CDE900017B
:104930007FA0DDE9042313F08DFDAFF6AC0013F08A
:1049400089FD04E4AFF6B80013F084FDEBE4AFF6A4
:10495000C00013F07FFD64488088012803D1002047
:1049600004F030FE05E06048808810B9002004F0B3
:1049700034FE5D48C088012802D104F023FE05E022
:104980005948C08810B9012004F027FE5648008914
:10499000012803D1022004F015FE05E052480089E9
:1049A00010B9022004F019FE4F484088012801D1B7
:1049B00004F0C2FEB7E406F048FDAFF62C1013F089
:1049C00049FDB0E406F06EFDAFF63C1013F042FD79
:1049D000A9E4AFF2743164A013F03CFDAFF65010BF
:1049E00013F038FD9FE406F0B7FE012006F035FC19
:1049F00000231A461946184606F06AF96420FEF7A5
:104A000004FCAFF6741013F025FD8CE4AFF68010B3
:104A100013F020FD87E43448408857490880324825
:104A2000808848803048807908712F48017A524840
:104A300041712D48807A504988712B48007BC8719C
:104A40002948807B08722848007C48720846016823
:104A50000791416808910089ADF82400099A0798E8
:104A600005F0DBFE5FE40EF0CFF84449087008461D
:104A70000078032805DA0846017841A013F0EAFC23
:104A800002E046A013F0E6FC17488078099006F093
:104A9000E4F8AFF6042013F0DDFC44E400201A90A3
:104AA0000BE011491A98401C11F810100AAA1A9824
:104AB00011541A98401C80B21A901A980E28F0DBF4
:104AC0000AA805F078FF2EE4022004F07BFD0EF02A
:104AD0009BF82A4908700846007802287ADB0221F0
:104AE00036A013F0B7FC76E0040B00200088C3402A
:104AF0003001002034010020000024403801002053
:104B000024010020280100202C010020B40A0020EC
:104B10001801002051000020520000205300002006
:104B2000540000205500002056000020F4AF01087A
:104B30006368726F6D615F78203D20252E33663B80
:104B4000206368726F6D615F79203D20252E33668A
:104B50003B206368726F6D615F4C76203D20252E8F
:104B600033663B0D0A0000002A232A232573232ADB
:104B7000232A0D0A0000000070010020B20A002064
:104B80002A232A234F54502074696D65732069735A
:104B9000202564232A232A0D0A0000002A232A2321
:104BA0004F54502074696D6573206973206F76656A
:104BB00072204D4158232A232A0D0A004F545020B9
:104BC00074696D6573206973206F76657220256442
:104BD000210D0A0018E0F9A013F03CFC0520FEF7B7
:104BE00014FBF9A013F036FC002006F036F8002381
:104BF0001A461946552006F06BF8002004F0E2FC36
:104C0000022004F0EAFC2EE00EF032F8012815D163
:104C10000520FEF7FAFAF1A013F01CFC082006F0BC
:104C20001CF880231A461946162006F051F8012078
:104C300004F0C8FC022004F0D0FC14E00520FEF7CC
:104C4000E4FAE1A013F006FC002006F006F80023C9
:104C50001A461946552006F03BF8002004F0B2FC35
:104C6000022004F0BAFC1CE4E148006812F03FFEA8
:104C7000E049099012F075FCDF4908600AF0D7FDA1
:104C800010B1DE4813F0E6FBD948006812F02FFEA1
:104C9000D849059012F065FC0690D748016806983F
:104CA00012F027FC079012F091FE02460B46CDE968
:104CB0000801D3A013F0CEFBEDE306F0C6FB06F02F
:104CC000C5FC06F0E0FC04F05BF8DBA013F0C2FBCF
:104CD00000BFDF48408809900DF0BBFE0520FEF7BD
:104CE00094FADB48408801460990DAA013F0B2FB41
:104CF000DBA013F0AFFBAFF6684013F0ABFBCAE3E9
:104D0000DC48008840F08000DA49088008460188C5
:104D1000D9A013F09FFBCE4800790990CC48807849
:104D20000AAB08900146D9480078099A05F062FA62
:104D3000AFF6A44013F08EFBADE3C5488078014682
:104D40000990032005F0A4F8C148007901460990B4
:104D5000032005F0C8F8BE48807901460990032079
:104D600005F0C1F8B721C948007805F0E8F8C14955
:104D7000088008460188C6A013F06CFBAFF6F0402F
:104D800013F068FB87E3B248807801460890BF487B
:104D9000007805F0D4F80990AD48408808900146A5
:104DA000C0A0099A13F056FBAFF61C5013F052FB4B
:104DB00071E3A7484088012806D100BF1021C748E9
:104DC000FBF7E8FA00BF09E0A148408830B900BF0E
:104DD0001021C248FBF7DCFA00BF00BF5BE39C4830
:104DE0004088012806D100BF0821BC48FBF7D2FA51
:104DF00000BF09E09648408830B900BF0821B74895
:104E0000FBF7C6FA00BF00BF45E391484088012880
:104E100006D100BF4102B248FBF7BCFA00BF0AE06E
:104E20008B48408838B900BF4FF40071AC48FBF79D
:104E3000AFFA00BF00BF2EE385484088012806D1A5
:104E400000BF8021A548FBF7A5FA00BF09E0804814
:104E5000408830B900BF8021A048FBF799FA00BF15
:104E600000BF18E37A484088012802D100BF00BF84
:104E700005E07748408810B900BF00BF00BF0AE3D3
:104E800073484088012806D100BF81039548FBF78D
:104E900081FA00BF0AE06E48408838B900BF4FF47D
:104EA00080419048FBF774FA00BF00BFF3E2684806
:104EB0004088099006F021FCEDE206F0B1FAAFF669
:104EC000306013F0C7FAE6E26148807886490870DE
:104ED0005F4880880012854908705D4800798449E0
:104EE00008705B48C0880012824908705848807971
:104EF000814908705648008900128049087054485A
:104F0000007A7F490870524840897E4908807EA017
:104F100013F0A0FABFE23648006812F0E8FC354909
:104F2000099012F01EFB3449086000207D4908708A
:104F30007D4908707D4908707D4908707D49087079
:104F40007D4908707D490870012004F03BFB00207A
:104F500004F043FB022004F040FB08F00BFF06F0D6
:104F60002EFD002005F079FE7548007870B975486F
:104F7000007804280AD073480078012806D000235E
:104F80001A461946542005F0A3FE05E0FF231A46F1
:104F90001946002005F09CFE6748007801280BD0D8
:104FA00066480078012807D061480078012803D0BE
:104FB0005E480078012800D1C6E0C9E04F54502077
:104FC0004E470D0A000000000D0A2A232A234F54E1
:104FD000503A4E47232A232A0D0A00000D0A2A239D
:104FE0002A234F54503A4F4B232A232A0D0A0000FC
:104FF0006000002000007A4440000020B0AF0108AB
:105000000D0A3D3D3D3D3D202341413431232041AA
:1050100075746F56636F6D3128292074696D652032
:10502000656C61707365643A20252E33662873655C
:10503000636F6E64290D0A000D0A2A232A23504F3C
:105040005745523A4F4646232A232A0D0A000000AC
:10505000040B002056434F4D3D307825780D0A0053
:105060000D0A2A232A2356434F4D3A4F4B232A2316
:105070002A0D0A00B40000200D0A5353445F423742
:10508000203D203078253034780D0A00B60A002003
:105090005353445F4237203D203078253034580D3B
:1050A0000A00000054686520706172616D65746566
:1050B00072206F662053534432383238207265674D
:1050C00069737465722030782530325820697320F6
:1050D0003078253034580D0A00000000000C0240E2
:1050E0000018024000040240440000204500002057
:1050F0004600002047000020480000204900002012
:105100004A0000204C0000200D0A20696E74657270
:1051100076616C20646973706C61792E2E2E0D0A95
:1051200000000000DD000020DE000020DF00002085
:10513000E0000020E1000020E2000020E400002068
:10514000B20A002024000020EEA013F083F902E050
:10515000F2A013F07FF9F7A013F07CF9FB48006888
:1051600012F0C5FBFA49059012F0FBF90690F948D8
:105170000168069812F0BDF9079012F027FC02466C
:105180000B46CDE90801F4A013F064F96420FEF7A2
:105190003CF808F0DAFF012004F01FFA7BE1EB484D
:1051A000006812F0A4FBEA49099012F0DAF9E94923
:1051B0000860002004F006FAF5480078012830D095
:1051C000F348007809282CD006F0D2FAFF231A46BB
:1051D0001946002005F07CFD6420FEF716F808F063
:1051E000B9FFEC48006812F0F1FBEB4AEB4BCDE95C
:1051F000080112F0FFFB0BD3E648006812F0E6FB53
:105200004FF03332E64BCDE9080112F00BFC03D22C
:10521000E4A013F01FF902E0EBA013F01BF909F072
:10522000DCF8002006F069FA06F00FF906F00EFA35
:1052300006F0B5F906F027FA08F088FF03F0A0FDA4
:1052400008F062FE0520FDF7E0FF022004F0C5F93A
:10525000002004F0C2F9012004F0BFF9AFF22820C9
:1052600013F0F8F8B948006812F041FBB84905900E
:1052700012F077F90690B7480168069812F039F9EC
:10528000079012F0A3FB02460B46CDE90801D4A01B
:1052900013F0E0F8FFE005F087FCFCE0AB480068A5
:1052A00012F025FBAA49099012F05BF9A9490860A0
:1052B000022004F087F98020D7490870D748007889
:1052C00078B9012005F0C9FCD5A005F074FB0023D6
:1052D0001A461946722005F0FBFCD4A013F0BAF868
:1052E000D9E0FF231A461946002005F0F1FC4FF4DF
:1052F0007A70FDF78AFF00F0B6FED849D8480068FA
:1053000012F0C4FB03D2D7A013F0A4F8C3E00BF053
:1053100075F860B9002005F0A0FC00231A46194674
:10532000552005F0D5FC022004F057F90BE00820C9
:1053300005F093FC80231A461946162005F0C8FC98
:10534000022004F04AF9CCA013F084F87F480068EA
:1053500012F0CDFA7E49059012F003F906907D48CF
:105360000168069812F0C5F8079012F02FFB02466C
:105370000B46CDE90801C4A013F06CF88BE073482C
:10538000006812F0B4FA7249099012F0EAF8714913
:10539000086008F0DCFE002005F05FFC6B48006848
:1053A00012F0A5FA6A49059012F0DBF806906948F8
:1053B0000168069812F09DF8079012F007FB02466C
:1053C0000B46CDE90801BCA013F044F863E0C948DE
:1053D000807800F0010080B1FF231A4619460020B2
:1053E00005F076FC06F0C4F96420FDF70EFFC24814
:1053F00013F030F808F0A9FE09E0FF231A46194619
:10540000002005F065FC40F6FF7006F076F942E0FA
:10541000B848408801460990B8A013F01BF8B54879
:10542000807800F0010078B1C0A013F013F80120DB
:10543000C5490870002005F010FCFF231A461946E4
:10544000002005F045FC05E0C0A013F003F80020A3
:10545000BD490870A748807800F0020048B1C3A099
:1054600012F0F8FF0120C94908705520C84908709A
:1054700009E0C8A012F0EEFF0020C4490870CD4832
:105480000078C3490870CCA012F0E4FF9A4812F0EB
:10549000E1FF00E000BF00BF0020D04908701BB052
:1054A00000BDF0B503460D461646002729460A2ED4
:1054B00003D0002008702846F0BD33B9302001F831
:1054C000010B002008702846F6E7002B03DA2D2098
:1054D00001F8010B5B4242F210720DE093FBF2F413
:1054E00004B937B104F1300001F8010B04FB1233A9
:1054F00001270A2092FBF0F2002AEFDC002008705E
:105500002846D9E70D0A2A232A234F54484552201A
:105510004E47232A232A0D0A000000000D0A2A23E1
:105520002A234F54484552204F4B232A232A0D0A41
:10553000000000000D0A2A232A23504F5745523AF3
:105540004F4E232A232A0D0A00000000600000208D
:1055500000007A44400000200D0A3D3D3D3D3D20C5
:1055600023414141302320706F776572206F6E2098
:1055700074696D6520656C61707365643A20252ED1
:105580003366287365636F6E64290D0A000000009E
:1055900024000020FC0000209A9999999999F93FDC
:1055A000333303400D0A2A232A2343555252454ED2
:1055B000545F4E473A4C4544412044494D21232AEB
:1055C000232A0D0A000000000D0A2A232A2343552E
:1055D0005252454E545F4F4B232A232A0D0A000096
:1055E0000D0A3D3D3D3D3D20234141413123207089
:1055F0006F776572206F66662074696D6520656CD3
:1056000061707365643A20252E3366287365636F75
:105610006E64290D0A000000580100206B00002074
:105620004D5345204552524F520000004D534520E6
:105630006572726F722120506C65617365206368BA
:1056400065636B20746865204D534520636F6E6EF3
:10565000656374696F6E210D0A0000000000C84286
:10566000780000200D0A2A232A234C49543A4E4739
:10567000232A232A0D0A00000D0A2A232A23454E35
:1056800044232A232A0D0A000D0A3D3D3D3D3D20BD
:10569000234141413323206F74702074696D65206C
:1056A000656C61707365643A20252E3366287365D6
:1056B000636F6E64290D0A000D0A3D3D3D3D3D209E
:1056C0002341414134232063757272656E742063F7
:1056D0006865636B2074696D6520656C61707365C6
:1056E000643A20252E3366287365636F6E64290D36
:1056F0000A000000040B0020904000080D0A3D3D08
:105700003D3D70726F6A65637420636F6E66696792
:1057100075726174696F6E206F7074696F6E206945
:1057200073203A305825580D0A0000000D0A2A232C
:105730002A234155544F4C494E455F454E41424CFA
:1057400045232A232A0D0A00590000200D0A2A2386
:105750002A234155544F4C494E455F4449534142D9
:105760004C45232A232A0D0A000000000D0A2A2393
:105770002A2347414D4D414558504552545F454EAF
:1057800041424C45232A232A0D0A00005A000020DA
:10579000AC0000200D0A2A232A2347414D4D4145E4
:1057A00058504552545F44495341424C45232A23A3
:1057B0002A0D0A00AB0000200D0A2A232A23504F8D
:1057C0005745525F5355535441494E5F44495341E5
:1057D000424C4521232A232A0D0A000058000020AC
:1057E0000FB470B586B006460CA8019073E00B9814
:1057F00000785C281CD10B98401C0B9000786E2818
:1058000009D072280FD10D213046FBF7CAF90B9849
:10581000401C0B900BE00A213046FBF7C2F90B98B5
:10582000401C0B9003E00B98401C0B9000BF4BE01A
:105830000B980078252840D10B98401C0B900078DD
:10584000642818D0732833D1019810C801900BE058
:1058500021783046FBF7A5F900BF40213046FBF721
:1058600050FA0028F9D0641C20780028F0D10B9859
:10587000401C0B9020E0019820C801900A2202A948
:105880002846FFF70EFE02AC0BE021783046FBF70E
:1058900088F900BF40213046FBF733FA0028F9D0E1
:1058A000641C20780028F0D10B98401C0B9003E07A
:1058B0000B98401C0B9000BF06E00B9810F8011BE2
:1058C0000B903046FBF76DF900BF40213046FBF7E7
:1058D00018FA0028F9D00B980078002887D106B074
:1058E00070BC5DF814FB00000EB501210846FAF704
:1058F0004CFF4FF08040FCF7D3FA3B20ADF800009E
:105900000020ADF80800092001900020ADF8020049
:105910008DF80A0069464FF08040FCF76EFB0121CC
:105920008807FDF71FF8012211469007FDF706F8DA
:1059300001218807FCF7EAFB0EBD0EB5012102200C
:10594000FAF723FF4148FCF7ABFA3B20ADF8000023
:105950000020ADF8080040F2E73001900020ADF8DB
:1059600002008DF80A0069463848FCF746FB012121
:105970003648FCF7F7FF012211463448FCF7DEFFFA
:1059800001213248FCF7C2FB0EBD0EB501210420F7
:10599000FAF7FBFE2E48FCF783FA4EF65F20ADF8CF
:1059A00000000020ADF8080040F2E7300190002030
:1059B000ADF802008DF80A0069462548FCF71DFB8A
:1059C00001212348FCF7CEFF012211462048FCF7B5
:1059D000B5FF01211E48FCF799FB0EBD10B5012152
:1059E0008807FCF7B6FF012805D105F0C6FE0121A6
:1059F0008807FCF7B7FF10BD10B501211348FCF76D
:105A0000A8FF01280BD113480068401C1149086009
:105A100001201149087001210C48FCF7A3FF10BDBB
:105A200010B501210A48FCF794FF01280DD10B485D
:105A30000088401C094908800846018808A012F027
:105A400009FD01210248FCF78DFF10BD0004004054
:105A500000080040600000205C000020640000207E
:105A60000D0A54696D6572345F5365635F436F75EA
:105A70006E746572203D202564287365636F6E64C3
:105A8000290D0A0070B50325002424E00020F54903
:105A90000880F54908700024F4A1F9480068FFF770
:105AA0009FFE04E00120FDF7B0FB601C84B2EE48CD
:105AB000007808B9642CF5DBF24800783E2807D15D
:105AC000F04840783E2803D10120EF49087007E0F4
:105AD0000020ED490870281EA5F10101CDB2D5D1F5
