:020000040800F2
:10000000E0E7012099010008D9300008DB30000842
:10001000DF300008E3300008E7300008000000008F
:10002000000000000000000000000000EB300008AD
:10003000ED30000800000000EF300008F13000084B
:10004000B3010008B3010008B3010008B3010008C0
:10005000B3010008B3010008B3010008B3010008B0
:10006000B3010008B3010008B3010008B3010008A0
:10007000B3010008B3010008B3010008B301000890
:10008000B3010008B3010008B3010008B301000880
:10009000B3010008B3010008B3010008B301000870
:1000A000B3010008B3010008B3010008B301000860
:1000B000093100081131000819310008B3010008A6
:1000C000B3010008B3010008B3010008B301000840
:1000D000B3010008F9300008B3010008B3010008BB
:1000E000B3010008B3010008B3010008B301000820
:1000F000B3010008B3010008B3010008B301000810
:10010000B301000821310008B3010008B301000861
:1001100001310008B3010008B3010008B301000871
:10012000B3010008B3010008B30100082931000839
:10013000B3010008B3010008B3010008B3010008CF
:10014000B3010008B3010008B3010008B3010008BF
:10015000B3010008B3010008B3010008B3010008AF
:10016000B3010008B3010008B3010008B30100089F
:10017000B3010008B3010008B3010008B30100088F
:10018000B3010008DFF80CD015F02AFD0048004745
:10019000252D0008E0E70120064880470648004773
:1001A000FEE7FEE7FEE7FEE7FEE7FEE7FEE7FEE727
:1001B000FEE7FEE7052C00088501000810B504469F
:1001C0008C48844208D10121084600F000FB002140
:1001D000012000F0FCFA5EE08748844208D101214A
:1001E000022000F0F4FA0021022000F0F0FA52E0C0
:1001F0008248844208D10121042000F0E8FA00215D
:10020000042000F0E4FA46E07D48844208D1012150
:10021000082000F0DCFA0021082000F0D8FA3AE0CB
:100220007848844208D10121102000F0D0FA002142
:10023000102000F0CCFA2EE07348844208D101214E
:10024000202000F0C4FA0021202000F0C0FA22E0B3
:100250006E48844208D10121402000F0B8FA002104
:10026000402000F0B4FA16E06948844208D1012128
:10027000802000F0ACFA0021802000F0A8FA0AE00B
:100280006448844207D10121801500F0A0FA0021C2
:10029000A01500F09CFA10BDF0B50A46002100231D
:1002A000002400BF3DE0012505FA01F3156805EAC9
:1002B00003049C4234D105684F000326BE40B54379
:1002C000056015794E00B54006683543056015791F
:1002D000012D02D01579022D16D185684F00032615
:1002E000BE40B543856055794E00B54086683543BC
:1002F0008560456801268E40B5434560456896791E
:100300008E40B6B235434560C5684F000326BE40F7
:10031000B543C560D5794E00B540C6683543C56064
:10032000491C1029BFD3F0BD4FF6FF7101600021B9
:10033000017141718171C171704708B54FF480320C
:100340000092009A0A430092009AC261C161009A29
:10035000C261C2690092C269009208BD02460020D3
:1003600013690B400BB1012000E0002070470146EB
:10037000086980B270470246002053690B400BB1F8
:10038000012000E0002070470146486980B27047B4
:1003900001837047418370470AB1018300E04183C4
:1003A00070474161704742694A4042617047F0B509
:1003B000002300244D07ED0E02FA05F3CE1000F1E4
:1003C000200555F826504E07F70E0F26BE40B543C0
:1003D000CF1000F1200646F82750CE1000F120057E
:1003E00055F8265045EA0304CE1000F1200545F8E3
:1003F0002640F0BD00000240000402400008024018
:10040000000C02400010024000140240001802409C
:10041000001C024000200240FA48006840F0010041
:10042000F84908600020F74908310860F54800687D
:10043000F5490840F3490860F448091D0860081FA1
:10044000006820F48020091F08600020ED490C316D
:10045000086070470021EB4A921C11701146087029
:10046000704710B501460022002300204A11012ADE
:1004700002D1E44C236808E0022A03D1E14C703435
:10048000236802E0DF4C7434236801F01F0201246A
:1004900094401C400CB1012000E0002010BD38B594
:1004A000002000900024002500BF3120FFF7D9FF75
:1004B00005460098401C00900098B0F5A06F01D050
:1004C000002DF2D03120FFF7CCFF08B1012400E06D
:1004D0000024204638BD01460020CA4A106820F09A
:1004E000F80040EAC10010607047C94908607047D1
:1004F0000021C44A703211701170012802D0042802
:100500000AD104E00121BF4A7032117005E00521D3
:10051000BC4A7032117000E000BF00BF7047BD4997
:100520000860704770B5049C41EA82150126C6EB4D
:10053000530645EA0645054345EA0465B14E361DB6
:10054000356070BDB24908667047820142EA0172A7
:10055000AC4B84331A607047AD4988667047AC492C
:10056000C864704702460020A64B0833186820F084
:10057000EC6042EA01031843A24B0833186070474D
:10058000024600209F4B0833186820F0784042EA6A
:10059000010318439B4B0833186070470146002045
:1005A000984A0832106820F0030008431060704732
:1005B00094480830006800F00C00704701460020A5
:1005C000904A0832106820F0F0000843106070472D
:1005D000014600208B4A0832106820F4E05008439E
:1005E0001060704701460020864A0832106820F4E7
:1005F000604040EAC10010607047F0B50021002261
:1006000000240225002602237E4F08373F6807F0AA
:100610000C0121B1042905D0082937D105E07E4F0E
:10062000076036E07D4F076033E0764F3F1D3F683F
:10063000C7F38056734F3F1D3F6807F03F036EB10D
:10064000764FB7FBF3F7DFF8BCC10CF1040CDCF814
:1006500000C0CCF3881C07FB0CF40CE06E4FB7FB1A
:10066000F3F7DFF8A0C10CF1040CDCF800C0CCF308
:10067000881C07FB0CF4634F3F1D3F68C7F301471D
:100680007F1C7D00B4FBF5F7076002E0624F076056
:1006900000BF00BF5B4F08373F6807F0F001090952
:1006A0005F4F7A5C0768D7404760564F08373F680E
:1006B00007F4E051890A5A4F7A5C4768D74087604F
:1006C000504F08373F6807F46041490B544F7A5C3C
:1006D0004768D740C760F0BD002100F44072B2F512
:1006E000407F0AD1474A0832116821F4F8114D4A77
:1006F00002401143434A08321160424A7032126884
:10070000C0F30B031A433F4B70331A6070474149E3
:100710004439086070473F49403908607047424992
:100720000860704739B1374A303212680243354B9E
:1007300030331A6006E0334A303212688243314B5C
:1007400030331A60704739B12E4A3432126802438E
:100750002C4B34331A6006E02A4A34321268824342
:10076000284B34331A60704739B1264A3832126840
:100770000243244B38331A6006E0224A38321268AA
:100780008243204B38331A60704739B11D4A4032DA
:10079000126802431B4B40331A6006E0194A40328C
:1007A00012688243174B40331A60704739B1154ABB
:1007B000443212680243134B44331A6006E0114A74
:1007C0004432126882430F4B44331A60704739B188
:1007D0000C4A1032126802430A4B10331A6006E0CA
:1007E000084A103212688243064B10331A60704771
:1007F000E1B1044A143212680243024B14331A6006
:1008000019E0000000380240FFFFF6FE103000241F
:1008100000004742800E47420024F40040787D01EA
:1008200000000020FFFCFF0F5C0147425B4A12689A
:1008300082435A4B1A60704739B1584A121D1268E8
:100840000243564B1B1D1A6006E0544A121D1268E3
:100850008243524B1B1D1A60704739B14F4A0C320C
:10086000126802434D4B0C331A6006E04B4A0C32BF
:1008700012688243494B0C331A60704739B1474ABA
:10088000103212680243454B10331A6006E0434AA7
:10089000103212688243414B10331A60704739B1ED
:1008A0003E4A3C32126802433C4B3C331A6006E03D
:1008B0003A4A3C3212688243384B3C331A607047E4
:1008C00039B1364A403212680243344B40331A6021
:1008D00006E0324A403212688243304B40331A609D
:1008E000704739B12D4A4432126802432B4B4433CE
:1008F0001A6006E0294A443212688243274B443387
:100900001A60704739B1254A4C3212680243234BB2
:100910004C331A6006E0214A4C32126882431F4B66
:100920004C331A60704739B11C4A50321268024386
:100930001A4B50331A6006E0184A5032126882434C
:10094000164B50331A60704739B1144AD21F1278CF
:100950000243124BDB1F1A7006E0104AD21F1278B6
:1009600082430E4BDB1F1A7070470C4860300068E2
:1009700040F08070094960310860704701460020EE
:10098000064A083A12680A400AB1012000E0002035
:1009900070470249891F08707047000014380240F0
:1009A00010B50446F748844208D101211020FFF712
:1009B00065FF00211020FFF761FF3EE0F24884420E
:1009C00009D101214804FFF748FF00214FF400300E
:1009D000FFF743FF31E0ED48844209D1012188044B
:1009E000FFF73BFF00214FF48020FFF736FF24E0A4
:1009F000E748844209D10121C804FFF72EFF0021F6
:100A00004FF40020FFF729FF17E0E248844209D1A4
:100A100001210805FFF721FF00214FF48010FFF7A7
:100A20001CFF0AE0DC48844207D101212020FFF7A7
:100A300025FF00212020FFF721FF10BD2DE9FF47F2
:100A400005460E460024A14600BFA046B08900B16D
:100A500000BF2C8A24F44054F08804432C82AC89D3
:100A600041F20C608443B08831890843718908439E
:100A70000443AC81AC8A24F44074B0890443AC8252
:100A80006846FFF7BAFDBF48854202D0C24885429A
:100A900002D1DDF80C9001E0DDF80890A88900F49F
:100AA000004040B109EBC90000EB09103168490072
:100AB000B0FBF1F707E009EBC90000EB0910316862
:100AC0008900B0FBF1F76420B7FBF0F004012009C6
:100AD000642101FB1078A88900F4004040B1322065
:100AE00000EBC800B0FBF1F000F00700044308E0A1
:100AF000322000EB08106421B0FBF1F000F00F0091
:100B000004432C81BDE8FF874FF41651016000219A
:100B10008180C18001810C21418100218181704748
:100B200010B502460020108A20F470600B884C88B3
:100B300023438C882343CC8823431843108210BD61
:100B40000021018041808180C180704721B182896C
:100B500042F40052828104E082894DF6FF731A400C
:100B600082817047028B02F47F420283028B0A4328
:100B70000283704721B1828942F40042828103E0FE
:100B80008289C2F30E028281704721B1828A42F4C7
:100B90000062828204E0828A4FF2FF731A408282EE
:100BA0007047C1F308028280704701468888C0F30D
:100BB00008007047028A4FF6F0731A400282028AD8
:100BC0000A430282704721B1828942F00202828187
:100BD00004E082894FF6FD731A4082817047828952
:100BE0004FF2FF731A40828182890A4382817047E3
:100BF000028A4FF6DF731A400282028A0A43028297
:100C0000704721B1028A42F48042028204E0028AE3
:100C10004BF6FF731A4002827047818941F001014F
:100C20008181704721B1828A42F00802828204E009
:100C3000828A4FF6F7731A4082827047028BD2B2D3
:100C40000283028B42EA01220283704721B1828A29
:100C500042F02002828204E0828A4FF6DF731A405B
:100C60008282704721B1828A42F01002828204E0BF
:100C7000828A4FF6EF731A4082827047828A4FF65B
:100C8000FB731A408282828A0A438282704721B1B2
:100C9000828A42F00202828204E0828A4FF6FD7369
:100CA0001A40828270471AB1838A0B43838202E022
:100CB000838A8B4383827047F0B503460024002665
:100CC0000025002040F66A17B94200D100BF18463F
:100CD000C1F3421401F01F06012707FA06F5012CA3
:100CE00001D10C3004E0022C01D1103000E01430AE
:100CF0001AB107682F43076002E00768AF43076037
:100D0000F0BD02460020B1F5007F00D100BF13887E
:100D10000B400BB1012000E00020704701F400728D
:100D2000B2F5007F00D100BFCA430280704770B5A2
:100D30000246002400230025002040F66A16B14236
:100D400000D100BFC1F3421501F01F03012606FACE
:100D500003F3012D02D19689334006E0022D02D122
:100D6000168A334001E0968A33400C12012606FAB7
:100D700004F41688344013B10CB1012000E00020C7
:100D800070BD0000001001400044004000480040D9
:100D9000004C0040005000400014014010B50022FB
:100DA000002340F66A14A14200D100BF0A120124B8
:100DB0009440A3B2DC43048010BD0000016821F020
:100DC000010101600021016041608160C160016139
:100DD00021214161DB49884204D13D21D94A103AA1
:100DE00091608CE0D7491831884205D14FF4746185
:100DF000D44A103A916082E0D2493031884205D11C
:100E00004FF47411CF4A103A916078E0CD494831DF
:100E1000884205D14FF07461CA4A103A91606EE081
:100E2000C8496031884204D1C749C64A103AD160E6
:100E300065E0C4497831884204D1C449C14A103AB6
:100E4000D1605CE0BF499031884204D1C049BD4ABD
:100E5000103AD16053E0BB49A831884205D14FF028
:100E60003D51B84A103AD16049E0BA49884204D1AC
:100E70003D21B84A083A116041E0B649183188422C
:100E800005D14FF47461B34A083A116037E0B149B3
:100E90003031884205D14FF47411AE4A083A1160DE
:100EA0002DE0AC494831884205D14FF07461A94A20
:100EB000083A116023E0A7496031884204D1A24971
:100EC000A44A121F11601AE0A2497831884204D165
:100ED0009E49A04A121F116011E09E49903188423C
:100EE00004D19B499B4A121F116008E09949A8311F
:100EF000884204D14FF03D51964A121F116070474D
:100F000010B500220268944B1A40CC680B6823434A
:100F10004C6923438C692343CC6923430C6A2343E4
:100F20004C6A23438C6A23434C6B23438C6B2343CF
:100F30001A430260426922F00702D1E90B342343CD
:100F40001A4342610B6943604B6883608B68C360DE
:100F500010BD0021016041608160C160016141619B
:100F60008161C161016241628162C1620163416369
:100F70008163704721B1026842F00102026003E020
:100F8000026822F001020260704721B1026842F457
:100F90000042026003E0026822F4004202607047EF
:100FA00021B1026842F02002026003E0026822F0F0
:100FB000200202607047416070470146486880B275
:100FC000704722B1036843F40023036003E0036821
:100FD00023F4002303600161704721B1026842F4E9
:100FE0008022026003E0026822F4802202607047DF
:100FF0000AB1016100E0C1607047014600200A6843
:1010000002F400220AB1012000E0002070470146EE
:1010100000200A6802F001020AB1012000E000206D
:101020007047014600204A6902F03800704730B529
:1010300003460A4600200024464DAB4202D24149F5
:10104000103901E04349103902F000550DB14C68E8
:1010500000E00C68414D2C4004EA02050DB101206E
:1010600000E0002030BD02463A4B9A4202D2354899
:10107000103801E03748103801F000531BB1374BEE
:101080000B40C36002E0354B0B408360704710B5E6
:1010900001F080034BB122B1436943F08003436107
:1010A00003E0436923F08003436180290BD02AB118
:1010B000036801F01E042343036004E0036801F0A9
:1010C0001E04A343036010BD70B502460020002437
:1010D0000025204EB24202D21A4B103B01E01D4BBC
:1010E000103B1F4E0E4036B11E2606EAD12416686C
:1010F00006EA040502E0566906F0800501F0005694
:101100000EB15C6800E01C68144E344004EA01062D
:1011100016B10DB1012000E0002070BD02460D4B5C
:101120009A4202D20748103801E00A48103801F00C
:1011300000531BB1094B0B40C36002E0074B0B404F
:1011400083607047106002403D000020400F002087
:1011500000003D20106402403F801CF07D0F7D0F99
:101160003C0F3C0F10B501210802FFF787FB00215F
:101170004FF48070FFF782FB10BD30B502460020AF
:1011800000235068F84C20400D790C6844EA05248F
:10119000204350609068F54C2040D1E903542C4323
:1011A0008D682C434D7944EA450420439060D06A11
:1011B00020F470000C7D641EE4B2234340EA035027
:1011C000D06230BD00210160017141718160C16058
:1011D00001610121017570470021E54A1168E54A66
:1011E0001140D0E900231A4383681A43C3681A43A5
:1011F0001143E14AC2F804137047002101604160C5
:101200008160C160704721B1826842F00102826052
:1012100003E0826822F00102826070470A460021E2
:101220004168D64B19401143416070474162826268
:1012300070470A460021416821F01F0111434160B7
:10124000704738B1CA49096841F40001CA4AC2F876
:10125000041306E0C649096821F40001C64AC2F831
:101260000413704738B1C249096841F48001C24A89
:10127000C2F8041306E0BE49096821F48001BE4AA1
:10128000C2F804137047F0B504460D460020002153
:10129000092D11DDE068A5F10A0606EB46070726D1
:1012A00006FA07F18843A5F10A0606EB460603FA9B
:1012B00006F10843E0600CE0206905EB45070726CE
:1012C00006FA07F1884305EB450603FA06F10843E1
:1012D0002061072A0FDA606B561E06EB86071F2671
:1012E00006FA07F18843561E06EB860605FA06F154
:1012F0000843606322E00D2A0FDA206BD61F06EB4D
:1013000086071F2606FA07F18843D61F06EB8606D6
:1013100005FA06F10843206310E0E06AA2F10D0629
:1013200006EB86071F2606FA07F18843A2F10D0691
:1013300006EB860605FA06F10843E062F0BD816817
:1013400041F0804181607047014600208A6802F4C4
:1013500080020AB1012000E00020704721B18268BC
:1013600042F48062826003E0826822F480628260DC
:10137000704721B1826842F00202826003E0826815
:1013800022F002028260704710B50A460021002355
:10139000416821F46041531E41EA4331416010BD70
:1013A00021B1426842F40062426003E0426822F4E4
:1013B0000062426070470146C86C80B270476C485A
:1013C000001D0068704721B1826842F4807282601B
:1013D00003E0826822F480728260704721B18268E3
:1013E00042F40072826003E0826822F4007282603C
:1013F000704738B15E49096841F400515E4AC2F84D
:10140000041306E05A49096821F400515A4AC2F807
:1014100004137047F0B5044615460020002200264C
:10142000092911DDE068A1F10A0707EB470C07273E
:1014300007FA0CF29043A1F10A0707EB470703FAFA
:1014400007F21043E0600CE0206901EB410C072734
:1014500007FA0CF2904301EB410703FA07F210433D
:101460002061A06BC0F30156EF1C06F1010CA7EB45
:101470000C0707EB870C1F2707FA0CF29043EF1CB1
:1014800006F1010CA7EB0C0707EB870701FA07F23F
:101490001043A063F0BD10B50A4600210023816B04
:1014A00021F44011531E41EA0351816310BD08B578
:1014B000002300930090009B0B440093009B1A6054
:1014C00008BD0A460021816821F470211143816022
:1014D00070470A460021816821F440111143816060
:1014E0007047816841F480018160704701460020A7
:1014F0008A6802F480020AB1012000E000207047EF
:1015000021B1426842F48062426003E0426822F402
:1015100080624260704721B1426842F4805242606A
:1015200003E0426822F480524260704708B50246E8
:1015300000200090009201F12800009B18440090C8
:101540000098006880B208BD10B50B460021D9B2E2
:10155000012404FA01F11AB144680C43446002E02A
:1015600044688C43446010BDFFFEFFFCFDF7FFC0E4
:1015700004230140E030FCFF00200140FFFD3FFF5D
:101580000246002013680B400BB1012000E0002050
:101590007047CA430260704770B5024600200023BE
:1015A00000240B12556801268E4005EA06041568D2
:1015B0001D4015B10CB1012000E0002070BD0022DB
:1015C0000A12D3430360704732490143324A116023
:1015D000704770B5002100230F22C4781CB32E4C35
:1015E000246804F4E064C4F5E064C4F30721C1F1A5
:1015F0000404E3B20A4144789C40E1B28478144088
:1016000021430C07210E254C05786155047804F020
:101610001F050124AC4005786D11AD0005F1E025F2
:10162000C5F8004109E0047804F01F050124AC402E
:101630001B4D0678761145F8264070BD194A0A40C0
:101640000243154B1B1F1A60704739B1124A121D15
:1016500012680243104B1B1D1A6006E00E4A121D51
:10166000126882430C4B1B1D1A607047042808D176
:101670004FF0E021096941F004014FF0E0221161CF
:1016800007E04FF0E021096921F004014FF0E0226A
:10169000116170470000FA050CED00E000E400E085
:1016A00080E100E080FFFF1F30B943F2DB028100E0
:1016B000A1F1C0410A6005E043F2D2028100A1F12C
:1016C000C0410A606FF07042411C8900A1F1C04125
:1016D0000A608100A1F1C041C1F804217047D0E93E
:1016E00001121143C2681143026911434269114357
:1016F00082691143C2691143026A1143426A11436C
:10170000826A1143C26A1143026B1143026892005C
:10171000A2F1C0421160816808290BD101688900DB
:10172000A1F1C041096841F0400201688900A1F1BE
:10173000C0410A60416B0968426B526841EA02117C
:10174000426B926841EA0221426B928941EA02416E
:10175000426B128A41EA0251426B127D41EA0261F8
:10176000426B926911430268521C9200A2F1C0427E
:101770001160C16AB1F5804F1BD1816B0968826B22
:10178000526841EA0211826B926841EA0221826B3F
:10179000128A41EA0251826B127D41EA0261826B38
:1017A0009269114302689200A2F1C042C2F804118A
:1017B00007E06FF0704201688900A1F1C041C1F8F3
:1017C00004217047002101600221416000218160F5
:1017D000C160016141618161C16101624FF4805169
:1017E0004162490081620021C16201630F21426BA5
:1017F0001160426B5160FF21426B91600F21426B7F
:10180000D160426B1161426B51610021426B916169
:101810000F21826B1160826B5160FF21826B91609E
:101820000F21826BD160826B1161826B516100214B
:10183000826B9161704751B18200A2F1C04212687F
:1018400042F001038200A2F1C042136009E082006D
:10185000A2F1C0421268F94B1A408300A3F1C043C1
:101860001A60704710280AD118214FF020421166E3
:10187000402151664FF0FC319166D16610E018218D
:10188000EF4A116040214FF02042C2F884104FF01F
:10189000FC31EB4A083211604FF02042C2F88C1044
:1018A000704730B5002100220023446844F008044A
:1018B00085682C43C5682C4305692C43456944EA77
:1018C0004524856944EA4531C4692468C5696D6861
:1018D00044EA0524C5692D8944EA0544C5692D7B80
:1018E00044EA0562046A2468056A6D6844EA0524CE
:1018F000056A2D8944EA0544056A2D7B44EA05639F
:101900000468102C05D14FF020442166A266E366DE
:1019100008E0CB4C21604FF02044C4F88820C84C2C
:101920000C34236030BD10210160002141608160D2
:10193000C160016141618161FC21C2691160C269BC
:101940005160C2699160C269D160026A1160026A25
:101950005160026A9160026AD160704799B11028A3
:1019600008D14FF02042126E42F004024FF02043A3
:101970001A661DE0B24A126842F004024FF020439A
:10198000C3F8802014E0102809D14FF02042126ED5
:10199000AA4BDB1E1A404FF020431A6608E0A84A03
:1019A0001268A64BDB1E1A404FF02043C3F880207C
:1019B000704799B1102808D14FF02042126E42F0C2
:1019C00040024FF020431A661DE09D4A126842F023
:1019D00040024FF02043C3F8802014E0102809D1C2
:1019E0004FF02042126E954B3F3B1A404FF0204380
:1019F0001A6608E0924A1268904B3F3B1A404FF03B
:101A00002043C3F88020704701460020102903D1ED
:101A10004FF02042506F02E0894A1432106870473C
:101A2000182087492031086000200906C1F8A40069
:101A30004FF0FC30824928310860091D0860091DFB
:101A400008607047016841F01001426841EA422194
:101A5000826841EA42317A4A20321160C1680968DD
:101A6000C268526841EA0221C268128941EA024111
:101A7000C268127B41EA0261714A28321160016931
:101A800009680269526841EA02210269128941EA41
:101A900002410269127B41EA0261694A2C321160FB
:101AA000416909684269526841EA02214269128922
:101AB00041EA02414269127B41EA02614FF0204251
:101AC000C2F8B01070470021016041608160FC21C4
:101AD000C2681160C2685160C2689160C268D1601A
:101AE0000269116002695160026991600269D16006
:101AF0004269116042695160426991604269D160F6
:101B0000704748B14E492031096841F004014FF057
:101B10002042C2F8A01009E0494920310968474A2B
:101B2000D21E11404FF02042C2F8A010704710B5ED
:101B3000F2B1102807D14FF020435B6E0B434FF0FA
:101B40002044636632E0B0F5807F08D13C4B1B1D1A
:101B50001B680B434FF02044C4F8843026E0384B18
:101B600024331B680B434FF02044C4F8A4301DE01D
:101B7000102807D14FF020435B6E8B434FF0204479
:101B8000636613E0B0F5807F08D12D4B1B1D1B68E9
:101B90008B434FF02044C4F8843007E0284B2433B3
:101BA0001B688B434FF02044C4F8A43010BD10B51F
:101BB000024600200023102A03D14FF02044636E18
:101BC00009E0B2F5807F03D11D4C241D236802E09B
:101BD0001B4C2434236803EA01040CB1012000E00B
:101BE000002010BD102807D14FF02042526E8A43CA
:101BF0004FF020435A6613E0B0F5807F08D1104AB9
:101C0000121D12688A434FF02043C3F8842007E076
:101C10000B4A243212688A434FF02043C3F8A420B1
:101C2000704770B502460020002300240025102ACA
:101C300008D14FF02046736E0DE00000FEFF0F004C
:101C4000800000A0B2F5807F02D1184E336802E018
:101C5000164E2036336803EA010403EAD10514B1B5
:101C60000DB1012000E0002070BD102808D14FF018
:101C70002042526E22EAD1024FF020435A6614E00D
:101C8000B0F5807F08D1094A126822EAD1024FF0EC
:101C90002043C3F8842008E0044A2032126822EA74
:101CA000D1024FF02043C3F8A4207047840000A065
:101CB00010B50121C802FEF7E1FD00214FF40060DC
:101CC000FEF7DCFD10BD0021714A116847F6FF6286
:101CD0009143027D83681A4343681A43C3681A43D9
:101CE00003681A4303691A431143694A1160704734
:101CF00000210175016041608160C1600161704730
:101D00006449086070476249091F096821F00301AE
:101D10005F4A121F11601146096801431160704744
:101D20005B48001F006800F0030070470021584B1B
:101D30001B1D02681A601A1D11686FF30A01D0E9B1
:101D400001231A43C3681A4303691A431143504AD3
:101D50000832116070470021016041608160C160FC
:101D6000016170474A480C300068C0B2704708B53E
:101D7000014600200090464810300844009000982A
:101D8000006808BD0021424B203302681A601B1D09
:101D900042681A601A1D116821F0F701D0E9022388
:101DA0001A4303691A4343691A431143384A2832D4
:101DB000116070474FF0FF31016000214160816088
:101DC000C16001614161704731482C300068704743
:101DD0002F487C30006870472D497C31086070477F
:101DE0002B484430006870472B49086070472A49E7
:101DF000091D086070472849083108607047264966
:101E00000C31086070472549086070472349091D57
:101E10000860704701218143204A083211607047F1
:101E20001E490C31086070471B491439086070471F
:101E300039B1174A383212680243154B38331A60E9
:101E400006E0134A383212688243114B38331A6065
:101E50007047014600200E4A303212680A400AB12B
:101E6000012000E0002070470949343108607047C4
:101E700001460020064A303212680A400AB10120A9
:101E800000E00020704702493431086070470000CC
:101E9000042C0140A0802542A0852542AC8125422A
:101EA00010B50446FE48844208D101210846FEF7D9
:101EB000E5FC00210120FEF7E1FC9DE0B4F1804F3C
:101EC00008D101210846FEF7C8FC00210120FEF7D9
:101ED000C4FC91E0F348844208D101210220FEF7BE
:101EE000BCFC00210220FEF7B8FC85E0EE488442ED
:101EF00008D101210420FEF7B0FC00210420FEF7E8
:101F0000ACFC79E0E948844208D101210820FEF7C1
:101F1000A4FC00210820FEF7A0FC6DE0E448844208
:101F200008D101211020FEF798FC00211020FEF7B7
:101F300094FC61E0DF48844208D101212020FEF7B3
:101F40008CFC00212020FEF788FC55E0DA48844212
:101F500008D101210220FEF791FC00210220FEF7AA
:101F60008DFC49E0D548844209D101210804FEF7DF
:101F700085FC00214FF48030FEF780FC3CE0D04827
:101F8000844209D101214804FEF778FC00214FF476
:101F90000030FEF773FC2FE0CA48844209D10121CA
:101FA0008804FEF76BFC00214FF48020FEF766FCEE
:101FB00022E0C548844208D101214020FEF74DFCB3
:101FC00000214020FEF749FC16E0C048844208D1B9
:101FD00001218020FEF741FC00218020FEF73DFC1E
:101FE0000AE0BB48844207D101218015FEF735FC89
:101FF0000021A015FEF731FC10BD00220288A84B7D
:1020000098420ED0AC4B98420BD0B0F1804F08D024
:10201000A44B984205D0A44B984202D0A34B9842BF
:1020200004D14FF68F731A404B881A43A04B984245
:1020300007D0A04B984204D04FF6FF431A400B89BB
:102040001A4302804B68C3620B880385944B984205
:1020500002D0994B984201D18B7A03860123838267
:1020600070474FF0FF3141600021018001814180C4
:10207000817270470185828270470A46002101887B
:102080004FF68F73194011430180704741627047CA
:10209000C16270470146486A70470146088D704723
:1020A00021B1028842F00202028004E002884FF669
:1020B000FD731A400280704721B1028842F0040289
:1020C000028004E002884FF6FB731A4002807047DA
:1020D00021B1028842F08002028004E002884FF6BB
:1020E0007F731A400280704702884FF6F7731A40D8
:1020F000028002880A430280704702884FF6FF433D
:102100001A40028002880A430280704721B1028887
:1021100042F00102028004E002884FF6FE731A408A
:102120000280704770B5002400220023058C4FF612
:10213000FE7635400584028C8388048B4FF68F75BC
:102140002C40B51E2C400D882C43751E2A408D89CD
:102150002A434D882A43524DA84202D0564DA842E8
:1021600013D14FF6F7752A40CD892A434FF6FB75F8
:102170002A408D882A434FF6FF652B404FF6FF55C6
:102180002B400D8A2B434D8A2B43838004838D681B
:102190004563028470BD70B5002400220023058CC5
:1021A0004FF6EF7635400584028C8388048B48F621
:1021B000FF752C404FF6FF452C400D884FF6FF76FB
:1021C00006EA05252C434FF6DF752A408D8906EA7D
:1021D00005152A434D8806EA05152A43304DA842C5
:1021E00002D0354DA8421DD14FF67F752A40CD89CA
:1021F0004FF6FF7606EA05152A434FF6BF752A40CB
:102200008D8806EA05152A434FF6FF352B404FF21D
:10221000FF752B400D8A06EA85052B434D8A06EA99
:1022200085052B43838004838D688563028470BD9C
:1022300070B5002400220023058C4FF6FF66354060
:102240000584028C8388848B4FF68F752C404FF663
:10225000FC752C400D882C434FF6FF552A408D8984
:102260004FF6FF7606EA05252A434D8806EA05253E
:102270002A430B4DA84202D00F4DA84238D14FF24D
:10228000FF752A40CD894FF6FF7606EA05252A43D9
:102290004FF6FF352A408D8806EA05252A4319E0C6
:1022A000000001400004004000080040000C004015
:1022B00000100040001400400004014000400140B4
:1022C000004401400048014000180040001C00404C
:1022D000002000404EF6FF752B404DF6FF752B4059
:1022E0000D8A06EA05152B434D8A06EA05152B4390
:1022F000838084838D68C563028470BD70B50022BD
:1023000000230024058C4EF6FF7635400584038CAF
:102310008488828B48F6FF752A404FF6FF452A4095
:102320000D884FF6FF7606EA05252A434DF6FF7520
:102330002B408D8906EA05352B434D8806EA053585
:102340002B43FE4DA84202D0FD4DA84208D14BF6CA
:10235000FF752C400D8A4FF6FF7606EA85152C4353
:10236000848082838D680564038470BD00210180B0
:102370004180818081608181C18101824182704779
:1023800070B50346002000241846183001258D4002
:10239000ACB21D8CA5431D8409B108290AD100EBFC
:1023A000610005684FF68F76354005600568154376
:1023B00005600FE00D1FC5F34E052844056848F67B
:1023C000FF763540056005684FF6FF7606EA02267F
:1023D0003543056070BD4163704781637047C163D9
:1023E0007047016470470A460021018B4FF68F73D6
:1023F00019401143018370470A460021018B48F6BA
:10240000FF7319404FF6FF7303EA02231943018358
:1024100070470A460021818B4FF68F731940114394
:10242000818370470A460021818B48F6FF7319406B
:102430004FF6FF7303EA02231943818370470A466C
:102440000021018B4FF6F773194011430183704748
:102450000A460021018B4FF2FF7319404FF6FF73BC
:1024600003EA02231943018370470A460021818B46
:102470004FF6F77319401143818370470A460021D4
:10248000818B4FF2FF7319404FF6FF7303EA02236B
:102490001943818370470A460021018B4FF6FB7375
:1024A00019401143018370470A460021018B4FF602
:1024B000FF3319404FF6FF7303EA022319430183E8
:1024C00070470A460021818B4FF6FB731940114378
:1024D000818370470A460021818B4FF6FF331940F4
:1024E0004FF6FF7303EA02231943818370470A46BC
:1024F0000021018B4FF67F73194011430183704710
:102500000A460021018BC1F30E014FF6FF7303EA67
:1025100002231943018370470A460021818B4FF63D
:102520007F7319401143818370470A460021818BD4
:10253000C1F30E014FF6FF7303EA022319438183AF
:1025400070470A460021018C4FF6FD731940114374
:10255000018470470A460021018C4FF6F773194039
:102560001143018470470A460021018C4FF6DF7346
:1025700019404FF6FF7303EA0213194301847047B1
:102580000A460021018C4FF67F7319404FF6FF7306
:1025900003EA02131943018470470A460021018CA3
:1025A0004FF6FF5319404FF6FF7303EA0223194316
:1025B000018470470A460021018C4FF2FF731940D5
:1025C0004FF6FF7303EA02231943018470470A465A
:1025D0000021018C4DF6FF7319404FF6FF7303EA9B
:1025E000023319430184704730B5002301248C4025
:1025F000A3B2048C9C430484048C02FA01F5ADB2AE
:102600002C43048430BD30B5002304248C40A3B295
:10261000048C9C430484048C02FA01F5ADB22C4373
:10262000048430BD828B4FF2FF331A408283828B49
:102630004FF6FF7303EA01231A4382837047F0B514
:102640000C461546002100220026078C4EF6FF7C22
:1026500007EA0C070784818B028C4FF6FF7707EAA5
:10266000043640F6FF4739404FF6FF7707EA052763
:1026700039434FF6FF7707EA0337394345F6FF77CB
:102680003A4046F480573A4381830284F0BD828BFE
:102690004FF6F3731A408283828B0A43828370471A
:1026A000F0B50C461546002100220026078C4FF697
:1026B000FF6C07EA0C070784818B028C4FF6FF77CB
:1026C00007EA04264FF60C7739404FF6FF7707EA02
:1026D00003172F4339434FF2FF573A4046F48077B0
:1026E0003A4381830284F0BD028B4FF2FF331A40DC
:1026F0000283028B4FF6FF7303EA01231A4302831E
:102700007047F0B50C461546002100220026078CC4
:102710004FF6EF7C07EA0C070784018B028C4FF61B
:10272000FF7707EA041640F6FF4739404FF6FF7778
:1027300007EA033739434FF6FF7703E00000014013
:102740000004014007EA052739434FF65F773A4016
:1027500046F010073A4301830284F0BD028B4FF626
:10276000F3731A400283028B0A4302837047F0B569
:102770000C46154600210022068C4FF6FE773E409F
:102780000684018B028C4FF60C7631407E1C06EAE3
:1027900003162E4331434FF6F576324044F00106DE
:1027A000324301830284F0BD70B505460C46208893
:1027B00050B92389A28861882846FFF7D8FFE188AD
:1027C0002846FFF7CBFF25E0208804280AD123897B
:1027D000A28861882846FFF794FFE1882846FFF722
:1027E00083FF17E0208808280AD12389A2886188FE
:1027F0002846FFF755FFE1882846FFF748FF09E024
:102800002389A28861882846FFF719FFE1882846B6
:10281000FFF708FF70BD0021018041800121818008
:102820000021C180018170472DE9F04105460C4629
:1028300000260127608808B9022600E00026A0884B
:10284000012801D1022700E001272088A0B92389AF
:10285000A28861882846FFF78AFFE1882846FFF7AB
:102860007DFF23893A4631462846FFF74AFFE18833
:102870002846FFF739FF13E02389A288618828469C
:10288000FFF73FFFE1882846FFF72EFF23893A46EE
:1028900031462846FFF76BFFE1882846FFF75EFFC9
:1028A000BDE8F0810146486B70470146886B704770
:1028B0000146C86B70470146086C70470A884B8810
:1028C0001A438B881A43CB881A430B891A434B89C6
:1028D0001A438B891A43A0F84420704700210180D5
:1028E00041808180C180018141818181704731B106
:1028F000B0F8442042F40042A0F8442005E0B0F8CB
:102900004420C2F30E02A0F84420704721B182880F
:1029100042F00402828004E082884FF6FB731A4082
:102920008280704721B1828842F00102828004E0F7
:1029300082884FF6FE731A40828070471AB18389ED
:102940000B43838102E083898B43838170478182BB
:10295000704702460020138A0B400BB1012000E0B3
:1029600000207047CA430282704730B502460020FB
:1029700000230024158A05EA0103958905EA01046C
:1029800013B10CB1012000E0002030BDCA43028227
:10299000704741EA0203A0F8483070471AB18389B2
:1029A0000B43838102E083898B438381704721B18C
:1029B000828842F00802828004E082884FF6F77332
:1029C0001A408280704701894FF6F87211400181E8
:1029D00070470A46002101894FF68F731940114351
:1029E0000181704730B504460D4629462046FFF761
:1029F000F0FF208940F00700208130BD2DE9F04133
:102A000004460D4616461F46602D06D13B46012260
:102A100031462046FFF775FE05E03B460122314670
:102A20002046FFF7A4FE29462046FFF7D2FF208963
:102A300040F007002081BDE8F08130B50C46002150
:102A40000189C9B24FF6FF7505EA032515432543F1
:102A50002943018130BD2DE9F04105460E46174658
:102A60009846002443463A4631462846FFF7E5FF9C
:102A70002C894FF6F870044044F007044FF68F702D
:102A8000044044F070042C81BDE8F081F0B50446A8
:102A90000D4616461F463B46324629462046FFF75E
:102AA000CCFF208940F480402081F0BD82884FF621
:102AB0008F731A40828082880A438280704702891D
:102AC0004FF6F8731A40028102890A430281704767
:102AD00002894FF67F731A40028102890A430281FC
:102AE0007047F0B50C4615461E4600210022002313
:102AF0000189028B038C4FF6F877394021434FF65A
:102B0000FC473A4040F201173A434FF6DD773B402D
:102B10004FF6FF7707EA06172F433B4301810283F5
:102B20000384F0BD21B1828842F08002828004E0FB
:102B300082884FF67F731A4082807047A0F8501049
:102B4000704700000CB50020019000906B480068B1
:102B500040F480306949086000BF6848006800F4AC
:102B6000003000900198401C0190009818B901981D
:102B7000B0F5A06FF1D16148006800F4003010B1E9
:102B80000120009001E0002000900098012838D139
:102B90005A480830006859490831086008460068FA
:102BA00040F4004008600846006840F4A050086007
:102BB0005348091F0860081F006840F08070091F13
:102BC000086000BF4D48006800F000700028F9D090
:102BD00040F203704B49086048480830006820F014
:102BE00003004649083108600846006840F00200CA
:102BF000086000BF41480830006800F00C00082859
:102C0000F8D10CBD10B53D48006840F001003B49CB
:102C100008600020394908310860384800683A499E
:102C20000840364908603948091D0860081F0068D7
:102C300020F48020091F0860002030490C31086012
:102C4000FFF780FF4FF000603149086010BD70B59C
:102C500000200022022300240221284D08352D687F
:102C600005F00C0020B1042806D0082834D107E074
:102C7000284D294E356033E0284D274E35602FE032
:102C80001E4D2D1D2D68C5F380541C4D2D1D2D6826
:102C900005F03F0154B1214DB5FBF1F5174E361D3E
:102CA0003668C6F3881605FB06F209E0194DB5FB38
:102CB000F1F5124E361D3668C6F3881605FB06F28E
:102CC0000E4D2D1D2D68C5F301456D1C6B00B2FB2B
:102CD000F3F5114E356003E00E4D0F4E356000BF29
:102CE00000BF064D08352D68C5F303150C4E705D09
:102CF000094D2D68C540084E356070BD0038024052
:102D0000193C4005003C0240FFFFF6FE1030002455
:102D100008ED00E00024F4001000002040787D0160
:102D20001400002000F006FB0EF025FFC82000F084
:102D300056FA022006F0F0FB08F07DFA5D480078B4
:102D4000002870D108F089FC5B48007809280CD174
:102D5000512007F023FF7F231A461946532007F01E
:102D600058FF0AF0B8FF0AF0C9FF54A00AF009FDA5
:102D7000012804D1534800785349087017E02120F6
:102D800007F07DFC022007F07AFC504A5188108839
:102D90004FA20AF009FB012809D14A4800784A49A4
:102DA00008704A4A518810884CA20AF0FDFA0020A7
:102DB0004D4908704D480078A0B94D48007888B951
:102DC0004C48007870B94C48007858B94B480078A6
:102DD00040B94B48007828B94A48007810B907F044
:102DE00028FE43E04148007801283FD0444800785D
:102DF00001283BD0012007F0D1FE00231A461946D6
:102E0000722007F006FF3A480078012803D13EA05F
:102E100007F050FD2AE037480078012804D13EA091
:102E200007F048FD22E01AE033480078012803D17A
:102E30003BA007F03FFD19E030480078012806D19B
:102E400000231A461946562007F0E3FE0EE02D48EF
:102E5000007801280AD134A007F02CFD06E00120FB
:102E60000AF059FB1748007817490870022006F04D
:102E70005EFB30A013F050F93348006812F0BBFB42
:102E80000746324912F0F1F9044612F023FC0546D8
:102E90002A460B462EA013F03FF939A013F03CF957
:102EA00007E00BF09EF90AF05DFF00F0F8FD00F07E
:102EB00073F8F6E759000020240000204450542EF7
:102EC000626D7000AB000020AC000020DC0300202D
:102ED000445054312E626D70000000004450543252
:102EE0002E626D7000000000D9000020DD0000207F
:102EF000DE000020DF000020E0000020E1000020D4
:102F0000E2000020E30000205344434152442045A6
:102F100052524F52000000005445204E470000001E
:102F200050574D204E4700004650474120455252D1
:102F30004F5200000D0A4D61696E206C6F6F702E4C
:102F40002E2E0D0A000000006000002000007A44D0
:102F50000D0A3D3D3D3D3D2053797374656D206FF5
:102F60006E2074696D6520656C61707365643A20CC
:102F7000252E3366287365636F6E64290D0A000081
:102F80000D0A2A232A2353595354454D204F4B23CE
:102F90002A232A0D0A00000010B5464800780128AF
:102FA0002CD1002043490870012043490870434850
:102FB0000078401C41490870084600780A281DDB4B
:102FC0000020087001203E4908703E480078401CEF
:102FD0003C490870084600780A280FDB002008707A
:102FE00001203949087039480078401C3749087079
:102FF00008460078032801DB002008702E4800787E
:1030000028B300202C4908702C4800780A281CD2CC
:10301000DFE800F0050A0D1215161718191A06F048
:10302000C8FA2B49087011E006F047FB0EE006F0E5
:1030300047FC2849087009E006F04EFD06E005E06F
:1030400004E003E002E001E000E000BF00BF1C4834
:103050000078D8B100201A4908701A4800780A2868
:1030600012D2DFE800F00508090A0B0C0D0E0F1054
:1030700006F0ECFB09E008E007E006E005E004E00C
:1030800003E002E001E000E000BF00BF0E4800786E
:1030900078B100200C4908700C48007820B1012854
:1030A00003D0022803D101E002E001E000E000BF0C
:1030B00000BF10BD5C00002028000020250000207B
:1030C00029000020260000202A00002027000020E0
:1030D000A8000020A9000020704700BFFEE700BF45
:1030E000FEE700BFFEE700BFFEE77047704770478E
:1030F00010B500F08EF810BD10B500F08AFC10BDC0
:1031000010B500F092FC10BD10B502F039FC10BDF6
:1031100010B502F043FC10BD10B502F053FC10BD19
:1031200010B50AF0C2F810BD10B50AF0E3F810BDF2
:1031300070B502E03BA012F0EFFF42480068424A3F
:10314000B0FBF2F1B1F1807F01D301201DE021F04D
:103150007F40401E4FF0E022506150170F220028A0
:1031600007DA13071D0E394B00F00F04241F1D55FD
:1031700003E013071C0E364B1C5400BF00204FF019
:10318000E02290610720106100200028D2D12D4854
:10319000016830A012F0C0FF4FF0E020006920F07D
:1031A00001004FF0E021086170BD01B53049009881
:1031B00008604FF0E020006940F001004FF0E0218E
:1031C000086100BF2A4800680028FBD14FF0E020CA
:1031D000006920F001004FF0E021086108BD10B542
:1031E0000246144605E04FF47A70FFF7DEFF601EDA
:1031F00084B2002CF7D110BD30B50446254605E059
:103200004FF47A70FFF7EBFF681E85B2002DF7D1FF
:1032100030BD1748006820B115480068401E1449A9
:10322000086070470D0A2052656C6F6164207661FA
:103230006C756520696D706F737369626C652120B0
:103240000D0A00001000002040420F0018ED00E0C1
:1032500000E400E00D0A53797374656D436F726585
:10326000436C6F636B203D202564487A0D0A000093
:103270002C00002008B54FF4C060FEF7A5F91C2013
:103280008DF8000000208DF8010002208DF802006A
:1032900001208DF803006846FEF79BF94FF4C060EB
:1032A000FEF792F91D208DF8000000208DF8010036
:1032B00001208DF802008DF803006846FEF789F9B9
:1032C0004FF4C060FEF780F91E208DF8000000204A
:1032D0008DF8010001208DF802008DF8030068468A
:1032E000FEF777F94FF4E060FEF76EF925208DF8D0
:1032F000000000208DF8010002208DF8020001205E
:103300008DF803006846FEF764F94FF4E060FEF7BD
:103310005BF934208DF8000000208DF801000120B9
:103320008DF802008DF803006846FEF752F909F0A7
:10333000F4FF08BD2DE9F041802058490870584835
:103340000078042805D1574857490860574858491C
:10335000086001210846FDF7E5F901210220FDF78B
:10336000E1F901210420FDF7DDF901210820FDF735
:10337000D9F901211020FDF7D5F901212020FDF711
:10338000D1F901214020FDF7CDF900F0E7F900F077
:1033900039FA48A012F0C0FE02F0A1FA4E480068C7
:1033A00012F029F907464D4911F05FFF044612F06B
:1033B00091F905462A460B4649A012F0ADFEFFF7EB
:1033C000B7FE4FA012F0A8FEFFF754FF56A012F070
:1033D000A3FE02F05BFA5DA012F09EFE04F01AFE5E
:1033E00063A012F099FE0AF035FB4FF48061694842
:1033F000FCF7B4FF012806D167A012F08DFE012072
:103400006C49087005E06CA012F086FE0020694946
:10341000087071A012F080FE06F060F8002006F03F
:1034200086F8012006F083F8022006F080F873A0E9
:1034300012F072FE06F09AF878A012F06DFE05F018
:1034400047FB05F042FC7DA012F066FE05F078FB1C
:1034500085A012F061FE05F05FFE8FA012F05CFE09
:1034600005F037FD97A012F057FE02F0DDFAA0A09C
:1034700012F052FE07F010F807F0ADF8A54812F070
:103480004BFE06F0C9FBA44812F046FE07F086FF8B
:10349000A2A012F041FEBDE8F0810000580100201A
:1034A00024000020004C00403000002000100140AB
:1034B000340000200D0A555341525420636F6E664C
:1034C000696775726174696F6E20697320726561D6
:1034D00064792E0D0A0000006000002000007A448C
:1034E0000D0A54696D6572207469636B2073746191
:1034F00072742E0D0A5B252E3366735D0D0A000073
:103500000D0A53797374656D205469636B20636F82
:103510006E66696775726174696F6E206973207277
:10352000656164792E0D0A000D0A4E5649432063E9
:103530006F6E66696775726174696F6E206973205A
:1035400072656164792E0D0A000000000D0A54496D
:103550004D45523220636F6E66696775726174699A
:103560006F6E2069732072656164792E0D0A000008
:103570000D0A4144433320636F6E6669677572615B
:1035800074696F6E2069732072656164792E0D0A0B
:1035900000000000000402400D0A2A232A2341559E
:1035A000544F4C494E455F454E41424C45232A23DA
:1035B0002A0D0A00590000200D0A2A232A2341550A
:1035C000544F4C494E455F44495341424C45232A90
:1035D000232A0D0A000000000D0A544553542063AD
:1035E0006F6E66696775726174696F6E20697320AA
:1035F00072656164792E0D0A000000000D0A4C45C9
:103600004420636F6E66696775726174696F6E20BE
:1036100069732072656164792E0D0A000D0A4B45AD
:103620005920636F6E66696775726174696F6E2089
:1036300069732072656164792E0D0A000D0A506F5E
:1036400077657220656E61626C6520636F6E666976
:103650006775726174696F6E206973207265616449
:10366000792E0D0A000000000D0A49324320666FD2
:103670007220545053363533313220636F6E666991
:103680006775726174696F6E206973207265616419
:10369000792E0D0A000000000D0A49324320666FA2
:1036A0007220454550524F4D20636F6E66696775B5
:1036B000726174696F6E2069732072656164792E1E
:1036C0000D0A00000D0A49324320666F7220414402
:1036D0003739393420636F6E666967757261746952
:1036E0006F6E2069732072656164792E0D0A000087
:1036F0000D0A41646D65737920636F6E6669677545
:10370000726174696F6E2069732072656164792ECD
:103710000D0A00002C8C0108E88B01080D0A496E87
:1037200074657266616365206265747765656E2095
:1037300053544D33324632787820616E64204C43C6
:103740004420636F6E66696775726174696F6E207D
:1037500069732072656164792E0D0A0000B587B027
:1037600001211020FDF722F807220921FE48FCF76D
:103770001EFE07220A21FC48FCF719FE4FF40070D8
:10378000059002208DF8180000208DF81A00012005
:103790008DF81B0002208DF8190005A9F248FCF7EE
:1037A0007BFD4FF48060059002208DF81800012009
:1037B0008DF81B0005A9EC48FCF76EFD4FF4E130D5
:1037C00001900020ADF80800ADF80A00ADF80C003B
:1037D000ADF810000C20ADF80E0001A9E348FDF78C
:1037E0002DF940F22551E148FDF7D8FA012240F2C7
:1037F0002551DE48FDF760FA0121DC48FDF7A6F906
:1038000007B000BD00B587B00121C804FCF7BDFFBB
:1038100008220021D448FCF7CAFD08220121D24821
:10382000FCF7C5FD0120059002208DF8180000204E
:103830008DF81A0001208DF81B0002208DF8190068
:1038400005A9C948FCF728FD022005908DF818004D
:1038500001208DF81B0005A9C348FCF71DFD4FF49E
:10386000E13001900020ADF80800ADF80A00ADF895
:103870000C00ADF810000C20ADF80E0001A9BC48FA
:10388000FDF7DCF840F22551B948FDF787FA01222F
:1038900040F22551B648FDF70FFA0121B448FDF773
:1038A00055F907B000BD70B504460D46E1B2B14808
:1038B0000068FDF776F900BF8021AE480068FDF78B
:1038C00020FA0028F8D0204670BD10B540F22551EE
:1038D000A8480068FDF715FA012869D1A5480068D5
:1038E000FDF763F9C4B2A448007800285AD1A34870
:1038F0000078012815D1A248A249098820F8114072
:10390000A049098830F811004FF6FF7101EA002044
:103910009B499C4A128821F81200002097490870A0
:103920000EE098490A880988491C964B19809449E9
:1039300001EB420001882143018001208F4908707A
:1039400090480088401E8E4931F8100041F248210D
:1039500088420ED18B480088801E894931F81000BA
:10396000B0F5706F05D101208349087000208549AA
:10397000088084480088401E814931F810001228D0
:1039800010D1482C0ED101207B49087000207D49C0
:103990000880012079490870002005F0BDFD012054
:1039A00005F0BAFD40F2255172480068FDF7F6F9BE
:1039B00010BD10B540F2255173480068FDF7A1F91C
:1039C000012825D170480068FDF7EFF8C1B26F48B3
:1039D00002880088401C6D4B18806D488154184641
:1039E0000088401E6A49085C0A280BD118460088E6
:1039F000801E085C0D2805D1002019460880012092
:103A00006449087040F225515F480068FDF7C6F927
:103A100010BD10B5574800685449884202D1FFF7DD
:103A200054FF01E0FFF7C5FF10BD10B55648006810
:103A30004E49884202D1FFF748FF01E0FFF7B9FF86
:103A400010BD2DE9F04106464FF00008354621E053
:103A50002C8835F8021B0F12012F06D0022F09D037
:103A6000032F0CD00F2F11D10DE021464AA012F0E8
:103A700053FB0EE0214648A012F04EFB09E0204621
:103A8000FFF7ADFB05E04FF0010802E04FF0010841
:103A900000BF00BFB8F1000FDAD0BDE8F08100B57B
:103AA0009BB03F480078012819D13E4803783E4832
:103AB00002783E480178002007F0ABF83C480088C7
:103AC000FFF78DFB3B4803783B4802783B48017881
:103AD000002007F09EF836480088FFF780FB264854
:103AE0000078012841F0C584254801884AF6422221
:103AF000881A914201F0E18069DC4AF61122A1EBBB
:103B00000200914276D017DC6FF42A400844102856
:103B100081F0AA84DFE810F0A600AE000603EF03F0
:103B20001604510480048E07DC05A80CA80CA80C10
:103B3000A80CA80CA80CF902082800F063870ADC7E
:103B40000728E5D2DFE810F0900C0D0712074607B2
:103B50004D07900C5407102800F09287112801F0AF
:103B600015802F282CE032E00000024000100140B8
:103B7000004C00403000002058000020570000207A
:103B8000E8120020380000203400002068000020E7
:103B9000E81600206A000020307825782000000018
:103BA000440000204700002046000020450000207F
:103BB0004C0000204A00002049000020480000205E
:103BC00000F0FA87302841F04F8401F04DB85428B6
:103BD00001F06C8123DC4F2801F0008112DC4128C8
:103BE00001F0AA8007DC3F2801F073804028EAD169
:103BF00001F086B8FEE3422801F0C4804E28E2D1ED
:103C000001F0D6B8502801F0FF80512801F013814F
:103C1000522801F026815328D5D101F030B962280D
:103C200001F0978311DC5F2801F0A88206DC55289B
:103C300001F042815E28C6D101F06CB9602801F024
:103C400014836128BFD101F013BB632801F0A9835D
:103C5000792800F0EA869E2801F035819F28B2D1AC
:103C600001F0C0BBFE4806F025F9FEA012F054FAA0
:103C700001F0FBBBFA48801E40886B2878D1F848D9
:103C8000801EC088082874D2DFE800F0041E3B556F
:103C9000748DA9C2F7480088099000EBD0704010DD
:103CA0008F3880B21A901A98C0B209901A980012F0
:103CB0000890EB48801E0079079001466B20DDE9F3
:103CC000082306F0A6FFC0E0EA480088099000EB50
:103CD000D07040108F3880B21A901A98C0B20990F4
:103CE00080211A9801EB2020C0B20890DC48801E89
:103CF0000079079001466B20DDE9082306F089FF73
:103D0000A3E0DC480088099000EBD07040108F30B1
:103D100080B21A901A98C0B209901A9800120890AE
:103D2000CF48801E0079079001466B20DDE908230B
:103D300006F06FFF89E0CF480088099000EBD07053
:103D400040108F3080B21A901A98C0B2099080212A
:103D50001A9801EB2020C0B20890C148801E00795B
:103D6000079001466B20DDE9082306F052FF6CE066
:103D70006CE069E0BF480088062190FBF1F08F30CD
:103D800080B21A901A98C0B209901A98001208903E
:103D9000B348801E0079079001466B20DDE90823B7
:103DA00006F037FF51E0B3480088062190FBF1F0A0
:103DB0008F3080B21A901A98C0B2099080211A9858
:103DC00001EB2020C0B20890A548801E0079079022
:103DD00001466B20DDE9082306F01BFF35E0A5480E
:103DE0000088062190FBF1F08F3880B21A901A9863
:103DF000C0B209901A98001208909948801E007964
:103E0000079001466B20DDE9082306F002FF1CE065
:103E100098480088062190FBF1F08F3880B21A9004
:103E20001A98C0B2099080211A9801EB2020C0B2E4
:103E300008908B48801E0079079001466B20DDE9D1
:103E4000082306F0E6FE00E000BF27E18448801E5C
:103E500040886C2878D18248801EC088082874D297
:103E6000DFE800F0041E3B55748DA9C2824800882B
:103E7000099000EBD07040108F3880B21A901A98D9
:103E8000C0B209901A98001208907548801E0079F7
:103E9000079001466C20DDE9082306F0BAFEC0E079
:103EA00075480088099000EBD07040108F3880B2C0
:103EB0001A901A98C0B2099080211A9801EB20201C
:103EC000C0B208906648801E0079079001466C20B9
:103ED000DDE9082306F09DFEA3E06748008809900D
:103EE00000EBD07040108F3080B21A901A98C0B298
:103EF00009901A98001208905948801E007907907E
:103F000001466C20DDE9082306F083FE89E05A486B
:103F10000088099000EBD07040108F3080B21A906A
:103F20001A98C0B2099080211A9801EB2020C0B2E3
:103F300008904B48801E0079079001466C20DDE90F
:103F4000082306F066FE6CE06CE069E04A480088F1
:103F5000062190FBF1F08F3080B21A901A98C0B20F
:103F600009901A98001208903D48801E0079079029
:103F700001466C20DDE9082306F04BFE51E03E4887
:103F80000088062190FBF1F08F3080B21A901A98C9
:103F9000C0B2099080211A9801EB2020C0B208908D
:103FA0002F48801E0079079001466C20DDE9082328
:103FB00006F02FFE35E030480088062190FBF1F036
:103FC0008F3880B21A901A98C0B209901A980012CD
:103FD00008902348801E0079079001466C20DDE997
:103FE000082306F016FE1CE023480088062190FBFB
:103FF000F1F08F3880B21A901A98C0B209908021DF
:104000001A9801EB2020C0B208901548801E007954
:10401000079001466C20DDE9082306F0FAFD00E078
:1040200000BF3BE015480078012837D10C48801EBE
:10403000408880BB0A48801E80887F2809D10848B4
:10404000801EC0887F2804D10548801E00897F28F3
:104050001ED00348801E808840281DD100480FE0F4
:10406000EA1200202A232A2341434B232A232A0D24
:104070000A000000B8000020B6000020590000200F
:10408000801EC088402807D1FA480089402803D103
:104090000DF0DBFE02E0FFE70DF0C2FEF548007A0E
:1040A0000990F44880790890F24800790790F14827
:1040B0008078069007A90EC906F0ABFD1420FFF723
:1040C0008EF8AFF2600012F027F8EB480078012874
:1040D0001AD1E8484088B8B9E6488088FF2807D157
:1040E000E448C088FF2803D1E2480089FF2809D0AE
:1040F000E0488088FF2807D1DE48C08820B9DD4825
:10410000008908B909F091FEB2E5DA488078099093
:1041100007F02FF81420FFF762F8AFF2B80011F0A3
:10412000FBFFA5E51420FFF75AF8D4A0D6A3D8A228
:10413000DCA10090DDA011F0EFFFE149E148CDE9FD
:104140000210E149E14800228307CDE90010E0A018
:1041500011F0E2FFE249E348CDE90210E249E34809
:10416000E34AE44BCDE90010E3A011F0D5FFE649A6
:10417000E648CDE90210E648E649E74AE74BCDE9D3
:104180000001DDA011F0C8FFE549E648CDE90410C3
:10419000D348E549CDE90201E449E5488A08E54B01
:1041A000CDE90010E4A011F0B7FF0020E849CDE907
:1041B00002014FF06631E7480A460346CDE9001098
:1041C000C3A011F0A9FF41F6D27041F6C87341F6C1
:1041D000BE7200210090E0A011F09EFF0021E24895
:1041E000E2A3E4A2CDE90010E4A1E6A011F094FF5F
:1041F00001221146E7A011F08FFF0021E748CDE929
:104200000410CDE902100846E44900221346CDE926
:104210000001C9A011F080FFAB49E1480022E14B49
:10422000CDE90010E0A011F077FF0021DB48CDE9D7
:104230000210E048E049E14AE14BCDE90001AEA0BF
:1042400011F06AFF0020D549CDE90201DD49DE48C1
:10425000DE4ADF4BCDE90010A7A011F05DFF002082
:10426000CE49CDE90201DB49DB48DC4ADC4BCDE934
:104270000010A1A011F050FFDAA1E8A011F04CFF4E
:10428000E848FFF7DEFBE8A011F046FF00210091AF
:104290000A460B46E5A0019111F03EFF0021009176
:1042A0000A460B46E1A0019111F036FF0021009172
:1042B0000A460B46DDA0019111F02EFF002100916E
:1042C0000A460B46D9A0019111F026FF00221346A1
:1042D000D9A011F021FF0021D9A011F01DFFD9A113
:1042E000DCA011F019FF1420FEF779FFAFF28C204B
:1042F00011F012FFBCE4022005F00EF9AFF29C2091
:1043000011F00AFF0DF00EFF01280CD1D4A011F01E
:1043100003FF012005F000F9002005F008F9022054
:1043200005F005F90BE0D3A011F0F6FE002005F032
:10433000F3F8022005F0FBF8012005F0F8F805F08D
:10434000A5F995E4D048007802281DDBCE48007816
:1043500003280FD100231A461946552006F059FCB0
:10436000002005F0D9F8022005F0E1F8012005F061
:10437000DEF81BE0012005F0CFF8022005F0D7F8A9
:10438000002005F0D4F811E0C0A011F0C5FE002314
:104390001A461946552006F03CFC002005F0BCF8F2
:1043A000022005F0C4F8012005F0C1F8AFF24C304E
:1043B00011F0B2FE05F06AF95AE4B7A011F0ACFEB4
:1043C0000DF066FE0A20FEF70AFFB9A011F0A4FE68
:1043D00005F07FFC6420FEF702FFBA4805F06AFD95
:1043E0001420FEF7FCFEACA011F096FE0DF050FE7E
:1043F000322000E0D1E1FEF7F2FEB34805F05AFDAD
:104400003220FEF7ECFE40F6FF700DF006FEAFF234
:10441000AC3011F081FE2BE49FA011F07DFE0DF079
:1044200037FE0A20FEF7DBFEA1A011F075FE05F0B5
:1044300050FC6420FEF7D3FEA24805F03BFD14209B
:10444000FEF7CDFE94A011F067FE0DF021FE3220A4
:10445000FEF7C5FE9D4805F02DFD3220FEF7BFFE9C
:1044600040F6FF700DF0D9FDAFF2084011F054FE98
:104470004AE60000E8120020590000204F54505F27
:1044800056315030000000004654383731390000B2
:10449000544330363346564D4337362D30305F4720
:1044A000360000004F524953450000002A2A2323BA
:1044B0002573242573242573242573240D0A0000F5
:1044C00034333333333303409A999999999901409E
:1044D000252E326624252E326624252E32662400AF
:1044E00048E17A14AE47E93F8FC2F5285C8FD23F8E
:1044F000E27A14AE47E1CABF252E336624252E3357
:104500006624252E33662400EC51B81E85EBE93F66
:10451000D7A3703D0AD7D33F52B81E85EB51C8BF11
:104520007B14AE47E17AD43FAE47D93FCDCCCCCC5B
:10453000CCCCD43F3333D33F252E336624252E33C2
:104540006624252E336624252E33662400000000C1
:1045500000C07240666612402564242564242564E8
:10456000242564240D0A0000000040C03030383893
:1045700000000000303039300000000030303830AA
:1045800000000000257324257324257324252E3272
:104590006624000025642425642400000000E03F18
:1045A0009999E93F00407F40252E326624252E331D
:1045B000662400001904560E2DB2D53F8195438B19
:1045C0006CE7E33FB0726891ED7CE33FD578E92674
:1045D0003108D43FD9CEF753E3A5AB3FDF4F8D97DA
:1045E0006E12C33F38302039302031303020313125
:1045F00030203132302031333020313430203135E9
:1046000030203136302031373020313830203139C8
:104610003020323030203231300000002573240D3C
:104620000A00000076010020240D0A00252E3366C2
:1046300024252E3366240000252E32662400000037
:104640002564240047616D6D6150726F5F56315073
:1046500030000000257323232A2A0D0A00000000E1
:104660002A232A234F5450204F4B232A232A0D0A52
:10467000000000002A232A234F5450204E47232AAB
:10468000232A0D0A000000007001002043686563C2
:104690006B204E470D0A00000D0A44726976657260
:1046A0002049435F52657365742E2E2E0D0A00005B
:1046B0000D0A4D4950495F52657365742E2E2E0DBB
:1046C0000A000000E6030020560400205C110020D0
:1046D000F94890F82010408C61F31F20059010F0ED
:1046E0008FFF0022F54BCDE9060110F015FFCDE953
:1046F000080111F033F8F2490860EF4890F82410EF
:10470000C08C61F31F20059010F07AFF0022EB4B64
:10471000CDE9060110F000FFCDE9080111F01EF807
:10472000E8490860E44890F82810408D61F31F20A4
:10473000059010F065FF0022E34BCDE9060110F073
:10474000EBFECDE9080111F009F8E04908600846E0
:10475000006810F0BFFFCDE90801DA48006810F0EA
:10476000B9FFCDE90601D648006810F0B3FFCDE9E6
:104770000401DDE90801CDE90201DDE90601CDE929
:104780000001D348DDE9042311F0C6FC0DF0C3FE9F
:10479000AFF2307011F0C0FCB6E4C7488178808871
:1047A00061F31F20059010F02BFF0022C34BCDE9D1
:1047B000060110F0B1FECDE9080110F0CFFFC549A8
:1047C0000860BD488179008961F31F20059010F0D1
:1047D00017FF0022B94BCDE9060110F09DFECDE98F
:1047E000080110F0BBFFBC490860B348817A80899A
:1047F00061F31F20059010F003FF0022B24BCDE9BA
:10480000060110F089FECDE9080110F0A7FFB349B9
:104810000860A948817B008A61F31F20B0490880A5
:10482000A548408A099010F0E6FEAE490860A2480B
:10483000007DAD490870A048807DAC4908709E4855
:10484000007EAB4908709C48807EAA4908709A484F
:10485000007FA94908709848807FA8490870964849
:1048600090F82010408C61F31F20059010F0C8FED6
:104870000022924BCDE9060110F04EFECDE9080171
:1048800010F06CFF8E4908608B4890F82410C08CA3
:1048900061F31F20059010F0B3FE0022874BCDE995
:1048A000060110F039FECDE9080110F057FF8549E7
:1048B0000860814890F82810408D61F31F20059012
:1048C00010F09EFE0022804BCDE9060110F024FE80
:1048D000CDE9080110F042FF7C49086008460068F5
:1048E00010F0F8FECDE908017648006810F0F2FEFD
:1048F000CDE906017248006810F0ECFECDE9040134
:10490000DDE90801CDE90201DDE90601CDE900019B
:104910006F48DDE9042311F0FFFB7048006810F0D8
:10492000D9FECDE908016C48006810F0D3FECDE94E
:1049300006016848006810F0CDFECDE90401DDE90C
:104940000801CDE90201DDE90601CDE900016CA015
:10495000DDE9042311F0E0FBAFF6F80011F0DCFB19
:10496000C8E4AFF6001011F0D7FBC3E4AFF60C10AB
:1049700011F0D2FB50488088012803D1002004F0B8
:10498000CBFD05E04C48808810B9002004F0CFFD35
:104990004948C088012802D104F0BEFD05E0464820
:1049A000C08810B9012004F0C2FD434800890128E5
:1049B00003D1022004F0B0FD05E03F48008910B9A2
:1049C000022004F0B4FD3C484088012801D104F0E5
:1049D0005DFE8FE40DF079FBAFF6781011F09CFBD3
:1049E00088E40DF0EDFAAFF6841011F095FB81E448
:1049F000AFF2B03150A011F08FFBAFF6981011F06C
:104A00008BFB77E40DF038FB012006F0FBFB002365
:104A10001A461946184606F0FCF86420FEF7DFFB3C
:104A2000AFF6C01011F078FB64E4AFF6C81011F0D7
:104A300073FB5FE420484088434908801E48808813
:104A400048801D48807908711B48007A48711A48CF
:104A5000807A88711848007BC8711748807B08727B
:104A60001548007C48720846016807914168089122
:104A70000089ADF82400099A079805F06CFE39E426
:104A80000DF062FA3149087008460078032805DA0B
:104A9000084601782EA011F03FFB02E033A011F090
:104AA0003BFB05488078099006F078F8AFF64C207B
:104AB00011F032FB1EE40000E81200200088C34021
:104AC0003001002034010020000024403801002083
:104AD000B48C010824010020280100202C010020B2
:104AE0007201002018010020510000205200002017
:104AF00053000020540000205500002056000020E4
:104B00006368726F6D615F78203D20252E33663BB0
:104B1000206368726F6D615F79203D20252E3366BA
:104B20003B206368726F6D615F4C76203D20252EBF
:104B300033663B0D0A0000002A232A232573232A0B
:104B4000232A0D0A00000000DC0300207001002071
:104B50002A232A234F54502074696D65732069738A
:104B6000202564232A232A0D0A0000002A232A2351
:104B70004F54502074696D6573206973206F76659A
:104B800072204D4158232A232A0D0A0000201A9032
:104B90000BE0FD491A98401C11F810100AAA1A9847
:104BA00011541A98401C80B21A901A980E28F0DB03
:104BB0000AA805F07FFE2EE4022004F0ADFC0DF003
:104BC000C3F9F24908700846007802281CDB02216C
:104BD000EFA011F0A1FAF4A011F09EFA0520FEF763
:104BE000FEFAF4A011F098FA002005F0D7FF002398
:104BF0001A461946552006F00CF8002004F08CFCEB
:104C0000022004F094FC2EE00DF08CFA012815D15E
:104C10000520FEF7E4FAECA011F07EFA082005F07A
:104C2000BDFF80231A461946162005F0F2FF012029
:104C300004F072FC022004F07AFC14E00520FEF778
:104C4000CEFADCA011F068FA002005F0A7FF0023DF
:104C50001A461946552005F0DCFF002004F05CFCE4
:104C6000022004F064FC97E5DC48006810F0C3FC07
:104C7000DB49099010F0F9FADA4908600AF097FB6D
:104C800010B1D94811F048FAD448006810F0B3FCCC
:104C9000D349059010F0E9FA0690D24801680698C9
:104CA00010F0ABFA079010F015FD02460B46CDE967
:104CB0000801CEA011F030FAD7E30DF006FA06F0A5
:104CC0002EFC06F049FC0DF0F6FBD6A011F024FAFC
:104CD00000BFAD48408809900DF0CCF80520FEF7E4
:104CE0007EFAA948408801460990D4A011F014FA30
:104CF000D5A011F011FAAFF6944011F00DFAB4E31B
:104D0000D648008840F08001D44801800188D4A0B2
:104D100011F002FA9C48007909909B4880780AAB10
:104D200008900146D3480078099A05F001FAAFF6D9
:104D3000CC4011F0F1F998E393488078014609904E
:104D4000032005F043F890480079014609900320BC
:104D500005F067F88C48807901460990032005F03A
:104D600060F8B721C348007805F087F8BB49088090
:104D700008460188C0A011F0CFF9AFF6185011F025
:104D8000CBF972E38048807801460890B9480078F2
:104D900005F073F809907C48408808900146BBA054
:104DA000099A11F0B9F9AFF6445011F0B5F95CE386
:104DB00075484088012806D100BF1021C148FBF783
:104DC000E9FA00BF09E07048408830B900BF1021FF
:104DD000BC48FBF7DDFA00BF00BF46E36A484088E5
:104DE000012806D100BF0821B648FBF7D3FA00BF5F
:104DF00009E06548408830B900BF0821B148FBF799
:104E0000C7FA00BF00BF30E35F484088012806D1E1
:104E100000BF4102AC48FBF7BDFA00BF0AE05A48A8
:104E2000408838B900BF4FF40071A748FBF7B0FACB
:104E300000BF00BF19E354484088012806D100BFD5
:104E40008021A048FBF7A6FA00BF09E04E48408841
:104E500030B900BF80219B48FBF79AFA00BF00BF22
:104E600003E349484088012802D100BF00BF05E0A4
:104E70004548408810B900BF00BF00BFF5E2424876
:104E80004088012806D100BF81039048FBF782FAD1
:104E900000BF0AE03C48408838B900BF4FF4804169
:104EA0008A48FBF775FA00BF00BFDEE2364840884B
:104EB00009900DF0B2F8D8E20DF0EAF8AFF65C60B8
:104EC00011F02AF9D1E230488078814908702E48E3
:104ED000808800127F4908702B4800797E4908704D
:104EE0002948C08800127D490870274880797C498C
:104EF00008702548008900127A4908702248007A13
:104F000079490870204840897849088078A011F0D4
:104F100003F9AAE23148006810F06DFB30490990AE
:104F200010F0A3F92F4908600020784908707849EB
:104F3000087078490870784908707849087078498D
:104F40000870012004F0E8FA002004F0F0FA0220D2
:104F500004F0EDFA08F07EFD06F07FFB002005F07E
:104F60001DFE0A48007870B96E48007804280AD0FF
:104F70006C480078012806D000231A4619465420B0
:104F800005F047FED6E0CFE0E812002070010020D7
:104F90004F54502074696D6573206973206F766576
:104FA00072202564210D0A004F5450204E470D0AEF
:104FB000000000000D0A2A232A234F54503A4E477E
:104FC000232A232A0D0A00000D0A2A232A234F54DC
:104FD000503A4F4B232A232A0D0A0000600000207C
:104FE00000007A4440000020708C01080D0A3D3D0D
:104FF0003D3D3D20234141343123204175746F569E
:10500000636F6D28292074696D6520656C6170730C
:1050100065643A20252E3366287365636F6E6429B4
:105020000D0A00000D0A2A232A23504F5745523AF1
:105030004F4646232A232A0D0A00000056434F4DAF
:105040003D307825780D0A000D0A2A232A2356437D
:105050004F4D3A4F4B232A232A0D0A00B40000205B
:105060000D0A5353445F4237203D203078253034B9
:10507000780D0A00740100205353445F4237203DED
:10508000203078253034580D0A000000546865201F
:10509000706172616D65746572206F662053534450
:1050A00032383238207265676973746572203078DF
:1050B00025303258206973203078253034580D0A55
:1050C00000000000000C02400018024000040240F2
:1050D000440000204500002046000020470000203A
:1050E00048000020490000204A0000204C00002019
:1050F0000D0A20696E74657276616C206469737044
:105100006C61792E2E2E0D0A00000000DD000020BB
:10511000DE000020DF000020E0000020E100002091
:10512000E200002024000020FF231A461946002038
:1051300005F06FFDF7A010F0EFFFFC48006810F0DD
:105140005AFAFB49059010F090F80690F94801686A
:10515000069810F052F8079010F0BCFA02460B4681
:10516000CDE90801F4A010F0D7FF6420FEF737F86E
:1051700008F05BFE012004F0DAF976E1EB48006804
:1051800010F039FAEA49099010F06FF8E94908601F
:10519000002004F0C1F9F648007801282BD00DF06A
:1051A0005BF9FF231A461946002005F032FD642002
:1051B000FEF715F808F03EFEEE48006810F08AFA97
:1051C00000221346CDE9080110F098FA0AD3E94805
:1051D000006810F07FFA0022E74BCDE9080110F0DB
:1051E000A5FA03D2E5A010F097FF02E0ECA010F0C2
:1051F00093FF08F062FF00200CF00FFF0CF065FF3A
:1052000006F08DF906F034F906F0A6F908F00EFE66
:105210000DF051F908F0E8FC0520FDF7E0FF022051
:1052200004F085F9002004F082F9012004F07FF9F0
:10523000AFF2102010F070FFBC48006810F0DBF9EE
:10524000BB49059010F011F80690BA48016806981D
:105250000FF0D3FF079010F03DFA02460B46CDE960
:105260000801D5A010F058FFFFE005F03EFCFCE07F
:10527000AE48006810F0BFF9AD4909900FF0F5FF96
:10528000AC490860022004F047F98020D849087032
:10529000D848007878B9012005F080FCD6A005F048
:1052A00009FB00231A461946722005F0B2FCD5A06E
:1052B00010F032FFD9E0FF231A461946002005F00E
:1052C000A8FC4FF47A70FDF78AFF00F09EFED949E2
:1052D000D948006810F05EFA03D2D8A010F01CFF85
:1052E000C3E00AF051FE60B9002005F057FC00232E
:1052F0001A461946552005F08CFC022004F017F9D7
:105300000BE0082005F04AFC80231A4619461620B7
:1053100005F07FFC022004F00AF9CDA010F0FCFE9D
:105320008248006810F067F9814905900FF09DFFF1
:1053300006908048016806980FF05FFF079010F014
:10534000C9F902460B46CDE90801C5A010F0E4FEFC
:105350008BE07648006810F04EF9754909900FF01F
:1053600084FF7449086008F062FD002005F016FC17
:105370006E48006810F03FF96D4905900FF075FF19
:1053800006906C48016806980FF037FF079010F000
:10539000A1F902460B46CDE90801BDA010F0BCFE04
:1053A00063E0CA48807800F0010080B1FF231A460C
:1053B0001946002005F02DFC0DF04EF86420FDF795
:1053C0000EFFC34810F0A8FE08F02FFD09E0FF23F0
:1053D0001A461946002005F01CFC40F6FF700CF040
:1053E0001CFE42E0B948408801460990B9A010F07F
:1053F00093FEB648807800F0010078B1C1A010F0AB
:105400008BFE0120C6490870002005F0C7FBFF2372
:105410001A461946002005F0FCFB05E0C1A010F07B
:105420007BFE0020BE490870A848807800F002008A
:1054300048B1C4A010F070FE0120CA490870552080
:10544000C949087009E0C9A010F066FE0020C549EE
:105450000870CE480078C4490870CDA010F05CFEFA
:105460009B4810F059FE00E000BF00BF0020D1496A
:1054700008701BB000BDF0B503460D461646002768
:1054800029460A2E03D0002008702846F0BD33B903
:10549000302001F8010B002008702846F6E7002BA9
:1054A00003DA2D2001F8010B5B4242F210720DE08D
:1054B00093FBF2F404B937B104F1300001F8010BA9
:1054C00004FB123301270A2092FBF0F2002AEFDCE2
:1054D000002008702846D9E70FB470B586B006469C
:1054E0000CA80190C8E10B9800785C280FD10B98AC
:1054F000401C0B9000786E280AD0722809D10D212B
:105500003046FBF74EFB0B98401C0B9060E160E1CE
:1055100052E159E10D0A2A232A23504F5745523AA6
:105520004F4E232A232A0D0A0000000060000020AD
:1055300000007A44400000200D0A3D3D3D3D3D20E5
:1055400023414141302320706F776572206F6E20B8
:1055500074696D6520656C61707365643A20252EF1
:105560003366287365636F6E64290D0A00000000BE
:1055700024000020FC000020000034400D0A2A23F3
:105580002A2343555252454E545F4E473A4C4544A8
:10559000412044494D21232A232A0D0A00000000FE
:1055A0000D0A2A232A2343555252454E545F4F4B2E
:1055B000232A232A0D0A00000D0A3D3D3D3D3D20D2
:1055C00023414141312320706F776572206F6666F9
:1055D0002074696D6520656C61707365643A20257F
:1055E0002E3366287365636F6E64290D0A00000010
:1055F000580100206B0000204D5345204552524F6A
:10560000520000004D5345206572726F7221205088
:105610006C6561736520636865636B2074686520E1
:105620004D534520636F6E6E656374696F6E210D17
:105630000A0000000000C842780000200D0A2A235A
:105640002A234C49543A4E47232A232A0D0A0000A4
:105650000D0A2A232A23454E44232A232A0D0A0011
:105660000D0A3D3D3D3D3D20234141413323206F07
:1056700074702074696D6520656C61707365643A3F
:1056800020252E3366287365636F6E64290D0A002A
:105690000D0A3D3D3D3D3D202341414134232063E2
:1056A000757272656E7420636865636B2074696DD2
:1056B0006520656C61707365643A20252E33662819
:1056C0007365636F6E64290D0A000000E812002004
:1056D000644000080D0A3D3D3D3D70726F6A656390
:1056E0007420636F6E66696775726174696F6E208E
:1056F0006F7074696F6E206973203A305825580DA9
:105700000A0000000D0A2A232A234155544F4C4910
:105710004E455F454E41424C45232A232A0D0A003F
:10572000590000200D0A2A232A234155544F4C4981
:105730004E455F44495341424C45232A232A0D0AD2
:10574000000000000D0A2A232A2347414D4D414500
:1057500058504552545F454E41424C45232A232A16
:105760000D0A00005A000020AC0000200D0A2A2378
:105770002A2347414D4D414558504552545F4449B5
:105780005341424C45232A232A0D0A00AB00002036
:105790000D0A2A232A23504F5745525F535553541D
:1057A00041494E5F44495341424C4521232A232A13
:1057B0000D0A0000580000200A213046FBF7F1F9DD
:1057C0000B98401C0B9003E00B98401C0B9000BF03
:1057D0004BE00B980078252840D10B98401C0B908B
:1057E0000078642818D0732833D1019810C801902C
:1057F0000BE021783046FBF7D4F900BF402130465A
:10580000FBF77FFA0028F9D0641C20780028F0D13B
:105810000B98401C0B9020E0019820C801900A22B0
:1058200002A92846FFF727FE02AC0BE0217830469C
:10583000FBF7B7F900BF40213046FBF762FA0028BA
:10584000F9D0641C20780028F0D10B98401C0B90F4
:1058500003E00B98401C0B9000BF06E00B9810F87B
:10586000011B0B903046FBF79CF900BF40213046EE
:10587000FBF747FA0028F9D00B98007800287FF44E
:1058800032AE06B070BC5DF814FB00000EB501210D
:105890000846FAF77AFF4FF08040FCF701FB3B2007
:1058A000ADF800000020ADF80800092001900020AC
:1058B000ADF802008DF80A0069464FF08040FCF711
:1058C0009CFB01218807FDF74DF801221146900746
:1058D000FDF734F801218807FCF718FC0EBD0EB562
:1058E00001210220FAF751FF4148FCF7D9FA3B2089
:1058F000ADF800000020ADF8080040F2E73001905C
:105900000020ADF802008DF80A0069463848FCF71F
:1059100074FB01213648FDF725F801221146344871
:10592000FDF70CF801213248FCF7F0FB0EBD0EB577
:1059300001210420FAF729FF2E48FCF7B1FA4EF6B0
:105940005F20ADF800000020ADF8080040F2E7301D
:1059500001900020ADF802008DF80A006946254844
:10596000FCF74BFB01212348FCF7FCFF0122114609
:105970002048FCF7E3FF01211E48FCF7C7FB0EBDE2
:1059800010B501218807FCF7E4FF012805D105F0D7
:105990001DFE01218807FCF7E5FF10BD10B50121B0
:1059A0001348FCF7D6FF01280BD113480068401CB0
:1059B0001149086001201149087001210C48FCF7C9
:1059C000D1FF10BD10B501210A48FCF7C2FF012824
:1059D0000DD10B480088401C094908800846018801
:1059E00008A010F099FB01210248FCF7BBFF10BD95
:1059F0000004004000080040600000205C0000201F
:105A0000640000200D0A54696D6572345F5365634C
:105A10005F436F756E746572203D20256428736541
:105A2000636F6E64290D0A0070B50325002424E01D
:105A30000020F5490880F54908700024F4A1F948D0
:105A40000068FFF749FD04E00120FDF7C8FB601C7A
:105A500084B2EE48007808B9642CF5DBF24800788F
:105A60003E2807D1F04840783E2803D10120EF4975
:105A7000087007E00020ED490870281EA5F101011B
:105A8000CDB2D5D100BFE948007800B970BD24E09F
:105A90000020DD490880DD4908700024E4A1E148C8
:105AA0000068FFF719FD04E00120FDF798FB601C7A
:105AB00084B2D648007808B9642CF5DBDA4800785F
:105AC0003E2807D1D84840783E2803D10120D74945
:105AD000087007E00020D5490870281EA5F10101D3
