:020000040800F2
:1000000068E7012099010008FD310008FF31000870
:1000100003320008073200080B320008000000001D
:100020000000000000000000000000000F32000887
:1000300011320008000000001332000815320008D9
:10004000B3010008B3010008B3010008B3010008C0
:10005000B3010008B3010008B3010008B3010008B0
:10006000B3010008B3010008B3010008B3010008A0
:10007000B3010008B3010008B3010008B301000890
:10008000B3010008B3010008B3010008B301000880
:10009000B3010008B3010008B3010008B301000870
:1000A000B3010008B3010008B3010008B301000860
:1000B0002D320008353200083D320008B301000837
:1000C000B3010008B3010008B3010008B301000840
:1000D000B30100081D320008B3010008B301000895
:1000E000B3010008B3010008B3010008B301000820
:1000F000B3010008B3010008B3010008B301000810
:10010000B301000845320008B3010008B30100083C
:1001100025320008B3010008B3010008B30100084C
:10012000B3010008B3010008B30100084D32000814
:10013000B3010008B3010008B3010008B3010008CF
:10014000B3010008B3010008B3010008B3010008BF
:10015000B3010008B3010008B3010008B3010008AF
:10016000B3010008B3010008B3010008B30100089F
:10017000B3010008B3010008B3010008B30100088F
:10018000B3010008DFF80CD018F09EF800480047D3
:10019000252D000868E701200648804706480047EB
:1001A000FEE7FEE7FEE7FEE7FEE7FEE7FEE7FEE727
:1001B000FEE7FEE7052C00088501000810B504469F
:1001C0008C48844208D10121084600F000FB002140
:1001D000012000F0FCFA5EE08748844208D101214A
:1001E000022000F0F4FA0021022000F0F0FA52E0C0
:1001F0008248844208D10121042000F0E8FA00215D
:10020000042000F0E4FA46E07D48844208D1012150
:10021000082000F0DCFA0021082000F0D8FA3AE0CB
:100220007848844208D10121102000F0D0FA002142
:10023000102000F0CCFA2EE07348844208D101214E
:10024000202000F0C4FA0021202000F0C0FA22E0B3
:100250006E48844208D10121402000F0B8FA002104
:10026000402000F0B4FA16E06948844208D1012128
:10027000802000F0ACFA0021802000F0A8FA0AE00B
:100280006448844207D10121801500F0A0FA0021C2
:10029000A01500F09CFA10BDF0B50A46002100231D
:1002A000002400BF3DE0012505FA01F3156805EAC9
:1002B00003049C4234D105684F000326BE40B54379
:1002C000056015794E00B54006683543056015791F
:1002D000012D02D01579022D16D185684F00032615
:1002E000BE40B543856055794E00B54086683543BC
:1002F0008560456801268E40B5434560456896791E
:100300008E40B6B235434560C5684F000326BE40F7
:10031000B543C560D5794E00B540C6683543C56064
:10032000491C1029BFD3F0BD4FF6FF7101600021B9
:10033000017141718171C171704708B54FF480320C
:100340000092009A0A430092009AC261C161009A29
:10035000C261C2690092C269009208BD02460020D3
:1003600013690B400BB1012000E0002070470146EB
:10037000086980B270470246002053690B400BB1F8
:10038000012000E0002070470146486980B27047B4
:1003900001837047418370470AB1018300E04183C4
:1003A00070474161704742694A4042617047F0B509
:1003B000002300244D07ED0E02FA05F3CE1000F1E4
:1003C000200555F826504E07F70E0F26BE40B543C0
:1003D000CF1000F1200646F82750CE1000F120057E
:1003E00055F8265045EA0304CE1000F1200545F8E3
:1003F0002640F0BD00000240000402400008024018
:10040000000C02400010024000140240001802409C
:10041000001C024000200240FA48006840F0010041
:10042000F84908600020F74908310860F54800687D
:10043000F5490840F3490860F448091D0860081FA1
:10044000006820F48020091F08600020ED490C316D
:10045000086070470021EB4A921C11701146087029
:10046000704710B501460022002300204A11012ADE
:1004700002D1E44C236808E0022A03D1E14C703435
:10048000236802E0DF4C7434236801F01F0201246A
:1004900094401C400CB1012000E0002010BD38B594
:1004A000002000900024002500BF3120FFF7D9FF75
:1004B00005460098401C00900098B0F5A06F01D050
:1004C000002DF2D03120FFF7CCFF08B1012400E06D
:1004D0000024204638BD01460020CA4A106820F09A
:1004E000F80040EAC10010607047C94908607047D1
:1004F0000021C44A703211701170012802D0042802
:100500000AD104E00121BF4A7032117005E00521D3
:10051000BC4A7032117000E000BF00BF7047BD4997
:100520000860704770B5049C41EA82150126C6EB4D
:10053000530645EA0645054345EA0465B14E361DB6
:10054000356070BDB24908667047820142EA0172A7
:10055000AC4B84331A607047AD4988667047AC492C
:10056000C864704702460020A64B0833186820F084
:10057000EC6042EA01031843A24B0833186070474D
:10058000024600209F4B0833186820F0784042EA6A
:10059000010318439B4B0833186070470146002045
:1005A000984A0832106820F0030008431060704732
:1005B00094480830006800F00C00704701460020A5
:1005C000904A0832106820F0F0000843106070472D
:1005D000014600208B4A0832106820F4E05008439E
:1005E0001060704701460020864A0832106820F4E7
:1005F000604040EAC10010607047F0B50021002261
:1006000000240225002602237E4F08373F6807F0AA
:100610000C0121B1042905D0082937D105E07E4F0E
:10062000076036E07D4F076033E0764F3F1D3F683F
:10063000C7F38056734F3F1D3F6807F03F036EB10D
:10064000764FB7FBF3F7DFF8BCC10CF1040CDCF814
:1006500000C0CCF3881C07FB0CF40CE06E4FB7FB1A
:10066000F3F7DFF8A0C10CF1040CDCF800C0CCF308
:10067000881C07FB0CF4634F3F1D3F68C7F301471D
:100680007F1C7D00B4FBF5F7076002E0624F076056
:1006900000BF00BF5B4F08373F6807F0F001090952
:1006A0005F4F7A5C0768D7404760564F08373F680E
:1006B00007F4E051890A5A4F7A5C4768D74087604F
:1006C000504F08373F6807F46041490B544F7A5C3C
:1006D0004768D740C760F0BD002100F44072B2F512
:1006E000407F0AD1474A0832116821F4F8114D4A77
:1006F00002401143434A08321160424A7032126884
:10070000C0F30B031A433F4B70331A6070474149E3
:100710004439086070473F49403908607047424992
:100720000860704739B1374A303212680243354B9E
:1007300030331A6006E0334A303212688243314B5C
:1007400030331A60704739B12E4A3432126802438E
:100750002C4B34331A6006E02A4A34321268824342
:10076000284B34331A60704739B1264A3832126840
:100770000243244B38331A6006E0224A38321268AA
:100780008243204B38331A60704739B11D4A4032DA
:10079000126802431B4B40331A6006E0194A40328C
:1007A00012688243174B40331A60704739B1154ABB
:1007B000443212680243134B44331A6006E0114A74
:1007C0004432126882430F4B44331A60704739B188
:1007D0000C4A1032126802430A4B10331A6006E0CA
:1007E000084A103212688243064B10331A60704771
:1007F000E1B1044A143212680243024B14331A6006
:1008000019E0000000380240FFFFF6FE103000241F
:1008100000004742800E47420024F40040787D01EA
:1008200000000020FFFCFF0F5C0147425B4A12689A
:1008300082435A4B1A60704739B1584A121D1268E8
:100840000243564B1B1D1A6006E0544A121D1268E3
:100850008243524B1B1D1A60704739B14F4A0C320C
:10086000126802434D4B0C331A6006E04B4A0C32BF
:1008700012688243494B0C331A60704739B1474ABA
:10088000103212680243454B10331A6006E0434AA7
:10089000103212688243414B10331A60704739B1ED
:1008A0003E4A3C32126802433C4B3C331A6006E03D
:1008B0003A4A3C3212688243384B3C331A607047E4
:1008C00039B1364A403212680243344B40331A6021
:1008D00006E0324A403212688243304B40331A609D
:1008E000704739B12D4A4432126802432B4B4433CE
:1008F0001A6006E0294A443212688243274B443387
:100900001A60704739B1254A4C3212680243234BB2
:100910004C331A6006E0214A4C32126882431F4B66
:100920004C331A60704739B11C4A50321268024386
:100930001A4B50331A6006E0184A5032126882434C
:10094000164B50331A60704739B1144AD21F1278CF
:100950000243124BDB1F1A7006E0104AD21F1278B6
:1009600082430E4BDB1F1A7070470C4860300068E2
:1009700040F08070094960310860704701460020EE
:10098000064A083A12680A400AB1012000E0002035
:1009900070470249891F08707047000014380240F0
:1009A00010B50446F748844208D101211020FFF712
:1009B00065FF00211020FFF761FF3EE0F24884420E
:1009C00009D101214804FFF748FF00214FF400300E
:1009D000FFF743FF31E0ED48844209D1012188044B
:1009E000FFF73BFF00214FF48020FFF736FF24E0A4
:1009F000E748844209D10121C804FFF72EFF0021F6
:100A00004FF40020FFF729FF17E0E248844209D1A4
:100A100001210805FFF721FF00214FF48010FFF7A7
:100A20001CFF0AE0DC48844207D101212020FFF7A7
:100A300025FF00212020FFF721FF10BD2DE9FF47F2
:100A400005460E460024A14600BFA046B08900B16D
:100A500000BF2C8A24F44054F08804432C82AC89D3
:100A600041F20C608443B08831890843718908439E
:100A70000443AC81AC8A24F44074B0890443AC8252
:100A80006846FFF7BAFDBF48854202D0C24885429A
:100A900002D1DDF80C9001E0DDF80890A88900F49F
:100AA000004040B109EBC90000EB09103168490072
:100AB000B0FBF1F707E009EBC90000EB0910316862
:100AC0008900B0FBF1F76420B7FBF0F004012009C6
:100AD000642101FB1078A88900F4004040B1322065
:100AE00000EBC800B0FBF1F000F00700044308E0A1
:100AF000322000EB08106421B0FBF1F000F00F0091
:100B000004432C81BDE8FF874FF41651016000219A
:100B10008180C18001810C21418100218181704748
:100B200010B502460020108A20F470600B884C88B3
:100B300023438C882343CC8823431843108210BD61
:100B40000021018041808180C180704721B182896C
:100B500042F40052828104E082894DF6FF731A400C
:100B600082817047028B02F47F420283028B0A4328
:100B70000283704721B1828942F40042828103E0FE
:100B80008289C2F30E028281704721B1828A42F4C7
:100B90000062828204E0828A4FF2FF731A408282EE
:100BA0007047C1F308028280704701468888C0F30D
:100BB00008007047028A4FF6F0731A400282028AD8
:100BC0000A430282704721B1828942F00202828187
:100BD00004E082894FF6FD731A4082817047828952
:100BE0004FF2FF731A40828182890A4382817047E3
:100BF000028A4FF6DF731A400282028A0A43028297
:100C0000704721B1028A42F48042028204E0028AE3
:100C10004BF6FF731A4002827047818941F001014F
:100C20008181704721B1828A42F00802828204E009
:100C3000828A4FF6F7731A4082827047028BD2B2D3
:100C40000283028B42EA01220283704721B1828A29
:100C500042F02002828204E0828A4FF6DF731A405B
:100C60008282704721B1828A42F01002828204E0BF
:100C7000828A4FF6EF731A4082827047828A4FF65B
:100C8000FB731A408282828A0A438282704721B1B2
:100C9000828A42F00202828204E0828A4FF6FD7369
:100CA0001A40828270471AB1838A0B43838202E022
:100CB000838A8B4383827047F0B503460024002665
:100CC0000025002040F66A17B94200D100BF18463F
:100CD000C1F3421401F01F06012707FA06F5012CA3
:100CE00001D10C3004E0022C01D1103000E01430AE
:100CF0001AB107682F43076002E00768AF43076037
:100D0000F0BD02460020B1F5007F00D100BF13887E
:100D10000B400BB1012000E00020704701F400728D
:100D2000B2F5007F00D100BFCA430280704770B5A2
:100D30000246002400230025002040F66A16B14236
:100D400000D100BFC1F3421501F01F03012606FACE
:100D500003F3012D02D19689334006E0022D02D122
:100D6000168A334001E0968A33400C12012606FAB7
:100D700004F41688344013B10CB1012000E00020C7
:100D800070BD0000001001400044004000480040D9
:100D9000004C0040005000400014014010B50022FB
:100DA000002340F66A14A14200D100BF0A120124B8
:100DB0009440A3B2DC43048010BD0000016821F020
:100DC000010101600021016041608160C160016139
:100DD00021214161DB49884204D13D21D94A103AA1
:100DE00091608CE0D7491831884205D14FF4746185
:100DF000D44A103A916082E0D2493031884205D11C
:100E00004FF47411CF4A103A916078E0CD494831DF
:100E1000884205D14FF07461CA4A103A91606EE081
:100E2000C8496031884204D1C749C64A103AD160E6
:100E300065E0C4497831884204D1C449C14A103AB6
:100E4000D1605CE0BF499031884204D1C049BD4ABD
:100E5000103AD16053E0BB49A831884205D14FF028
:100E60003D51B84A103AD16049E0BA49884204D1AC
:100E70003D21B84A083A116041E0B649183188422C
:100E800005D14FF47461B34A083A116037E0B149B3
:100E90003031884205D14FF47411AE4A083A1160DE
:100EA0002DE0AC494831884205D14FF07461A94A20
:100EB000083A116023E0A7496031884204D1A24971
:100EC000A44A121F11601AE0A2497831884204D165
:100ED0009E49A04A121F116011E09E49903188423C
:100EE00004D19B499B4A121F116008E09949A8311F
:100EF000884204D14FF03D51964A121F116070474D
:100F000010B500220268944B1A40CC680B6823434A
:100F10004C6923438C692343CC6923430C6A2343E4
:100F20004C6A23438C6A23434C6B23438C6B2343CF
:100F30001A430260426922F00702D1E90B342343CD
:100F40001A4342610B6943604B6883608B68C360DE
:100F500010BD0021016041608160C160016141619B
:100F60008161C161016241628162C1620163416369
:100F70008163704721B1026842F00102026003E020
:100F8000026822F001020260704721B1026842F457
:100F90000042026003E0026822F4004202607047EF
:100FA00021B1026842F02002026003E0026822F0F0
:100FB000200202607047416070470146486880B275
:100FC000704722B1036843F40023036003E0036821
:100FD00023F4002303600161704721B1026842F4E9
:100FE0008022026003E0026822F4802202607047DF
:100FF0000AB1016100E0C1607047014600200A6843
:1010000002F400220AB1012000E0002070470146EE
:1010100000200A6802F001020AB1012000E000206D
:101020007047014600204A6902F03800704730B529
:1010300003460A4600200024464DAB4202D24149F5
:10104000103901E04349103902F000550DB14C68E8
:1010500000E00C68414D2C4004EA02050DB101206E
:1010600000E0002030BD02463A4B9A4202D2354899
:10107000103801E03748103801F000531BB1374BEE
:101080000B40C36002E0354B0B408360704710B5E6
:1010900001F080034BB122B1436943F08003436107
:1010A00003E0436923F08003436180290BD02AB118
:1010B000036801F01E042343036004E0036801F0A9
:1010C0001E04A343036010BD70B502460020002437
:1010D0000025204EB24202D21A4B103B01E01D4BBC
:1010E000103B1F4E0E4036B11E2606EAD12416686C
:1010F00006EA040502E0566906F0800501F0005694
:101100000EB15C6800E01C68144E344004EA01062D
:1011100016B10DB1012000E0002070BD02460D4B5C
:101120009A4202D20748103801E00A48103801F00C
:1011300000531BB1094B0B40C36002E0074B0B404F
:1011400083607047106002403D000020400F002087
:1011500000003D20106402403F801CF07D0F7D0F99
:101160003C0F3C0F10B501210802FFF787FB00215F
:101170004FF48070FFF782FB10BD30B502460020AF
:1011800000235068F84C20400D790C6844EA05248F
:10119000204350609068F54C2040D1E903542C4323
:1011A0008D682C434D7944EA450420439060D06A11
:1011B00020F470000C7D641EE4B2234340EA035027
:1011C000D06230BD00210160017141718160C16058
:1011D00001610121017570470021E54A1168E54A66
:1011E0001140D0E900231A4383681A43C3681A43A5
:1011F0001143E14AC2F804137047002101604160C5
:101200008160C160704721B1826842F00102826052
:1012100003E0826822F00102826070470A460021E2
:101220004168D64B19401143416070474162826268
:1012300070470A460021416821F01F0111434160B7
:10124000704738B1CA49096841F40001CA4AC2F876
:10125000041306E0C649096821F40001C64AC2F831
:101260000413704738B1C249096841F48001C24A89
:10127000C2F8041306E0BE49096821F48001BE4AA1
:10128000C2F804137047F0B504460D460020002153
:10129000092D11DDE068A5F10A0606EB46070726D1
:1012A00006FA07F18843A5F10A0606EB460603FA9B
:1012B00006F10843E0600CE0206905EB45070726CE
:1012C00006FA07F1884305EB450603FA06F10843E1
:1012D0002061072A0FDA606B561E06EB86071F2671
:1012E00006FA07F18843561E06EB860605FA06F154
:1012F0000843606322E00D2A0FDA206BD61F06EB4D
:1013000086071F2606FA07F18843D61F06EB8606D6
:1013100005FA06F10843206310E0E06AA2F10D0629
:1013200006EB86071F2606FA07F18843A2F10D0691
:1013300006EB860605FA06F10843E062F0BD816817
:1013400041F0804181607047014600208A6802F4C4
:1013500080020AB1012000E00020704721B18268BC
:1013600042F48062826003E0826822F480628260DC
:10137000704721B1826842F00202826003E0826815
:1013800022F002028260704710B50A460021002355
:10139000416821F46041531E41EA4331416010BD70
:1013A00021B1426842F40062426003E0426822F4E4
:1013B0000062426070470146C86C80B270476C485A
:1013C000001D0068704721B1826842F4807282601B
:1013D00003E0826822F480728260704721B18268E3
:1013E00042F40072826003E0826822F4007282603C
:1013F000704738B15E49096841F400515E4AC2F84D
:10140000041306E05A49096821F400515A4AC2F807
:1014100004137047F0B5044615460020002200264C
:10142000092911DDE068A1F10A0707EB470C07273E
:1014300007FA0CF29043A1F10A0707EB470703FAFA
:1014400007F21043E0600CE0206901EB410C072734
:1014500007FA0CF2904301EB410703FA07F210433D
:101460002061A06BC0F30156EF1C06F1010CA7EB45
:101470000C0707EB870C1F2707FA0CF29043EF1CB1
:1014800006F1010CA7EB0C0707EB870701FA07F23F
:101490001043A063F0BD10B50A4600210023816B04
:1014A00021F44011531E41EA0351816310BD08B578
:1014B000002300930090009B0B440093009B1A6054
:1014C00008BD0A460021816821F470211143816022
:1014D00070470A460021816821F440111143816060
:1014E0007047816841F480018160704701460020A7
:1014F0008A6802F480020AB1012000E000207047EF
:1015000021B1426842F48062426003E0426822F402
:1015100080624260704721B1426842F4805242606A
:1015200003E0426822F480524260704708B50246E8
:1015300000200090009201F12800009B18440090C8
:101540000098006880B208BD10B50B460021D9B2E2
:10155000012404FA01F11AB144680C43446002E02A
:1015600044688C43446010BDFFFEFFFCFDF7FFC0E4
:1015700004230140E030FCFF00200140FFFD3FFF5D
:101580000246002013680B400BB1012000E0002050
:101590007047CA430260704770B5024600200023BE
:1015A00000240B12556801268E4005EA06041568D2
:1015B0001D4015B10CB1012000E0002070BD0022DB
:1015C0000A12D3430360704732490143324A116023
:1015D000704770B5002100230F22C4781CB32E4C35
:1015E000246804F4E064C4F5E064C4F30721C1F1A5
:1015F0000404E3B20A4144789C40E1B28478144088
:1016000021430C07210E254C05786155047804F020
:101610001F050124AC4005786D11AD0005F1E025F2
:10162000C5F8004109E0047804F01F050124AC402E
:101630001B4D0678761145F8264070BD194A0A40C0
:101640000243154B1B1F1A60704739B1124A121D15
:1016500012680243104B1B1D1A6006E00E4A121D51
:10166000126882430C4B1B1D1A607047042808D176
:101670004FF0E021096941F004014FF0E0221161CF
:1016800007E04FF0E021096921F004014FF0E0226A
:10169000116170470000FA050CED00E000E400E085
:1016A00080E100E080FFFF1F30B943F2DB028100E0
:1016B000A1F1C0410A6005E043F2D2028100A1F12C
:1016C000C0410A606FF07042411C8900A1F1C04125
:1016D0000A608100A1F1C041C1F804217047D0E93E
:1016E00001121143C2681143026911434269114357
:1016F00082691143C2691143026A1143426A11436C
:10170000826A1143C26A1143026B1143026892005C
:10171000A2F1C0421160816808290BD101688900DB
:10172000A1F1C041096841F0400201688900A1F1BE
:10173000C0410A60416B0968426B526841EA02117C
:10174000426B926841EA0221426B928941EA02416E
:10175000426B128A41EA0251426B127D41EA0261F8
:10176000426B926911430268521C9200A2F1C0427E
:101770001160C16AB1F5804F1BD1816B0968826B22
:10178000526841EA0211826B926841EA0221826B3F
:10179000128A41EA0251826B127D41EA0261826B38
:1017A0009269114302689200A2F1C042C2F804118A
:1017B00007E06FF0704201688900A1F1C041C1F8F3
:1017C00004217047002101600221416000218160F5
:1017D000C160016141618161C16101624FF4805169
:1017E0004162490081620021C16201630F21426BA5
:1017F0001160426B5160FF21426B91600F21426B7F
:10180000D160426B1161426B51610021426B916169
:101810000F21826B1160826B5160FF21826B91609E
:101820000F21826BD160826B1161826B516100214B
:10183000826B9161704751B18200A2F1C04212687F
:1018400042F001038200A2F1C042136009E082006D
:10185000A2F1C0421268F94B1A408300A3F1C043C1
:101860001A60704710280AD118214FF020421166E3
:10187000402151664FF0FC319166D16610E018218D
:10188000EF4A116040214FF02042C2F884104FF01F
:10189000FC31EB4A083211604FF02042C2F88C1044
:1018A000704730B5002100220023446844F008044A
:1018B00085682C43C5682C4305692C43456944EA77
:1018C0004524856944EA4531C4692468C5696D6861
:1018D00044EA0524C5692D8944EA0544C5692D7B80
:1018E00044EA0562046A2468056A6D6844EA0524CE
:1018F000056A2D8944EA0544056A2D7B44EA05639F
:101900000468102C05D14FF020442166A266E366DE
:1019100008E0CB4C21604FF02044C4F88820C84C2C
:101920000C34236030BD10210160002141608160D2
:10193000C160016141618161FC21C2691160C269BC
:101940005160C2699160C269D160026A1160026A25
:101950005160026A9160026AD160704799B11028A3
:1019600008D14FF02042126E42F004024FF02043A3
:101970001A661DE0B24A126842F004024FF020439A
:10198000C3F8802014E0102809D14FF02042126ED5
:10199000AA4BDB1E1A404FF020431A6608E0A84A03
:1019A0001268A64BDB1E1A404FF02043C3F880207C
:1019B000704799B1102808D14FF02042126E42F0C2
:1019C00040024FF020431A661DE09D4A126842F023
:1019D00040024FF02043C3F8802014E0102809D1C2
:1019E0004FF02042126E954B3F3B1A404FF0204380
:1019F0001A6608E0924A1268904B3F3B1A404FF03B
:101A00002043C3F88020704701460020102903D1ED
:101A10004FF02042506F02E0894A1432106870473C
:101A2000182087492031086000200906C1F8A40069
:101A30004FF0FC30824928310860091D0860091DFB
:101A400008607047016841F01001426841EA422194
:101A5000826841EA42317A4A20321160C1680968DD
:101A6000C268526841EA0221C268128941EA024111
:101A7000C268127B41EA0261714A28321160016931
:101A800009680269526841EA02210269128941EA41
:101A900002410269127B41EA0261694A2C321160FB
:101AA000416909684269526841EA02214269128922
:101AB00041EA02414269127B41EA02614FF0204251
:101AC000C2F8B01070470021016041608160FC21C4
:101AD000C2681160C2685160C2689160C268D1601A
:101AE0000269116002695160026991600269D16006
:101AF0004269116042695160426991604269D160F6
:101B0000704748B14E492031096841F004014FF057
:101B10002042C2F8A01009E0494920310968474A2B
:101B2000D21E11404FF02042C2F8A010704710B5ED
:101B3000F2B1102807D14FF020435B6E0B434FF0FA
:101B40002044636632E0B0F5807F08D13C4B1B1D1A
:101B50001B680B434FF02044C4F8843026E0384B18
:101B600024331B680B434FF02044C4F8A4301DE01D
:101B7000102807D14FF020435B6E8B434FF0204479
:101B8000636613E0B0F5807F08D12D4B1B1D1B68E9
:101B90008B434FF02044C4F8843007E0284B2433B3
:101BA0001B688B434FF02044C4F8A43010BD10B51F
:101BB000024600200023102A03D14FF02044636E18
:101BC00009E0B2F5807F03D11D4C241D236802E09B
:101BD0001B4C2434236803EA01040CB1012000E00B
:101BE000002010BD102807D14FF02042526E8A43CA
:101BF0004FF020435A6613E0B0F5807F08D1104AB9
:101C0000121D12688A434FF02043C3F8842007E076
:101C10000B4A243212688A434FF02043C3F8A420B1
:101C2000704770B502460020002300240025102ACA
:101C300008D14FF02046736E0DE00000FEFF0F004C
:101C4000800000A0B2F5807F02D1184E336802E018
:101C5000164E2036336803EA010403EAD10514B1B5
:101C60000DB1012000E0002070BD102808D14FF018
:101C70002042526E22EAD1024FF020435A6614E00D
:101C8000B0F5807F08D1094A126822EAD1024FF0EC
:101C90002043C3F8842008E0044A2032126822EA74
:101CA000D1024FF02043C3F8A4207047840000A065
:101CB00010B50121C802FEF7E1FD00214FF40060DC
:101CC000FEF7DCFD10BD0021714A116847F6FF6286
:101CD0009143027D83681A4343681A43C3681A43D9
:101CE00003681A4303691A431143694A1160704734
:101CF00000210175016041608160C1600161704730
:101D00006449086070476249091F096821F00301AE
:101D10005F4A121F11601146096801431160704744
:101D20005B48001F006800F0030070470021584B1B
:101D30001B1D02681A601A1D11686FF30A01D0E9B1
:101D400001231A43C3681A4303691A431143504AD3
:101D50000832116070470021016041608160C160FC
:101D6000016170474A480C300068C0B2704708B53E
:101D7000014600200090464810300844009000982A
:101D8000006808BD0021424B203302681A601B1D09
:101D900042681A601A1D116821F0F701D0E9022388
:101DA0001A4303691A4343691A431143384A2832D4
:101DB000116070474FF0FF31016000214160816088
:101DC000C16001614161704731482C300068704743
:101DD0002F487C30006870472D497C31086070477F
:101DE0002B484430006870472B49086070472A49E7
:101DF000091D086070472849083108607047264966
:101E00000C31086070472549086070472349091D57
:101E10000860704701218143204A083211607047F1
:101E20001E490C31086070471B491439086070471F
:101E300039B1174A383212680243154B38331A60E9
:101E400006E0134A383212688243114B38331A6065
:101E50007047014600200E4A303212680A400AB12B
:101E6000012000E0002070470949343108607047C4
:101E700001460020064A303212680A400AB10120A9
:101E800000E00020704702493431086070470000CC
:101E9000042C0140A0802542A0852542AC8125422A
:101EA00010B50446FE48844208D101210846FEF7D9
:101EB000E5FC00210120FEF7E1FC9DE0B4F1804F3C
:101EC00008D101210846FEF7C8FC00210120FEF7D9
:101ED000C4FC91E0F348844208D101210220FEF7BE
:101EE000BCFC00210220FEF7B8FC85E0EE488442ED
:101EF00008D101210420FEF7B0FC00210420FEF7E8
:101F0000ACFC79E0E948844208D101210820FEF7C1
:101F1000A4FC00210820FEF7A0FC6DE0E448844208
:101F200008D101211020FEF798FC00211020FEF7B7
:101F300094FC61E0DF48844208D101212020FEF7B3
:101F40008CFC00212020FEF788FC55E0DA48844212
:101F500008D101210220FEF791FC00210220FEF7AA
:101F60008DFC49E0D548844209D101210804FEF7DF
:101F700085FC00214FF48030FEF780FC3CE0D04827
:101F8000844209D101214804FEF778FC00214FF476
:101F90000030FEF773FC2FE0CA48844209D10121CA
:101FA0008804FEF76BFC00214FF48020FEF766FCEE
:101FB00022E0C548844208D101214020FEF74DFCB3
:101FC00000214020FEF749FC16E0C048844208D1B9
:101FD00001218020FEF741FC00218020FEF73DFC1E
:101FE0000AE0BB48844207D101218015FEF735FC89
:101FF0000021A015FEF731FC10BD00220288A84B7D
:1020000098420ED0AC4B98420BD0B0F1804F08D024
:10201000A44B984205D0A44B984202D0A34B9842BF
:1020200004D14FF68F731A404B881A43A04B984245
:1020300007D0A04B984204D04FF6FF431A400B89BB
:102040001A4302804B68C3620B880385944B984205
:1020500002D0994B984201D18B7A03860123838267
:1020600070474FF0FF3141600021018001814180C4
:10207000817270470185828270470A46002101887B
:102080004FF68F73194011430180704741627047CA
:10209000C16270470146486A70470146088D704723
:1020A00021B1028842F00202028004E002884FF669
:1020B000FD731A400280704721B1028842F0040289
:1020C000028004E002884FF6FB731A4002807047DA
:1020D00021B1028842F08002028004E002884FF6BB
:1020E0007F731A400280704702884FF6F7731A40D8
:1020F000028002880A430280704702884FF6FF433D
:102100001A40028002880A430280704721B1028887
:1021100042F00102028004E002884FF6FE731A408A
:102120000280704770B5002400220023058C4FF612
:10213000FE7635400584028C8388048B4FF68F75BC
:102140002C40B51E2C400D882C43751E2A408D89CD
:102150002A434D882A43524DA84202D0564DA842E8
:1021600013D14FF6F7752A40CD892A434FF6FB75F8
:102170002A408D882A434FF6FF652B404FF6FF55C6
:102180002B400D8A2B434D8A2B43838004838D681B
:102190004563028470BD70B5002400220023058CC5
:1021A0004FF6EF7635400584028C8388048B48F621
:1021B000FF752C404FF6FF452C400D884FF6FF76FB
:1021C00006EA05252C434FF6DF752A408D8906EA7D
:1021D00005152A434D8806EA05152A43304DA842C5
:1021E00002D0354DA8421DD14FF67F752A40CD89CA
:1021F0004FF6FF7606EA05152A434FF6BF752A40CB
:102200008D8806EA05152A434FF6FF352B404FF21D
:10221000FF752B400D8A06EA85052B434D8A06EA99
:1022200085052B43838004838D688563028470BD9C
:1022300070B5002400220023058C4FF6FF66354060
:102240000584028C8388848B4FF68F752C404FF663
:10225000FC752C400D882C434FF6FF552A408D8984
:102260004FF6FF7606EA05252A434D8806EA05253E
:102270002A430B4DA84202D00F4DA84238D14FF24D
:10228000FF752A40CD894FF6FF7606EA05252A43D9
:102290004FF6FF352A408D8806EA05252A4319E0C6
:1022A000000001400004004000080040000C004015
:1022B00000100040001400400004014000400140B4
:1022C000004401400048014000180040001C00404C
:1022D000002000404EF6FF752B404DF6FF752B4059
:1022E0000D8A06EA05152B434D8A06EA05152B4390
:1022F000838084838D68C563028470BD70B50022BD
:1023000000230024058C4EF6FF7635400584038CAF
:102310008488828B48F6FF752A404FF6FF452A4095
:102320000D884FF6FF7606EA05252A434DF6FF7520
:102330002B408D8906EA05352B434D8806EA053585
:102340002B43FE4DA84202D0FD4DA84208D14BF6CA
:10235000FF752C400D8A4FF6FF7606EA85152C4353
:10236000848082838D680564038470BD00210180B0
:102370004180818081608181C18101824182704779
:1023800070B50346002000241846183001258D4002
:10239000ACB21D8CA5431D8409B108290AD100EBFC
:1023A000610005684FF68F76354005600568154376
:1023B00005600FE00D1FC5F34E052844056848F67B
:1023C000FF763540056005684FF6FF7606EA02267F
:1023D0003543056070BD4163704781637047C163D9
:1023E0007047016470470A460021018B4FF68F73D6
:1023F00019401143018370470A460021018B48F6BA
:10240000FF7319404FF6FF7303EA02231943018358
:1024100070470A460021818B4FF68F731940114394
:10242000818370470A460021818B48F6FF7319406B
:102430004FF6FF7303EA02231943818370470A466C
:102440000021018B4FF6F773194011430183704748
:102450000A460021018B4FF2FF7319404FF6FF73BC
:1024600003EA02231943018370470A460021818B46
:102470004FF6F77319401143818370470A460021D4
:10248000818B4FF2FF7319404FF6FF7303EA02236B
:102490001943818370470A460021018B4FF6FB7375
:1024A00019401143018370470A460021018B4FF602
:1024B000FF3319404FF6FF7303EA022319430183E8
:1024C00070470A460021818B4FF6FB731940114378
:1024D000818370470A460021818B4FF6FF331940F4
:1024E0004FF6FF7303EA02231943818370470A46BC
:1024F0000021018B4FF67F73194011430183704710
:102500000A460021018BC1F30E014FF6FF7303EA67
:1025100002231943018370470A460021818B4FF63D
:102520007F7319401143818370470A460021818BD4
:10253000C1F30E014FF6FF7303EA022319438183AF
:1025400070470A460021018C4FF6FD731940114374
:10255000018470470A460021018C4FF6F773194039
:102560001143018470470A460021018C4FF6DF7346
:1025700019404FF6FF7303EA0213194301847047B1
:102580000A460021018C4FF67F7319404FF6FF7306
:1025900003EA02131943018470470A460021018CA3
:1025A0004FF6FF5319404FF6FF7303EA0223194316
:1025B000018470470A460021018C4FF2FF731940D5
:1025C0004FF6FF7303EA02231943018470470A465A
:1025D0000021018C4DF6FF7319404FF6FF7303EA9B
:1025E000023319430184704730B5002301248C4025
:1025F000A3B2048C9C430484048C02FA01F5ADB2AE
:102600002C43048430BD30B5002304248C40A3B295
:10261000048C9C430484048C02FA01F5ADB22C4373
:10262000048430BD828B4FF2FF331A408283828B49
:102630004FF6FF7303EA01231A4382837047F0B514
:102640000C461546002100220026078C4EF6FF7C22
:1026500007EA0C070784818B028C4FF6FF7707EAA5
:10266000043640F6FF4739404FF6FF7707EA052763
:1026700039434FF6FF7707EA0337394345F6FF77CB
:102680003A4046F480573A4381830284F0BD828BFE
:102690004FF6F3731A408283828B0A43828370471A
:1026A000F0B50C461546002100220026078C4FF697
:1026B000FF6C07EA0C070784818B028C4FF6FF77CB
:1026C00007EA04264FF60C7739404FF6FF7707EA02
:1026D00003172F4339434FF2FF573A4046F48077B0
:1026E0003A4381830284F0BD028B4FF2FF331A40DC
:1026F0000283028B4FF6FF7303EA01231A4302831E
:102700007047F0B50C461546002100220026078CC4
:102710004FF6EF7C07EA0C070784018B028C4FF61B
:10272000FF7707EA041640F6FF4739404FF6FF7778
:1027300007EA033739434FF6FF7703E00000014013
:102740000004014007EA052739434FF65F773A4016
:1027500046F010073A4301830284F0BD028B4FF626
:10276000F3731A400283028B0A4302837047F0B569
:102770000C46154600210022068C4FF6FE773E409F
:102780000684018B028C4FF60C7631407E1C06EAE3
:1027900003162E4331434FF6F576324044F00106DE
:1027A000324301830284F0BD70B505460C46208893
:1027B00050B92389A28861882846FFF7D8FFE188AD
:1027C0002846FFF7CBFF25E0208804280AD123897B
:1027D000A28861882846FFF794FFE1882846FFF722
:1027E00083FF17E0208808280AD12389A2886188FE
:1027F0002846FFF755FFE1882846FFF748FF09E024
:102800002389A28861882846FFF719FFE1882846B6
:10281000FFF708FF70BD0021018041800121818008
:102820000021C180018170472DE9F04105460C4629
:1028300000260127608808B9022600E00026A0884B
:10284000012801D1022700E001272088A0B92389AF
:10285000A28861882846FFF78AFFE1882846FFF7AB
:102860007DFF23893A4631462846FFF74AFFE18833
:102870002846FFF739FF13E02389A288618828469C
:10288000FFF73FFFE1882846FFF72EFF23893A46EE
:1028900031462846FFF76BFFE1882846FFF75EFFC9
:1028A000BDE8F0810146486B70470146886B704770
:1028B0000146C86B70470146086C70470A884B8810
:1028C0001A438B881A43CB881A430B891A434B89C6
:1028D0001A438B891A43A0F84420704700210180D5
:1028E00041808180C180018141818181704731B106
:1028F000B0F8442042F40042A0F8442005E0B0F8CB
:102900004420C2F30E02A0F84420704721B182880F
:1029100042F00402828004E082884FF6FB731A4082
:102920008280704721B1828842F00102828004E0F7
:1029300082884FF6FE731A40828070471AB18389ED
:102940000B43838102E083898B43838170478182BB
:10295000704702460020138A0B400BB1012000E0B3
:1029600000207047CA430282704730B502460020FB
:1029700000230024158A05EA0103958905EA01046C
:1029800013B10CB1012000E0002030BDCA43028227
:10299000704741EA0203A0F8483070471AB18389B2
:1029A0000B43838102E083898B438381704721B18C
:1029B000828842F00802828004E082884FF6F77332
:1029C0001A408280704701894FF6F87211400181E8
:1029D00070470A46002101894FF68F731940114351
:1029E0000181704730B504460D4629462046FFF761
:1029F000F0FF208940F00700208130BD2DE9F04133
:102A000004460D4616461F46602D06D13B46012260
:102A100031462046FFF775FE05E03B460122314670
:102A20002046FFF7A4FE29462046FFF7D2FF208963
:102A300040F007002081BDE8F08130B50C46002150
:102A40000189C9B24FF6FF7505EA032515432543F1
:102A50002943018130BD2DE9F04105460E46174658
:102A60009846002443463A4631462846FFF7E5FF9C
:102A70002C894FF6F870044044F007044FF68F702D
:102A8000044044F070042C81BDE8F081F0B50446A8
:102A90000D4616461F463B46324629462046FFF75E
:102AA000CCFF208940F480402081F0BD82884FF621
:102AB0008F731A40828082880A438280704702891D
:102AC0004FF6F8731A40028102890A430281704767
:102AD00002894FF67F731A40028102890A430281FC
:102AE0007047F0B50C4615461E4600210022002313
:102AF0000189028B038C4FF6F877394021434FF65A
:102B0000FC473A4040F201173A434FF6DD773B402D
:102B10004FF6FF7707EA06172F433B4301810283F5
:102B20000384F0BD21B1828842F08002828004E0FB
:102B300082884FF67F731A4082807047A0F8501049
:102B4000704700000CB50020019000906B480068B1
:102B500040F480306949086000BF6848006800F4AC
:102B6000003000900198401C0190009818B901981D
:102B7000B0F5A06FF1D16148006800F4003010B1E9
:102B80000120009001E0002000900098012838D139
:102B90005A480830006859490831086008460068FA
:102BA00040F4004008600846006840F4A050086007
:102BB0005348091F0860081F006840F08070091F13
:102BC000086000BF4D48006800F000700028F9D090
:102BD00040F203704B49086048480830006820F014
:102BE00003004649083108600846006840F00200CA
:102BF000086000BF41480830006800F00C00082859
:102C0000F8D10CBD10B53D48006840F001003B49CB
:102C100008600020394908310860384800683A499E
:102C20000840364908603948091D0860081F0068D7
:102C300020F48020091F0860002030490C31086012
:102C4000FFF780FF4FF000603149086010BD70B59C
:102C500000200022022300240221284D08352D687F
:102C600005F00C0020B1042806D0082834D107E074
:102C7000284D294E356033E0284D274E35602FE032
:102C80001E4D2D1D2D68C5F380541C4D2D1D2D6826
:102C900005F03F0154B1214DB5FBF1F5174E361D3E
:102CA0003668C6F3881605FB06F209E0194DB5FB38
:102CB000F1F5124E361D3668C6F3881605FB06F28E
:102CC0000E4D2D1D2D68C5F301456D1C6B00B2FB2B
:102CD000F3F5114E356003E00E4D0F4E356000BF29
:102CE00000BF064D08352D68C5F303150C4E705D09
:102CF000094D2D68C540084E356070BD0038024052
:102D0000193C4005003C0240FFFFF6FE1030002455
:102D100008ED00E00024F4001000002040787D0160
:102D20001400002086B000F097FB0FF04FFFC82082
:102D300000F0E7FA022006F055FA08F0F7F88448A8
:102D40000078002870D108F0CBFC82480078092870
:102D50000CD1512007F0D3FD7F231A46194653208A
:102D600007F008FE0AF026FF0AF037FF7AA00AF003
:102D700084FC012804D17A4800787A49087017E069
:102D8000212007F018FB022007F015FB764A518836
:102D9000108876A20AF006FB012809D17048007855
:102DA00070490870704A5188108873A20AF0FAFAC4
:102DB00000207449087074480078A0B973480078FE
:102DC00088B97348007870B97248007858B9724869
:102DD000007840B97148007828B97148007810B976
:102DE00007F0D5FC43E06848007801283FD06B48E5
:102DF000007801283BD0012007F081FD00231A460E
:102E00001946722007F0B6FD60480078012803D10A
:102E100064A007F022FC2AE05D480078012804D174
:102E200064A007F01AFC22E01AE05A480078012852
:102E300003D162A007F011FC19E05748007801287F
:102E400006D100231A461946562007F093FD0EE0DE
:102E50005348007801280AD15AA007F0FEFB06E08B
:102E600001200AF056FB3E4800783E490870584859
:102E700058490860584859490860594908605948F4
:102E80005949086059485A4908600846006814F0D2
:102E900095FF04460D465248006814F08FFF064621
:102EA0000F464E48006814F089FF8046894649481D
:102EB000006814F083FF824652460B464D48CDE928
:102EC0000089CDE90267CDE9044515F0BBFC464811
:102ED000006814F073FFCDE9040100214FF0804039
:102EE000CDE902100A460346CDE90010424815F02C
:102EF000A9FC4FF03332414B41A015F0A3FC4A4AE4
:102F00004A4B4BA015F09EFC022006F076F952A029
:102F100015F098FC5548006814F0E1FE0746544946
:102F200014F017FD044614F049FF05462A460B46E7
:102F300050A015F087FC5BA015F084FC07E00BF0B7
:102F4000ECFF0AF07EFE00F065FE00F0B7F8F6E751
:102F500053000020240000204450542E626D700065
:102F6000A7000020A80000204C010020445054314C
:102F70002E626D7000000000445054322E626D705D
:102F800000000000D9000020DD000020DE0000204D
:102F9000DF000020E0000020E1000020E20000202F
:102FA000E3000020534443415244204552524F52C3
:102FB000000000005445204E4700000050574D20AF
:102FC0004E47000046504741204552524F520000A4
:102FD00000001C42000100200000604104010020AC
:102FE00008010020000018420C01002000002842C7
:102FF0001001002078B3010818B3010833330340EF
:1030000043555252454E542053504543202D3E20A7
:1030100064696D3A204C4544415F4D4158203D2044
:10302000252E32663B0D0A009A9999999999F93F94
:1030300043555252454E542053504543202D3E2077
:1030400064696D3A204C4544415F4D494E203D2016
:10305000252E32663B0D0A000D0A4D61696E206C0B
:103060006F6F702E2E2E0D0A000000005C000020F5
:1030700000007A440D0A3D3D3D3D3D205379737477
:10308000656D206F6E2074696D6520656C6170736D
:1030900065643A20252E3366287365636F6E642954
:1030A0000D0A00000D0A2A232A2353595354454D73
:1030B000204F4B232A232A0D0A00000010B5464852
:1030C000007801282CD10020434908700120434991
:1030D000087043480078401C414908700846007851
:1030E0000A281DDB0020087001203E4908703E4878
:1030F0000078401C3C490870084600780A280FDB1D
:103100000020087001203949087039480078401CB7
:103110003749087008460078032801DB0020087052
:103120002E48007828B300202C4908702C480078DD
:103130000A281CD2DFE800F0050A0D121516171830
:10314000191A06F09CF82B49087011E006F01BF9DB
:103150000EE006F044FA2849087009E006F051FB39
:1031600006E005E004E003E002E001E000E000BF6B
:1031700000BF1C480078D8B100201A4908701A48CE
:1031800000780A2812D2DFE800F00508090A0B0CC3
:103190000D0E0F1006F0E9F909E008E007E006E07F
:1031A00005E004E003E002E001E000E000BF00BF52
:1031B0000E48007878B100200C4908700C4800785F
:1031C00020B1012803D0022803D101E002E001E090
:1031D00000E000BF00BF10BD580000202800002004
:1031E0002500002029000020260000202A000020C1
:1031F00027000020A4000020A5000020704700BF89
:10320000FEE700BFFEE700BFFEE700BFFEE7704736
:103210007047704710B500F08EF810BD10B500F083
:10322000E1FC10BD10B500F0E9FC10BD10B502F0D6
:10323000E5F910BD10B502F0EFF910BD10B502F0C0
:10324000FFF910BD10B50AF02EF810BD10B50AF048
:103250004FF810BD70B502E03BA015F0F3FA4248FC
:103260000068424AB0FBF2F1B1F1807F01D3012046
:103270001DE021F07F40401E4FF0E02250615017CA
:103280000F22002807DA13071D0E394B00F00F0438
:10329000241F1D5503E013071C0E364B1C5400BFA2
:1032A00000204FF0E02290610720106100200028EC
:1032B000D2D12D48016830A015F0C4FA4FF0E020BB
:1032C000006920F001004FF0E021086170BD01B5F8
:1032D0003049009808604FF0E020006940F001009C
:1032E0004FF0E021086100BF2A4800680028FBD1A8
:1032F0004FF0E020006920F001004FF0E02108616C
:1033000008BD10B50246144605E04FF47A70FFF789
:10331000DEFF601E84B2002CF7D110BD30B504462C
:10332000254605E04FF47A70FFF7EBFF681E85B283
:10333000002DF7D130BD1748006820B1154800684E
:10334000401E1449086070470D0A2052656C6F6179
:10335000642076616C756520696D706F7373696246
:103360006C6521200D0A00001000002040420F0073
:1033700018ED00E000E400E00D0A53797374656D08
:10338000436F7265436C6F636B203D202564487A00
:103390000D0A00002C00002008B54FF4C060FEF7B5
:1033A00013F91C208DF8000000208DF80100022088
:1033B0008DF8020001208DF803006846FEF709F938
:1033C0004FF4C060FEF700F91D208DF800000020CA
:1033D0008DF8010001208DF802008DF80300684689
:1033E000FEF7F7F84FF4C060FEF7EEF81E208DF8F8
:1033F000000000208DF8010001208DF802008DF8FA
:1034000003006846FEF7E5F84FF4E060FEF7DCF8ED
:1034100025208DF8000000208DF8010002208DF895
:10342000020001208DF803006846FEF7D2F84FF441
:10343000E060FEF7C9F834208DF8000000208DF818
:10344000010001208DF802008DF803006846FEF7A8
:10345000C0F809F060FF08BDF0B599B0F0206049F0
:10346000087060480078042805D15F485F4908600B
:103470005F486049086001210846FDF753F90121C2
:103480000220FDF74FF901210420FDF74BF901213E
:103490000820FDF747F901211020FDF743F901212C
:1034A0002020FDF73FF901214020FDF73BF900F016
:1034B0003EFA51A015F0C6F900F08DFA5DA015F0A6
:1034C000C1F902F04AF86448006814F008FC0746A5
:1034D000624914F03EFA044614F070FC05462A4690
:1034E0000B465FA015F0AEF9FFF7B4FE64A015F02F
:1034F000A9F9FFF751FF6CA015F0A4F902F004F848
:1035000072A015F09FF904F0C3FB79A015F09AF9A9
:103510000AF016FA4FF480617E48FCF71FFF01287D
:1035200006D17DA015F08EF901208249087005E0D2
:1035300081A015F087F900207E49087086A015F05B
:1035400081F905F031FE002005F057FE012005F05D
:1035500054FE022005F051FE88A015F073F905F025
:103560006BFE8EA015F06EF905F0F0F805F0ECF9A1
:1035700092A015F067F905F021F99BA015F062F90A
:1035800005F030FCA4A015F05DF905F008FBADA036
:1035900015F058F902F086F8B5A015F053F906F0C9
:1035A00017FE06F0B4FEB74815F04CF906F0D0F956
:1035B000B54815F047F907F069FDB4A015F042F9D8
:1035C000C2A2C7A101A815F04DF9C7A109A815F01D
:1035D00049F909A901A80AF0CEF819B0F0BD000018
:1035E0004801002024000020004C00403000002052
:1035F00000100140340000200D0A486F77206966F2
:1036000020746865207072696E7466206973206327
:10361000616C6C6564206265666F7265205541520D
:10362000543420696E697469616C697A65643F0D10
:103630000A0000000D0A555341525420636F6E6614
:10364000696775726174696F6E2069732072656154
:1036500064792E0D0A0000005C00002000007A440E
:103660000D0A54696D6572207469636B207374610F
:1036700072742E0D0A5B252E3366735D0D0A0000F1
:103680000D0A53797374656D205469636B20636F01
:103690006E66696775726174696F6E2069732072F6
:1036A000656164792E0D0A000D0A4E564943206368
:1036B0006F6E66696775726174696F6E20697320D9
:1036C00072656164792E0D0A000000000D0A5449EC
:1036D0004D45523220636F6E666967757261746919
:1036E0006F6E2069732072656164792E0D0A000087
:1036F0000D0A4144433320636F6E666967757261DA
:1037000074696F6E2069732072656164792E0D0A89
:1037100000000000000402400D0A2A232A2341551C
:10372000544F4C494E455F454E41424C45232A2358
:103730002A0D0A00530000200D0A2A232A2341558E
:10374000544F4C494E455F44495341424C45232A0E
:10375000232A0D0A000000000D0A5445535420632B
:103760006F6E66696775726174696F6E2069732028
:1037700072656164792E0D0A000000000D0A4C4547
:103780004420636F6E66696775726174696F6E203D
:1037900069732072656164792E0D0A000D0A4B452C
:1037A0005920636F6E66696775726174696F6E2008
:1037B00069732072656164792E0D0A000D0A506FDD
:1037C00077657220656E61626C6520636F6E6669F5
:1037D0006775726174696F6E2069732072656164C8
:1037E000792E0D0A000000000D0A49324320666F51
:1037F0007220545053363533313220636F6E666910
:103800006775726174696F6E206973207265616497
:10381000792E0D0A000000000D0A49324320666F20
:103820007220454550524F4D20636F6E6669677533
:10383000726174696F6E2069732072656164792E9C
:103840000D0A00000D0A49324320666F7220414480
:103850003739393420636F6E6669677572617469D0
:103860006F6E2069732072656164792E0D0A000005
:103870000D0A4D53452069732072656164792E0DE0
:103880000A0000001CB40108D8B301080D0A496EF3
:1038900074657266616365206265747765656E2024
:1038A00053544D33324632787820616E64204C4355
:1038B0004420636F6E66696775726174696F6E200C
:1038C00069732072656164792E0D0A00544C30369C
:1038D000354656584630312D30305F4736000000AF
:1038E00025732E786C7300000D0A4E6F09494F56F0
:1038F0004343095653500956534E094C4544410D14
:103900000A00000070B5044604F058FF1020FE497C
:103910000870204613F05CFFC5B220782A46611C6F
:1039200004F0C1FD4FF47A70FFF7EBFC70BD00B5F9
:1039300087B001211020FCF739FF07220921F34845
:10394000FCF735FD07220A21F048FCF730FD4FF463
:103950000070059002208DF8180000208DF81A00E4
:1039600001208DF81B0002208DF8190005A9E748F9
:10397000FCF792FC4FF48060059002208DF818004F
:1039800001208DF81B0005A9E048FCF785FC4FF4E9
:10399000E13001900020ADF80800ADF80A00ADF864
:1039A0000C00ADF810000C20ADF80E0001A9D848AD
:1039B000FDF744F840F22551D548FDF7EFF9012213
:1039C00040F22551D248FDF777F90121D048FDF7A3
:1039D000BDF807B000BD00B587B00121C804FCF7F1
:1039E000D4FE08220021C948FCF7E1FC082201218D
:1039F000C648FCF7DCFC0120059002208DF8180079
:103A000000208DF81A0001208DF81B0002208DF88F
:103A1000190005A9BD48FCF73FFC022005908DF870
:103A2000180001208DF81B0005A9B848FCF734FCEC
:103A30004FF4E13001900020ADF80800ADF80A0025
:103A4000ADF80C00ADF810000C20ADF80E0001A987
:103A5000B048FCF7F3FF40F22551AE48FDF79EF960
:103A6000012240F22551AB48FDF726F90121A94872
:103A7000FDF76CF807B000BD70B504460D46E1B225
:103A8000A5480068FDF78DF800BF8021A2480068B6
:103A9000FDF737F90028F8D0204670BD10B540F288
:103AA00025519D480068FDF72CF9012869D19A48F5
:103AB0000068FDF77AF8C4B29848007800285AD117
:103AC00097480078012815D196489749098820F829
:103AD00011409549098830F811004FF6FF7101EA4D
:103AE00000209049904A128821F8120000208C4949
:103AF00008700EE08C490A880988491C8A4B198095
:103B0000884901EB4200018821430180012084495A
:103B1000087085480088401E824931F8100041F243
:103B2000482188420ED180480088801E7D4931F8A6
:103B30001000B0F5706F05D10120784908700020A1
:103B40007949088078480088401E764931F810008D
:103B5000122810D1482C0ED1012070490870002085
:103B60007149088001206E490870002005F03AFB79
:103B7000012005F037FB40F2255167480068FDF74A
:103B80000DF910BD10B540F2255168480068FDF7E9
:103B9000B8F8012825D165480068FDF706F8C1B2DC
:103BA000634802880088401C614B1880614881543A
:103BB00018460088401E5F49085C0A280BD1184649
:103BC0000088801E085C0D2805D100201946088059
:103BD00001205949087040F2255154480068FDF70A
:103BE000DDF810BD10B54C4800684949884202D143
:103BF000FFF754FF01E0FFF7C5FF10BD10B54B48BC
:103C000000684349884202D1FFF748FF01E0FFF70F
:103C1000B9FF10BD00B597B048480078012819D108
:103C2000474803784748027847480178002006F063
:103C3000A1FE46480088FFF764FB454803784548E5
:103C4000027845480178002006F094FE3F4800883D
:103C5000FFF757FB31480078012841F0488231488E
:103C600001884AF68422881A914277D02BDC4AF6E2
:103C70001022A1EB0200914271D010DC6FF42A40B7
:103C80000844092881F02E82DFE810F076007F00DA
:103C9000CF02AE03D1030A043304AD055D0432281C
:103CA0006FD009DC11286DD012286CD030286BD071
:103CB000312841F01782F1E3712871D0722870D059
:103CC0007328F6D1EBE31C2800F067870DDCA0F128
:103CD0000C000828D6D2DFE810F0B206C806DE06CF
:103CE000F5060B07190730073607212801F09981DF
:103CF00039DC1D2801F081801E2801F0F6801F2884
:103D000001F0F68020282BE0940000200000024003
:103D100000100140004C0040300000205200002004
:103D200051000020DC0A0020380000203400002070
:103D300064000020DC0E002066000020440000200B
:103D40004700002046000020450000204C000020D5
:103D50004A0000204900002048000020F2E358E219
:103D6000A7D101F036B9372873D05C2800F0EE8671
:103D70005D289ED101F077B9FE4805F037FF01F0CC
:103D8000B2B9F4E3F4E3F4E3F4E3FA48801E4088C4
:103D90006B287CD1F748801EC088082878D201E0C3
:103DA000E9E3E9E3DFE800F0041E3B56758EAAC3A1
:103DB000F1480088059000EBD07040108F3880B239
:103DC00016901698C0B20590169800120490E94813
:103DD000801E0079039001466B20DDE9042306F084
:103DE000C9FDC1E0E4480088059000EBD0704010A8
:103DF0008F3880B216901698C0B205908021169820
:103E000001EB2020C0B20490DA48801E00790390B4
:103E100001466B20DDE9042306F0ACFDA4E0D648A2
:103E20000088059000EBD07040108F3080B2169063
:103E30001698C0B20590169800120490CD48801EC6
:103E40000079039001466B20DDE9042306F092FD22
:103E50008AE092E3C8480088059000EBD0704010DB
:103E60008F3080B216901698C0B2059080211698B7
:103E700001EB2020C0B20490BE48801E0079039060
:103E800001466B20DDE9042306F074FD6CE06CE074
:103E900069E0B9480088062190FBF1F08F3080B2CC
:103EA00016901698C0B20590169800120490B1486A
:103EB000801E0079039001466B20DDE9042306F0A3
:103EC00059FD51E0AC480088062190FBF1F08F309D
:103ED00080B216901698C0B205908021169801EB1A
:103EE0002020C0B20490A348801E007903900146B0
:103EF0006B20DDE9042306F03DFD35E09E48008897
:103F0000062190FBF1F08F3880B216901698C0B25F
:103F100005901698001204909648801E0079039030
:103F200001466B20DDE9042306F024FD1CE09248E5
:103F30000088062190FBF1F08F3880B21690169819
:103F4000C0B205908021169801EB2020C0B20490E9
:103F50008848801E0079039001466B20DDE9042328
:103F600006F008FD00E000BF1DE18248801E408889
:103F70006C2878D17F48801EC088082874D2DFE87A
:103F800000F0041E3B55748DA9C27C480088059042
:103F900000EBD07040108F3880B216901698C0B2E7
:103FA00005901698001204907248801E00790390C4
:103FB00001466C20DDE9042306F0DCFCC0E06F481C
:103FC0000088059000EBD07040108F3880B21690BA
:103FD0001698C0B205908021169801EB2020C0B23F
:103FE00004906448801E0079039001466C20DDE94E
:103FF000042306F0BFFCA3E060480088059000EBB6
:10400000D07040108F3080B216901698C0B20590D4
:104010001698001204905748801E007903900146BC
:104020006C20DDE9042306F0A5FC89E053480088F4
:10403000059000EBD07040108F3080B2169016982B
:10404000C0B205908021169801EB2020C0B20490E8
:104050004848801E0079039001466C20DDE9042366
:1040600006F088FC6CE06CE069E0444800880621BA
:1040700090FBF1F08F3080B216901698C0B2059088
:104080001698001204903B48801E00790390014668
:104090006C20DDE9042306F06DFC51E03748008810
:1040A000062190FBF1F08F3080B216901698C0B2C6
:1040B00005908021169801EB2020C0B204902D4875
:1040C000801E0079039001466C20DDE9042306F090
:1040D00051FC35E029480088062190FBF1F08F382B
:1040E00080B216901698C0B20590169800120490EF
:1040F0002048801E0079039001466C20DDE90423EE
:1041000006F038FC1CE01D480088062190FBF1F009
:104110008F3880B216901698C0B2059080211698FC
:1041200001EB2020C0B204901248801E0079039059
:1041300001466C20DDE9042306F01CFC00E000BF12
:1041400031E00F48007801282DD10A48801E4088B0
:1041500038BB0848801E80887F2809D10548801E0A
:10416000C0887F2804D10348801E00897F2815D08D
:10417000004807E0DE0A0020B6000020B40000205E
:1041800053000020801E808840280AD1FB48C08848
:10419000402806D1F9480089402802D10EF042FE9D
:1041A00001E00EF032FEF548007A0590F348807980
:1041B0000490F24800790390F0488078029003A9B7
:1041C0000EC906F0D7FB1420FFF79BF8ECA014F003
:1041D00039FBEF48007801281AD1E8484088B8B97F
:1041E000E6488088FF2807D1E448C088FF2803D12B
:1041F000E2480089FF2809D0E0488088FF2807D1DD
:10420000DE48C08820B9DD48008908B909F031FFCF
:10421000B5E5DA488078059006F026FE1420FFF711
:1042200070F8D7A014F00EFBA9E51420FFF769F889
:10423000D8A0DBA3DDA2E2A10090E3A014F002FB72
:104240000021E648CDE90210E549E648E64AE74B99
:10425000CDE90010E6A014F0F5FAE949E948CDE906
:104260000210E949E948CA10E94BCDE90010E9A07C
:1042700014F0E8FAEB48EC49CDE90201EB49EC48CF
:10428000EC4AED4BCDE90010E2A014F0DBFAEB486C
:10429000EB49CDE90401EB49EB48CDE90210EB49CC
:1042A000EB488A08EB4BCDE90010EBA014F0CAFAFA
:1042B0000021EF48CDE90210EE480A460346CDE959
:1042C0000010CBA014F0BEFA41F6D27041F6C873CC
:1042D00041F6BE7200210090E7A014F0B3FA00206E
:1042E000E949EAA3EAA2CDE90001EAA1EAA014F0B3
:1042F000A9FA01220021ECA014F0A4FA0021EC4854
:10430000CDE904100846EA49CDE902010021E84858
:104310000A460B46CDE90010CFA014F093FAB0483E
:10432000E4490022E44BCDE90001E4A014F08AFA4C
:104330000021DF48CDE90210E348E449E44AE54BB7
:10434000CDE90001B3A014F07DFA0021D848CDE9F1
:104350000210E148E149E24AE24BCDE90001ADA09B
:1043600014F070FA0021D248CDE90210DE49DF488E
:10437000DF4AE04BCDE90010A6A014F063FADEA1FD
:10438000EBA014F05FFAEC49E9A014F05BFA83A10A
:10439000E7A014F057FA002000900246034601906F
:1043A000E6A014F04FFA002100910A460B46E3A064
:1043B000019114F047FA002100910A460B46DFA054
:1043C000019114F03FFA002000900246034601904C
:1043D000DAA014F037FA00221346DBA014F032FA08
:1043E0001420FEF78EFFCAE4022004F0FBFE0EF05C
:1043F000FDFE01280CD1D7A014F024FA012004F00E
:10440000F1FE002004F0F9FE022004F0F6FE0BE0BD
:10441000D5A014F017FA002004F0E4FE022004F006
:10442000ECFE012004F0E9FE04F096FFA7E4D34877
:10443000007802281DDBD148007803280FD1002323
:104440001A461946552006F095FA002004F0CAFED7
:10445000022004F0D2FE012004F0CFFE1BE0012078
:1044600004F0C0FE022004F0C8FE002004F0C5FEE7
:1044700011E0C3A014F0E6F900231A4619465520AE
:1044800006F078FA002004F0ADFE022004F0B5FE3C
:10449000012004F0B2FE04F05FFF70E441E29AE212
:1044A000BAA014F0CFF906F00BFE0A20FEF729FFA0
:1044B000BCA014F0C7F905F0A8FA6420FEF721FFAC
:1044C000BD4805F093FB1420FEF71BFFAFA014F0CE
:1044D000B9F906F0F5FD3220FEF713FFB74805F0F5
:1044E00085FB3220FEF70DFF40F6FF7006F089FFD6
:1044F00045E4A6A014F0A6F906F0E2FD0A20FEF7B6
:1045000000FFA8A014F09EF905F07FFA6420FEF7E2
:10451000F8FEA94805F06AFB1420FEF7F2FE9BA006
:1045200014F090F906F0CCFD3220FEF7EAFEA44824
:1045300005F05CFB3220FEF7E4FE40F6FF7006F06B
:1045400060FF1CE469E20D4880789E4908700B48C2
:1045500000799D490870094880799C49087007488E
:1045600000899B4908809BA014F06CF907E401E2E4
:104570005FE168E17DE109E214E22FE1DC0A00205D
:104580002A232A2341434B232A232A0D0A00000011
:10459000530000204F54505F56315030000000004F
:1045A0004E5433363637324100000000544C30361A
:1045B000354656584630312D30305F4736000000C2
:1045C0004E4F564154454B002A232A232573242558
:1045D00073242573242573240D0A00000000044071
:1045E0009A99999999990140676666666666FE3F51
:1045F000252E326624252E326624252E326624008E
:1046000014AE47E17A14D63FE17A14AE47E1D23FC7
:10461000285CCF3F252E336624252E336624252E95
:10462000336624005C8FC2F5285CD73F295C8FC2BB
:10463000F528D43FF6285C8FC2F5D03F7B14AE47F7
:10464000E17AD43F48E17A14AE47D93FCDCCCCCC07
:10465000CCCCD43F3333D33F252E336624252E33A1
:104660006624252E336624252E33662400000000A0
:1046700000C077400000144025642425642425648C
:10468000242564240D0A0000000040C030460000CC
:104690003146000030300000257324257324257333
:1046A00024252E326624000025642425642400007D
:1046B0000000E03F9999E93F00407F40252E326697
:1046C00024252E33662400001904560E2DB2D53F42
:1046D0008195438B6CE7E33FB0726891ED7CE33FDB
:1046E000D578E9263108D43FD9CEF753E3A5AB3FBF
:1046F000DF4F8D976E12C33F383020393020313074
:1047000030203131302031323020313330203134DB
:1047100030203135302031363020313730203138BB
:10472000302031393020323030203231300000003A
:104730002573240D0A000000A4B40108252E336659
:1047400024252E3366240000252E3266232A232AB0
:104750000D0A00002A232A234F5450204F4B232AAE
:10476000232A0D0A000000002A232A234F54502038
:104770004E47232A232A0D0A00000000880A002041
:10478000436865636B204E470D0A00000D0A4472B2
:10479000697665722049435F52657365742E2E2ECB
:1047A0000D0A00000D0A4D4950495F52657365744A
:1047B0002E2E2E0D0A00000056010020D2010020EE
:1047C000C20900204E0000204F00002050000020B1
:1047D0008A0A002041434B0D0A000000AFF20C0092
:1047E00014F030F814E5FE484088FE490880FC4883
:1047F00080884880FA4880790871F948007A4871C1
:10480000F748807A8871F648007BC871F448807B4D
:104810000872F348007C48720846016803914168B9
:1048200004910089ADF81400059A039805F02FFE55
:10483000EEE40EF0DFFBEC490870E9488078059063
:1048400006F05DF8E4E4002016900BE0E4491698C9
:10485000401C11F8101006AA169811541698401C06
:1048600080B2169016980E28F0DB06A805F0F5FE2B
:10487000CEE4022004F0B6FC0EF0BCFBDA4908706E
:104880000846007802281CDB0221D8A013F0DAFFCA
:10489000DCA013F0D7FF0520FEF733FDDCA013F0FA
:1048A000D1FF002006F02BF800231A4619465520A8
:1048B00006F060F8002004F095FC022004F09DFC56
:1048C0002EE00EF093FC012815D10520FEF719FD0E
:1048D000D4A013F0B7FF082006F011F880231A4681
:1048E0001946162006F046F8012004F07BFC022051
:1048F00004F083FC14E00520FEF703FDC4A013F0D0
:10490000A1FF002005F0FBFF00231A4619465520A1
:1049100006F030F8002004F065FC022004F06DFC85
:10492000E1E3C548006813F0DAF9C449059013F0D3
:1049300010F8C34908600BF0E8FB10B1C14813F050
:1049400081FFBD48006813F0CAF9BC49019013F01B
:1049500000F80290BA480168029812F0C2FF039072
:1049600013F02CFA02460B46CDE90401B6A013F071
:1049700069FFB8E306F0E1FB06F0ECFC06F007FD8A
:1049800004F00FF8BEA013F05DFF00BF944840880C
:1049900005900EF054FA0520FEF7B3FCBEA013F00C
:1049A00051FFA0E3C148008840F08000BF49088063
:1049B00008460188BEA013F045FF8948007905909C
:1049C0008748807806AB04900146BE480078059A77
:1049D00005F04AFA87E38248807801460590032073
:1049E00005F090F87E48007901460590032005F017
:1049F000B4F87B48807901460590032005F0ADF8B6
:104A0000B721B048007805F0D4F8A84908800846D6
:104A10000188ADA013F016FF65E371488078014668
:104A20000490A848007805F0C4F805906C484088C8
:104A300004900146A9A0059A13F004FF53E36848C7
:104A40004088012806D100BF1021B248FBF7A2FC24
:104A500000BF09E06248408830B900BF1021AD486E
:104A6000FBF796FC00BF00BF3DE35D48408801288E
:104A700006D100BF0821A748FBF78CFC00BF09E066
:104A80005748408830B900BF0821A248FBF780FC96
:104A900000BF00BF27E352484088012806D100BF6D
:104AA00041029D48FBF776FC00BF0AE04C48408875
:104AB00038B900BF4FF400719748FBF769FC00BF9D
:104AC00000BF10E346484088012806D100BF80217E
:104AD0009048FBF75FFC00BF09E04148408830B9CF
:104AE00000BF80218B48FBF753FC00BF00BFFAE2F8
:104AF0003B484088012802D100BF00BF05E038488C
:104B0000408810B900BF00BF00BFECE234484088C5
:104B1000012806D100BF81038048FBF73BFC00BFA2
:104B20000AE02F48408838B900BF4FF480417B48E5
:104B3000FBF72EFC00BF00BFD5E229484088059056
:104B400006F05FFCCFE206F0BBFACCE224488178A5
:104B5000734801702248808800127249087020480A
:104B60000079714908701E48C08800126F490870AA
:104B70001B4880796E4908701948008900126D49F8
:104B800008701748007A6C490870154840896B49CD
:104B900008806BA013F056FEA5E22748006813F0CA
:104BA0009EF82649059012F0D4FE254908600020A1
:104BB0006A4908706A4908706A4908706A49087049
:104BC0006A49087000216A480170012004F00AFB5C
:104BD000002004F012FB022004F00FFBCAE00000EA
:104BE000DC0A00204C010020880A00204F5450208D
:104BF00074696D6573206973206F76657220256412
:104C0000210D0A004F5450204E470D0A00000000AD
:104C10000D0A2A232A234F54503A4E47232A232A87
:104C20000D0A00000D0A2A232A234F54503A4F4BF5
:104C3000232A232A0D0A00005C00002000007A4489
:104C40004000002060B401080D0A3D3D3D3D3D207F
:104C5000234141343123204175746F56636F6D28B1
:104C6000292074696D6520656C61707365643A20F4
:104C7000252E3366287365636F6E64290D0A000064
:104C80000D0A2A232A23504F5745523A4F464623AE
:104C90002A232A0D0A0000000D0A2A232A2356433C
:104CA0004F4D3A4F4B232A232A0D0A00B200002011
:104CB0000D0A5353445F4237203D2030782530346D
:104CC000780D0A008C0A00205353445F4237203D80
:104CD000203078253034580D0A00000054686520D3
:104CE000706172616D65746572206F662053534404
:104CF0003238323820726567697374657220307893
:104D000025303258206973203078253034580D0A08
:104D100000000000000C02400018024000040240A5
:104D200044000020450000204600002047000020ED
:104D300048000020490000204A0000204C000020CC
:104D40000D0A20696E74657276616C2064697370F7
:104D50006C61792E2E2E0D0A00000000DD0000206F
:104D6000DE000020DF000020E0000020E100002045
:104D7000E200002008F0E4FD06F0B2FC002005F09F
:104D8000BEFDF848007870B9F748007804280AD0CA
:104D9000F5480078012806D000231A461946542009
:104DA00005F0E8FD05E0FF231A461946002005F04E
:104DB000E1FDEEA013F046FDF248006812F08FFF0F
:104DC000F149019012F0C5FD0290F0480168029887
:104DD00012F087FD039012F0F1FF02460B46CDE979
:104DE0000401EBA013F02EFD6420FEF78AFA09F00F
:104DF00040F9012004F001FA75E1E248006812F080
:104E00006EFFE149059012F0A4FDE0490860002022
:104E100004F0E8F9D448007801282CD006F02CFBE7
:104E2000FF231A461946002005F0A4FD6420FEF772
:104E300068FA09F0ACF8E448006812F0BFFFE34AF2
:104E4000E34BCDE9040112F0CDFF0BD3DE4800683F
:104E500012F0B4FF4FF03332DE4BCDE9040112F013
:104E6000D9FF03D2DCA013F0EDFC02E0E3A013F0C5
:104E7000E9FC09F01AF8002006F0C3FA06F05DF923
:104E800006F068FA06F00FFA06F081FA09F031FB35
:104E900003F087FD08F017FE0520FEF732FA022026
:104EA00004F0ABF9002004F0A8F9012004F0A5F902
:104EB000AFF2342013F0C6FCB248006812F00FFFC6
:104EC000B149019012F045FD0290B0480168029886
:104ED00012F007FD039012F071FF02460B46CDE978
:104EE0000401CCA013F0AEFCFDE005F0AFFCFAE04D
:104EF000A448006812F0F3FEA349059012F029FDC2
:104F0000A2490860022004F06DF9F020CF49087032
:104F1000CF48007878B9012005F0F1FCCDA005F06C
:104F20009CFB00231A461946722005F023FDCCA0F5
:104F300013F088FCD7E0FF231A461946002005F03D
:104F400019FD4FF47A70FEF7DCF900F09CFED049B1
:104F5000D048006812F092FF03D2CFA013F072FC89
:104F6000C1E00BF0BEFE60B9002005F0C8FC0023D4
:104F70001A461946552005F0FDFC022004F03DF9C3
:104F80000BE0082005F0BBFC80231A4619461620CA
:104F900005F0F0FC022004F030F9C4A013F052FC3C
:104FA0007848006812F09BFE7749019012F0D1FC1E
:104FB000029076480168029812F093FC039012F078
:104FC000FDFE02460B46CDE90401BCA013F03AFCFD
:104FD00089E06C48006812F082FE6B49059012F07F
:104FE000B8FC6A49086009F0F2FA002005F087FC75
:104FF0006448006812F073FE6349019012F0A9FC46
:10500000029062480168029812F06BFC039012F063
:10501000D5FE02460B46CDE90401B4A013F012FC04
:1050200061E0C148807800F0010088B1FF231A4692
:105030001946002005F09EFC06F01EFA6420FEF7DB
:1050400060F9AFF6C42013F0FDFB09F012F809E097
:10505000FF231A461946002005F08CFC40F6FF702D
:1050600006F0CFF93FE0B048408801460590AFA078
:1050700013F0E8FBAC48807800F0010078B1B7A0ED
:1050800013F0E0FB0120BC490870002005F037FC5C
:10509000FF231A461946002005F06CFC05E0B7A076
:1050A00013F0D0FB0020B44908709F48807800F0CE
:1050B000020048B1B9A013F0C5FB0120BF49087038
:1050C0005520BF49087009E0BEA013F0BBFB0020CB
:1050D000BA490870C3480078B9490870C2A013F0F3
:1050E000B1FB00E000BF00BF0020C849087017B046
:1050F00000BDF0B503460D461646002729460A2E88
:1051000003D0002008702846F0BD33B9302001F8E4
:10511000010B002008702846F6E7002B03DA2D204B
:1051200001F8010B5B4242F210720DE093FBF2F4C6
:1051300004B937B104F1300001F8010B04FB12335C
:1051400001270A2092FBF0F2002AEFDC0020087011
:105150002846D9E70FB470B586B006460CA8019072
:10516000CAE10000880A0020240000200D0A2A233A
:105170002A23504F5745523A4F4E232A232A0D0ACD
:10518000000000005C00002000007A444000002085
:105190000D0A3D3D3D3D3D202341414130232070DE
:1051A0006F776572206F6E2074696D6520656C6124
:1051B000707365643A20252E3366287365636F6EBD
:1051C00064290D0A00000000FC0000209A999999BA
:1051D0009999F93F333303400D0A2A232A23435573
:1051E0005252454E545F4E473A4C45444120444943
:1051F0004D21232A232A0D0A000000000D0A2A232C
:105200002A2343555252454E545F4F4B232A232A9B
:105210000D0A00000D0A3D3D3D3D3D202341414129
:10522000312320706F776572206F66662074696D18
:105230006520656C61707365643A20252E3366289D
:105240007365636F6E64290D0A0000004801002039
:10525000670000204D5345204552524F5200000038
:105260004D5345206572726F722120506C656173D9
:105270006520636865636B20746865204D53452025
:10528000636F6E6E656374696F6E210D0A000000B6
:105290000000C842740000200D0A2A232A234C492A
:1052A000543A4E47232A232A0D0A00000D0A2A23C6
:1052B0002A23454E44232A232A0D0A000D0A3D3D88
:1052C0003D3D3D20234141413323206F74702074C4
:1052D000696D6520656C61707365643A20252E33B5
:1052E00066287365636F6E64290D0A000D0A3D3DE3
:1052F0003D3D3D2023414141342320637572726559
:105300006E7420636865636B2074696D6520656CDD
:1053100061707365643A20252E3366287365636F68
:105320006E64290D0A000000DC0A00200D0A3D3DD4
:105330003D3D70726F6A65637420636F6E66696766
:1053400075726174696F6E206F7074696F6E206919
:1053500073203A305825580D0A0000000D0A2A2300
:105360002A234155544F4C494E455F454E41424CCE
:1053700045232A232A0D0A00530000200D0A2A2360
:105380002A234155544F4C494E455F4449534142AD
:105390004C45232A232A0D0A000000000D0A2A2367
:1053A0002A2347414D4D414558504552545F454E83
:1053B00041424C45232A232A0D0A000054000020B4
:1053C000A80000200D0A2A232A2347414D4D4145BC
:1053D00058504552545F44495341424C45232A2377
:1053E0002A0D0A00A70000200D0A2A232A23504F65
:1053F0005745525F5355535441494E5F44495341B9
:10540000424C4521232A232A0D0A00005200002085
:105410000B9800785C281CD10B98401C0B900078EE
:105420006E2809D072280FD10D213046FBF7B9FB49
:105430000B98401C0B900BE00A213046FBF7B1FBA8
:105440000B98401C0B9003E00B98401C0B9000BF86
:105450004BE00B980078252840D10B98401C0B900E
:105460000078642818D0732833D1019810C80190AF
:105470000BE021783046FBF794FB00BF402130461B
:10548000FBF73FFC0028F9D0641C20780028F0D1FD
:105490000B98401C0B9020E0019820C801900A2234
:1054A00002A92846FFF725FE02AC0BE02178304622
:1054B000FBF777FB00BF40213046FBF722FC0028BA
:1054C000F9D0641C20780028F0D10B98401C0B9078
:1054D00003E00B98401C0B9000BF06E00B9810F8FF
:1054E000011B0B903046FBF75CFB00BF40213046B0
:1054F000FBF707FC0028F9D00B980078002887D12B
:1055000006B070BC5DF814FB0EB501210846FBF730
:105510003CF94FF08040FCF7C3FC3B20ADF80000A5
:105520000020ADF80800092001900020ADF802002D
:105530008DF80A0069464FF08040FCF75EFD0121BE
:105540008807FDF70FFA012211469007FDF7F6F9DB
:1055500001218807FCF7DAFD0EBD0EB501210220FE
:10556000FBF713F94148FCF79BFC3B20ADF800002A
:105570000020ADF8080040F2E73001900020ADF8BF
:1055800002008DF80A0069463848FCF736FD012113
:105590003648FDF7E7F9012211463448FDF7CEF908
:1055A00001213248FCF7B2FD0EBD0EB501210420E9
:1055B000FBF7EBF82E48FCF773FC4EF65F20ADF8D6
:1055C00000000020ADF8080040F2E7300190002014
:1055D000ADF802008DF80A0069462548FCF70DFD7C
:1055E00001212348FDF7BEF9012211462048FDF7AD
:1055F000A5F901211E48FCF789FD0EBD10B501215A
:105600008807FDF7A6F9012805D105F03AFF012129
:105610008807FDF7A7F910BD10B501211348FDF764
:1056200098F901280BD113480068401C1149086003
:1056300001201149087001210C48FDF793F910BDB4
:1056400010B501210A48FDF784F901280DD10B4856
:105650000088401C094908800846018808A013F00A
:10566000F1F801210248FDF77DF910BD000400406A
:10567000000800405C00002058000020600000206E
:105680000D0A54696D6572345F5365635F436F75CE
:105690006E746572203D202564287365636F6E64A7
:1056A000290D0A0070B50325002424E00020F549E7
:1056B0000880F54908700024F4A1F9480068FFF754
:1056C00049FD04E00120FDF71CFE601C84B2EE4899
:1056D000007808B9642CF5DBF24800783E2807D141
:1056E000F04840783E2803D10120EF49087007E0D8
:1056F0000020ED490870281EA5F10101CDB2D5D1D9
:1057000000BFE948007800B970BD24E00020DD4901
:105710000880DD4908700024E4A1E1480068FFF733
:1057200019FD04E00120FDF7ECFD601C84B2D648B1
:10573000007808B9642CF5DBDA4800783E2807D1F8
:10574000D84840783E2803D10120D749087007E0A7
:105750000020D5490870281EA5F10101CDB2D5D190
:1057600000BFD148007800B9CEE7032524E000202F
:10577000C4490880C44908700024D3A1C8480068FF
:10578000FFF7E8FC04E00120FDF7BBFD601C84B2DC
:10579000BD48007808B9642CF5DBC24800783E2883
:1057A00007D1C04840783E2803D10120BE49087087
:1057B00007E00020BC490870281EA5F10101CDB208
:1057C000D5D100BFB848007800B99DE7032524E093
:1057D0000020AC490880AC4908700024BFA1B04843
:1057E0000068FFF7B7FC04E00120FDF78AFD601CAC
:1057F00084B2A548007808B9642CF5DBA948007884
:105800003E2807D1A74840783E2803D10120A64969
:10581000087007E00020A4490870281EA5F10101C6
:10582000CDB2D5D100BFA048007800B96CE7032500
:1058300024E0002093490880934908700024ADA11A
:1058400097480068FFF786FC04E00120FDF759FD4A
:10585000601C84B28C48007808B9642CF5DB914850
:1058600000783E2807D18F4840783E2803D1012098
:105870008D49087007E000208B490870281EA5F1AB
:105880000101CDB2D5D100BF8748007800B93BE710
:10589000032524E000207B4908807B490870002410
:1058A00098A17F480068FFF755FC04E00120FDF750
:1058B00028FD601C84B27448007808B9642CF5DBBC
:1058C000784800783E2807D1764840783E2803D1B2
:1058D00001207549087007E0002073490870281EF0
:1058E000A5F10101CDB2D5D100BF00BF0CE72DE974
:1058F000F041032523E000206249088062490870D6
:10590000002485A166480068FFF724FC04E001201C
:10591000FDF7F7FC601C84B25B48007810B9B4F561
:105920007A7FF4DB5F4800783E2803D15D484078F9
:105930003E2802D0B4F57A7F00DB00E004E0281EA8
:10594000A5F10101CDB2D6D100BF564813F068FFD2
:10595000064612F077FA754908600846006812F0AA
:105960002DFA064632460B4671A012F06BFF29460F
:1059700074A012F067FFBDE8F0812DE9F84F44F202
:10598000500014F0A9FB05464FF000091DB972A0A4
:1059900012F058FF66E000203A4908803A49087042
:1059A000002403234FF4006272A13D480068FFF712
:1059B000D1FB04E00120FDF7A4FC601C84B2324856
:1059C000007810B9B4F5FA6FF4DB6FA1354811F027
:1059D00007FF8146484613F023FF074612F032FACC
:1059E000064669A1002011F0FBFE814666A1002059
:1059F00011F0F6FE814664A1002011F0F1FE81460F
:105A000000240DE0484613F00BFF2246631C9CB2B5
:105A100005EBC20203C25CA1002011F0E1FE814649
:105A2000B9F1000FEED1304612F0C8F907464FF435
:105A300000603A460B460090284600F007FE82467A
:105A400012F000FA394908600846006812F0B6F909
:105A500007463A460B464DA012F0F4FE284614F0D5
:105A6000F3F80025BDE8F88F70B503250024FF2367
:105A70001A461946002004F07DFF4FF4FA70FDF736
:105A800040FCB3E064000020660000203A53454E1D
:105A900053653A494E54203230303030300A0000DD
:105AA00034000020DC0E0020670000203A53454EF1
:105AB00053653A4155544F5041524D532036302C86
:105AC000312C31350A0000003A53454E53653A41B6
:105AD00055544F52414E474520310A003A53454EE6
